:020000040800F2
:1000000000260024E1020008B9C0000879AA00080F
:1000100099BD0008110E0008D1F30008000000008F
:10002000000000000000000000000000B1DB00083C
:10003000692700080000000061D00008F9E200080C
:10004000FB020008FB020008FB020008FB0200089C
:10005000FB020008FB020008FB020008FB0200088C
:10006000FB020008FB020008A92900081112000881
:100070002112000831120008411200085112000834
:100080006112000871120008FB020008692E0008C6
:10009000892E0008792E0008992E0008B129000841
:1000A000FB020008FB020008FB020008FB0200083C
:1000B00099E40008A9E40008B9E40008FB0200087C
:1000C000FB020008FB020008FB020008FB0200081C
:1000D000FB020008A1F30008B1F30008C1F3000817
:1000E000A1290008FB02000800000000FB02000834
:1000F000FB020008FB020008FB0200088112000856
:10010000FB020008FB020008FB020008FB020008DB
:1001100029EA0008FB020008FB020008FB020008B5
:1001200091120008A1120008FB020008FB0200085F
:10013000FB020008FB020008FB020008FB020008AB
:1001400000000000000000000000000000000000AF
:10015000FB020008FB020008FB020008FB0200088B
:10016000FB020008FB020008FB020008FB0200087B
:10017000FB020008FB020008FB0200080000000070
:10018000FB020008FB020008FB020008FB0200085B
:10019000B9DA0008FB020008FB020008FB020008B5
:1001A000FB020008FB020008FB0200080000000040
:1001B000FB020008FB020008FB020008FB0200082B
:1001C000FB020008FB020008000000000000000025
:1001D0000000000000000000FB020008000000001A
:1001E000000000000000000000000000000000000F
:1001F0000000000000000000FB020008FB020008F5
:10020000FB020008FB02000800000000FB020008DF
:10021000FB020008FB020008FB020008FB020008CA
:10022000FB02000800000000FB02000800000000C4
:10023000FB020008FB02000800000000FB020008AF
:10024000FB020008FB020008FB020008FB0200089A
:10025000FB020008FB020008FB020008FB0200088A
:10026000FB020008FB020008FB020008FB0200087A
:10027000FB020008FB020008FB020008000000006F
:10028000FB020008FB020008FB020008FB0200085A
:1002900000000000FB020008FB0200080000000054
:1002A00000000000FB020008FB020008FB0200083F
:1002B000FB020008FB020008FB020008A92E000850
:1002C000B92E000889E40008FB020008DFF80CD012
:1002D00000F0AEF900480047490301080026002459
:1002E0000648804706480047FEE7FEE7FEE7FEE7D0
:1002F000FEE7FEE7FEE7FEE7FEE7FEE7D9E30008DC
:10030000CD0200082DE9F05F0546002092469B468D
:1003100088460646814640241BE02846414647461B
:10032000224600F0E1F853465A46C01A914110D3D4
:1003300011461846224600F0C8F82D1A67EB01084E
:100340004F4622460120002100F0BFF817EB0009BC
:100350004E41201EA4F10104DFDC484631462A4606
:100360004346BDE8F09F40EA01039B0703D009E044
:1003700008C9121F08C0042AFAD203E011F8013B91
:1003800000F8013B521EF9D27047D2B201E000F8EA
:10039000012B491EFBD270470022F6E710B5134629
:1003A0000A4604461946FFF7F0FF204610BD421CDE
:1003B00010F8011B0029FBD1801A704710B50022EC
:1003C00000E0521C835C8C5CA34201D1002BF8D16D
:1003D000D8B2E1B2401A10BD034611F8012B00F863
:1003E000012B002AF9D118467047F0B4CA17CB0F79
:1003F00050405140C61841F100054FEAC3723146E2
:1004000028004FF0960303D0B623F0BC00F085B867
:1004100030460021F9E73EB5CA17CB0F0024504003
:100420005140C0186141DA0740F233430094CDE9EE
:1004300001232246234600F0ADF803B030BD10B5CD
:1004400000F0004420F00040C20DC0F3160040F45C
:1004500000007F2A02DA0020014610BD0021962A02
:1004600003DCC2F19602D04002E0963A00F02DF88B
:10047000002CF2D00023D0EB030063EB010110BD90
:1004800070B5C1F30A5201F000450024C1F3130115
:1004900040F2FF3341F480119A4202DA0020014613
:1004A00070BD40F233439A42A2F2334203DC52421F
:1004B00000F01AF801E000F008F82C43F0D0002317
:1004C000D0EB030063EB010170BD202A04DB203A6E
:1004D00000FA02F1002070479140C2F1200320FA97
:1004E00003F3194390407047202A04DB203A21FA95
:1004F00002F00021704721FA02F3D040C2F120023D
:1005000091400843194670470029A8BF7047401C16
:10051000490008BF20F00100704710B4B0FA80FC19
:1005200000FA0CF050EA010404BF10BC704749B156
:10053000CCF1200421FA04F411FA0CF118BF0121C6
:1005400021430843A3EB0C01CB1D4FEA00614FEAA6
:10055000102042BF002010BC704700EBC350104475
:100560000029A4BF10BC7047401C490008BF20F000
:10057000010010BC704710B5141E73F1000408DAB6
:10058000401C41F1000192185B411A4301D120F057
:10059000010010BD2DE9F04D92469B4611B1B1FA14
:1005A00081F202E0B0FA80F220329046FFF78DFF30
:1005B00004460F4640EA0A0041EA0B0153465A46F8
:1005C000084313D0114653EA010019D0C8F1400284
:1005D0005046FFF789FF05460E46504659464246AB
:1005E000FFF773FF084305D0012004E02046394699
:1005F000BDE8F08D0020054346EAE0762C43374302
:100600000A986305E40AA0EB08000022FD0A44EA08
:1006100047540A3002D500200146E9E701051019C8
:100620006941DDE9084500196941BDE8F04DA2E7DF
:100630001CB509480090094801900546009C06E059
:10064000E06840F0010394E8070098471034AC429A
:10065000F6D3FFF73FFE00006C2801089C28010834
:1006600070B58C1810F8015B15F0070301D110F874
:10067000013B2A1106D110F8012B03E010F8016BA1
:1006800001F8016B5B1EF9D12B0705D40023521E24
:100690000DD401F8013BFAE710F8013BCB1A921C8C
:1006A00003E013F8015B01F8015B521EF9D5A1428A
:1006B000D8D3002070BD0000F0B581B02DED028BC5
:1006C00040F2427040F2D654C2F20040C2F20044FE
:1006D00080780138032841D8DFE800F0023E053B6E
:1006E00002F052F83AE040F2442041F68445C2F26A
:1006F0000040C2F200450168296041686960806875
:10070000A86042F63D00C0F601000CF0DDFC95ED5E
:10071000000A95ED011A95ED032A95ED043A32EEA3
:10072000400A33EE411AB7EEC00AB7EEC11A11F013
:1007300067F89FED2D1BB4EE410BF1EE10FA0DDAC8
:100740000120207042F64100C0F601000DF0A0FA31
:1007500004E00DF0A9FC01E002F07EF840F2EC1597
:1007600040F2F266C2F20045C2F20046287D01283E
:100770001CBF707801280DD140F2F0510020C2F268
:100780000041B070A882308020700870BDEC028BF0
:1007900001B0F0BD20780128EED040F2B437C2F2AB
:1007A000004797ED000A97ED011AB7EEC00AB7EEC1
:1007B000C11A11F025F8B3EE0E8BB4EE480BF1EE32
:1007C00010FAD9DC97ED020A97ED031AB7EEC00ACA
:1007D000B7EEC11A11F014F8B4EE480BF1EE10FAAE
:1007E000CADCD3E700BF00BF0000000000407F402C
:1007F00040F2F2600021C2F2004040F2EC12C2F27C
:1008000000428170018040F2D650C2F200409182D5
:10081000017040F2F050C2F20040017070470000D9
:1008200040F2D80041F68441C2F20040C2F20041D9
:10083000B7EE002A90ED090A91ED161A20EE013A62
:1008400090ED0A0A91ED181A40F24811C2F20041E7
:10085000A0EE013A91ED050A91ED0B1A31EE400A36
:1008600090ED001A80ED0D0AB4EE423AF1EE10FA66
:1008700008DBB1EE002AB4EE423AF1EE10FA01DCE8
:10088000B0EE432AB0EEC04A90ED065A90ED053A1C
:10089000B7EEC22AB7EEC37A84FE456AB4EE443A94
:1008A000F1EE10FA75EE430A33FE066AB4EE434ADF
:1008B0009FED1E3AF1EE10FAB7EEC66A36EE476BC0
:1008C000B7EEE07A86EE076B26EE066B26EE022B7D
:1008D000B7EEC22B80ED0C2A15DDB4EE454AF1EEE1
:1008E00010FA10DA90ED013A90ED0E4AA3EE004AAC
:1008F00090ED075AB1EE453AB4EE434AF1EE10FAE4
:1009000001DB84FE453A20EE010A80ED0E3AA2EEAC
:10091000003A90ED080AB1EE401A83FE400AB4EEA8
:10092000431AF1EE10FA31FE000A70470000000091
:10093000F0B581B02DED088B40F2F264C2F20044B4
:100940002078012800F0988040F21815C2F2004586
:10095000D5ED070A95ED080A10F0A2FD9FED488A33
:1009600095ED031A20EE080A9FED469AB1EE411A62
:1009700080EE090AB4EE410AF1EE10FA1ADBD5ED69
:10098000070A95ED080A10F08BFD20EE080A95ED98
:10099000031A80EE090AB4EE410AF1EE10FA09DCFE
:1009A000D5ED070A95ED080A10F07AFD20EE080A49
:1009B00080EE091A21EE090A41F61C66C2F20046D1
:1009C00040F24817C2F2004780EE080A96ED132A5B
:1009D000B7EEC2AA95ED012AB7EEC2BA87ED081AA2
:1009E000B7EEC00A10F0B4FEABEE40AB97ED081ABC
:1009F00096ED140A21EE091A81EE081AB7EEC08AA4
:100A000095ED010AB7EEC09AB7EEC10AB7EECA1B60
:100A100087ED061A11F040F8A9EE408B002095ED05
:100A2000021A97ED082A31EE021A96ED1D4AB7EE2A
:100A3000C80B786187ED070A97ED062A96ED1C3AF8
:100A400087ED081A96ED1E5A30EE440A32EE432A1C
:100A500087ED0A0A31EE450A87F86C00C7E9030002
:100A6000C7E91500C7E91700C7E9190087ED092A8A
:100A7000012087ED0B0A2070BDEC088B01B0F0BDA2
:100A800000003443DA0F494010B541F61C6040F2D3
:100A90001814C2F20040C2F2004490ED130A90ED27
:100AA000141A90ED1C2A90ED1D3A70EE420A31EEB8
:100AB000430AC4ED070A84ED080A10F0F1FC94ED36
:100AC000071A94ED083AB7EEC12A84ED0A0AB7EE88
:100AD000C31AB0EE420B10F093FEB7EEC00B84EDDC
:100AE000090A10BD00000000B0B52DED088B40F2E2
:100AF0004814C2F2004494ED030A94ED041A94EDF4
:100B0000092A94ED0A3A32EE408A33EE419AB7EE62
:100B1000C8BAB7EEC9AAB0EE4B0BB0EE4A1B10F044
:100B20006FFEB7EEC02B94ED0F1A94ED103A84EDE2
:100B3000162AB0EEC20A9FEDB22AB0EE427A80FECB
:100B4000414AB4EE403AF1EE10FA31EE431A33FE68
:100B5000040AB7EEC34AB7EEC11AB7EEC00AB0EE48
:100B6000CB3B30EE440B94ED0C4A80EE010B94ED40
:100B7000121AB7EEC11A20EE000BB4EE413BB7EEED
:100B8000C00BF1EE10FA84ED150A0EDA94ED115A4D
:100B9000B0EE427AB7EEC55AB4EE453BF1EE10FA2C
:100BA00003DD94ED0E5A28EE057A94ED115A28EEE5
:100BB000046AB7EEC55AB4EE453BB0EE423AF1EEE8
:100BC00010FA0EDB94ED173AD4ED130A37EE037AE0
:100BD000B1EE603AB4EE437AF1EE10FA01DB87FE33
:100BE000603AB0EECA7B84ED173AA0EE063A29EEE1
:100BF000044AB4EE457BF1EE10FA84ED193A20DB9D
:100C0000B4EE457B94ED0E2A29EE022A9FED7C5A24
:100C1000F1EE10FAB4EE471B94ED131A32FE052ADA
:100C2000F1EE10FA32FE052A94ED185A35EE025A0A
:100C3000B1EE412AB4EE425AF1EE10FA01DB85FE24
:100C4000412A84ED182AA0EE042AB7EEC30A84EDE7
:100C50001A2AB7EEC21A10F0D3FD94ED141AB1EEB1
:100C600041AAB7EECA1AB4EE410BF1EE10FA1EDB40
:100C700094ED190A94ED1A1AB7EEC00AB7EEC11A2C
:100C800010F0BEFD94ED14AAB7EECA1AB4EE410BF3
:100C9000F1EE10FA0BDC94ED190A94ED1A1AB7EE86
:100CA000C00AB7EEC11A10F0ABFDB7EEC0ABB0EEA4
:100CB000490AF0EE480A10F0F3FB41F61C609FED84
:100CC000512AC2F20040B7EECAAA90ED1E1A21EED8
:100CD000021A9FED4D2A81EE021A30EE010AB7EE9C
:100CE000C08AB0EE480B10F0D7FE20EE0A0BB7EE2C
:100CF000C09BB0EE480B10F02BFD20EE0A0BB7EEB8
:100D0000C08BFFF78DFDB0EE401AB0EE490AF0EE51
:100D1000480A00F0C9F894ED030A94ED041A94ED22
:100D2000092A94ED0A3A32EE400A40F2883533EE51
:100D3000411AC2F20045B7EEC00AB7EEC11A95E8F3
:100D400007006860C5E9021210F05AFDB7EEC00B4B
:100D50002A1F0020042100BF92ED011A0432B4EED4
:100D6000401AF1EE10FAB8BF0130013940B2F3D1A8
:100D700040F2D80185ED000AC2F200419FED1E2B22
:100D800091ED0D1AB0EEC11AB7EEC11AB4EE421BC6
:100D9000F1EE10FA1DDA002102284FF0000094ED68
:100DA000160A9FED1A1AC8BF0120B4EE410AF1EEEF
:100DB00010FAB8BF012108424FF001000BD1B3EE89
:100DC000041AB4EE410AF1EE10FAA8BF94F86C00D0
:100DD00001E094F86C00012884F86C0009D142F617
:100DE0006000C0F60100BDEC088BBDE8B0400CF01F
:100DF0004FBFBDEC088BB0BD333333333333F33FD8
:100E000000000000DA0F49C0000034430000A04297
:100E1000FEE7000000000000B0B54AF2C40540F251
:100E2000B814C4F20005C2F200442868800208D554
:100E300041F6B8602168C2F20040FFF7CDFA0AF02F
:100E4000D3F9D5F80004800208D541F6B8602168CE
:100E5000C2F20040FFF7C0FA0AF01AFA4DF2C4409D
:100E6000C4F200000068800258BFB0BD41F6B8600F
:100E70002168C2F20040FFF7AFFABDE8B0400AF0C7
:100E80005BBA000000000000B22818BF704740F2B3
:100E900042700121C2F20040017070470000000062
:100EA000006800EE100A7047B0B52DED088BB7EE64
:100EB000C02A40F2F054B7EEC13AC2F20044B7EE95
:100EC000E01AB0EE428BC4ED010A9FEDA37BC4EDA6
:100ED000100AB0EE425BA3EE078BB0EE417B9FEDB4
:100EE0009A4B9FED9B6BA3EE045BA3EE467BB7EEA4
:100EF000C50B84ED020AB7EEC75B84ED065AB7EE68
:100F0000C87B84ED077AB0EE418B84ED0C7AA3EEBA
:100F1000442BA3EE068BB7EEC83B84ED0B3AB7EE3D
:100F2000C23BB7EEC02A84ED113AB0EE420B10F08E
:100F300067FC94ED071A94ED063AB7EEC12AB7EEB6
:100F4000C00BB7EEC31A84ED030AB0EE420B10F0EB
:100F500057FC94ED0C1A94ED0B3AB7EEC12AB7EE9C
:100F6000C00BB7EEC31A84ED080AB0EE420B10F0C6
:100F700047FC94ED111A94ED103AB7EEC12AB7EE82
:100F8000C00BB7EEC31A84ED0D0AB0EE420B10F0A1
:100F900037FCB7EEC00B84ED120AD4ED010A94EDD4
:100FA000020A10F07DFA9FED728A94ED161A20EE77
:100FB000080A9FED70AA9FED6ABB012580EE0A0A20
:100FC0009FED699B31EE401AB0EE402AB7EEC11A90
:100FD00031EE0B1B81EE091BBFFEC11BB8EEC11A1F
:100FE000A1EE082A32EE400AB0EEC00AB7EEC00AFF
:100FF00080EE090BBDEEC00BD4ED060A10EE100A10
:101000006FF35E0001284FF0010008BF4FF0FF3082
:1010100094ED070A84ED152A206110F041FA20EEC4
:10102000080A94ED1C1A80EE0A0A31EE401AB0EE5E
:10103000402AB7EEC11A31EE0B1B81EE091BBFFE31
:10104000C11BB8EEC11AA1EE082A32EE400AB0EE7A
:10105000C00AB7EEC00A80EE090BBDEEC00B10EE61
:10106000100A6FF35E0001284FF0010008BF4FF037
:10107000FF30D4ED0B0A94ED0C0A606284ED1B2A5C
:1010800010F00EFA20EE080A94ED221A80EE0A0AF9
:1010900031EE401AB0EE402AB7EEC11A31EE0B1B0A
:1010A00081EE091BBFFEC11BB8EEC11AA1EE082AD2
:1010B00032EE400AB0EEC00AB7EEC00A80EE090B6D
:1010C000BDEEC00B10EE100A6FF35E0001284FF06A
:1010D000010008BF4FF0FF30D4ED100A94ED110A63
:1010E000A06384ED212A10F0DBF920EE080A94EDCC
:1010F000281A80EE0A0A31EE401AB0EE402AB7EE06
:10110000C11A31EE0B1B81EE091BBFFEC11BB8EEED
:10111000C11AA1EE082A32EE400AB0EEC00AB7EEBC
:10112000C00A80EE090BBDEEC00B10EE100A6FF383
:101130005E00012808BF4FF0FF3584ED272AE564E3
:10114000BDEC088BB0BD00BF7B14AE47E17AF03F29
:10115000A29C685721E5EE3F79E9263108ACD0BF63
:1011600000000000000059400000000000806640C0
:1011700000003443DA0F4940B0B541F2F83440F290
:101180000041C2F2004440F67860C5F60201C2F2A6
:101190000040206001F5406060604FF40042C4E907
:1011A00002204FF400602062C4E9040140F20120F3
:1011B0004FF48062C0F20340C4F8250040F206708C
:1011C0000025C0F60810C4F8290046F2006084F833
:1011D0002450C4E90621C8F67700C4F82D0040F277
:1011E0009930A4F8310004F13300ED21FFF7D4F871
:1011F0004CF2C100C0F60000C4E948052046BDE835
:10120000B0400BF02DB90000704700000000000056
:1012100040F69020C2F2004003F0AEB8000000009B
:1012200040F63800C2F2004003F0A6B8000000000B
:1012300040F6B000C2F2004003F09EB8000000008B
:1012400040F60830C2F2004003F096B800000000FB
:1012500040F62810C2F2004003F08EB800000000F3
:1012600040F24870C2F2004003F086B8000000006F
:1012700040F68030C2F2004003F07EB8000000006B
:1012800040F6A010C2F2004003F076B80000000063
:1012900040F61820C2F2004003F06EB800000000D3
:1012A00040F2C070C2F2004003F066B800000000D7
:1012B00040F20F42D0F800C0C4F20202944510DCA4
:1012C0006F22C4F20202944520DC3F22C4F20202E3
:1012D000944536DC1022C4F20202944554D02822F0
:1012E0004EE040F26F42C4F2020294451ADC40F232
:1012F0003F42C4F2020294452ADC40F21042C4F29A
:101300000202944540D040F2284239E09F22C4F2C4
:101310000202944525DC7022C4F20202944533D0C7
:1013200088222DE040F29F42C4F2020294451FDC65
:1013300040F27042C4F20202944525D040F2884245
:101340001EE04022C4F2020294451DD0582217E04C
:1013500040F24042C4F20202944515D040F2584295
:101360000EE0A022C4F2020294450DD0B82207E09C
:1013700040F2B842C4F20202944505D040F2A042C5
:10138000C4F20202944517D10CF0F8024AF6AB23DE
:10139000103ACAF6AA23A2FB033109A35F2AC1F3BC
:1013A00002115B5C40F2FF312CEA0101C36588BF8A
:1013B00004318165084670472CF0FF01F9E700BF52
:1013C000000610160006101670B540F26F44D0F8F3
:1013D00000C0C4F20204D0F858E0A44519DC9F25EF
:1013E000C4F20205AC4531DC5725C4F20205AC4518
:1013F00056DC1025C4F20205AC4500F09280282589
:10140000C4F20205AC4500F08C804025C4F2020510
:1014100084E045F22F45C5F60205AC452BDC40F2D1
:10142000B745C4F20205AC4548DC40F27045C4F251
:101430000205AC4575D040F28845C4F20205AC45C2
:101440006FD040F2A045C4F2020567E040F22745A4
:10145000C4F20205AC4540DCA025C4F20205AC454F
:101460005FD0B825C4F20205AC455AD040F2104511
:10147000C4F2020552E045F26B45C5F60205AC45E3
:101480003CDC45F23045C5F60205AC4549D045F295
:101490004445C5F60205AC4543D045F258453BE00E
:1014A0005825C4F20205AC453BD07025C4F20205B4
:1014B000AC4536D08825C4F202052FE040F2B8458D
:1014C000C4F20205AC452CD045F20845C5F602052C
:1014D000AC4526D045F21C451EE040F22845C4F23A
:1014E0000205AC451DD040F24045C4F20205AC45B2
:1014F00017D040F25845C4F202050FE045F26C45A2
:10150000C5F60205AC450CD045F29445C5F602057A
:10151000AC4506D045F28045C5F60205AC4540F025
:10152000CC80456EC66E002E866E6E601CBFD0E904
:101530001C566E60A44515DC9F24C4F20204A44529
:101540002BDC5724C4F20204A4454EDC1024C4F260
:101550000204A44576D02824C4F20204A44571D024
:1015600040246BE045F22F44C5F60204A44527DC75
:1015700040F2B744C4F20204A44542DC40F2704495
:10158000C4F20204A4455DD040F28844C4F20204CF
:10159000A44557D040F2A04450E040F22744C4F2A2
:1015A0000204A4453CDCA024C4F20204A44549D0B2
:1015B000B824C4F20204A44544D040F210443DE0F3
:1015C00045F26B44C5F60204A44553DC45F23044B1
:1015D000C5F60204A4455FD045F24444C5F60204B2
:1015E000A44559D045F2584452E05824C4F20204AC
:1015F000A44527D07024C4F20204A44522D0882434
:101600001CE040F2B844C4F20204A4451AD045F2EA
:101610000844C5F60204A4453ED045F21C4437E018
:1016200040F22844C4F20204A4450BD040F24044E6
:10163000C4F20204A44505D040F25844C4F20204A6
:10164000A4453AD18468C06D00F01F003F2505FA1B
:1016500000F0CEF80800DCF80000402C20F48020D8
:10166000CCF80000CCF8043023D1CCF80820CCF81A
:101670000C1070BD45F26C44C5F60204A4450BD0B5
:1016800045F28044C5F60204A44505D045F29444D1
:10169000C5F60204A44510D1C46D012504F01F0451
:1016A000806805FA04F4CEF804404028CCF80430F1
:1016B000DBD0CCF80810CCF80C2070BD0000000086
:1016C000B0B5022B46D0012B36D0002B4FD11129BB
:1016D00050D842F2946242F2DC63C0F60102C0F6D6
:1016E00001030D464FF4846452F8212053F8213051
:1016F00041F66051C2F2004142EA03221A4300233C
:1017000021F8014B22FA03F40833202B01F8014F92
:10171000F8D141F6605141F60052C2F20041C2F2E6
:1017200000420623044600F0F7FF02462046294601
:10173000130640F0978020E0112906D84FF6FB727F
:10174000C0F20302CA40D2071CD1FF22130640F0A8
:1017500089804DE0112906D84FF6FB72C0F20302D2
:10176000CA40D20749D1FF2213067BD17CE0FF2279
:1017700050B2B0BDFF22130674D10022BDE8B040C4
:1017800000F05AB942F2046242F24C63C0F6010220
:10179000C0F601030D464FF4846452F8212053F83B
:1017A000213041F66051C2F2004142EA03221A435D
:1017B000002321F8014B00BF22FA03F40833202B49
:1017C00001F8014FF8D141F6605141F60052C2F2E2
:1017D0000041C2F200420623044600F09DFF02468B
:1017E00020462946002A18BF6FF00102130639D19E
:1017F0000022BDE8B04000F0B3B842F2745242F2A9
:10180000BC53C0F60102C0F601030D464FF48464D8
:1018100052F8212053F8213041F66051C2F20041C4
:1018200042EA03221A43002321F8014B22FA03F46F
:101830000833202B01F8014FF8D141F6605141F6F1
:101840000052C2F20041C2F200420623044600F0F8
:1018500063FF024620462946002A18BF6FF00102A6
:10186000130601D050B2B0BD0022BDE8B04000F078
:1018700003B8000000000000F0B581B01129044653
:101880004FF0FF0000F267804FF4E0664FF400373E
:1018900001224FF4C023DFE801F01C105E5E5E5EA3
:1018A0005E5E09161C5E105E5E5E5E094FF4706639
:1018B000002703224FF460230BE04FF44076002210
:1018C0004FF4003305E04FF40066002702224FF486
:1018D000E02341F6605043EA0221C2F20040114386
:1018E00000224FF4026320F8013B00BF21FA02F30B
:1018F0000832202A00F8013FF8D141F6605541F640
:101900000052C2F20045C2F2004206232046294698
:1019100000F002FF08B1FE201DE04FF4426025F800
:10192000010B46EA0700002120FA01F208312029C4
:1019300005F8012FF8D141F6605141F60052C2F28C
:101940000041C2F200420623204600F0E5FE0028D6
:1019500018BF6FF0020040B201B0F0BD00000000FF
:10196000112906D84DF61B72C0F20202CA40D207F6
:1019700002D1FF2040B27047F0B581B042F2EC22B4
:1019800042F23433C0F60102C0F6010342F27C3762
:1019900042F2C435C0F60107C0F6010552F8212015
:1019A00053F8213057F8216055F8217041F6605105
:1019B00042EA0322C2F200411A4300234FF40265B7
:1019C00021F8015B22FA03F50833202B01F8015FAF
:1019D000F8D141F6605541F60052C2F20045C2F21C
:1019E000004206232946044600F096FE08B1FE2078
:1019F0001DE04FF4426025F8010B47EA0600002184
:101A000020FA01F20831202905F8012FF8D141F61A
:101A1000605141F60052C2F20041C2F20042062378
:101A2000204600F079FE002818BF6FF0020001B0D8
:101A3000BDE8F04040B2704711294AD82DE9F04185
:101A400042F22C5742F20C42C0F6010742F2E44344
:101A5000C0F60102C0F6010357F8215042F27C376C
:101A600042F2544642F29C44C0F60107C0F6010619
:101A7000C0F6010452F8212053F8213057F82170A4
:101A800056F8216054F8218042EA03014FF40263C2
:101A900041EA052241F66051C2F200412A4321F891
:101AA000013B002322FA03F50833202B01F8015FE4
:101AB000F8D141F6605541F60052C2F20045C2F23B
:101AC000004206232946044600F026FE20B1FE20EF
:101AD00023E0FF2040B2704746EA07004FF442611E
:101AE00025F8011B40EA0800002100BF20FA01F29E
:101AF0000831202905F8012FF8D141F6605141F64F
:101B00000052C2F20041C2F200420623204600F019
:101B100003FE002818BF6FF00200BDE8F04140B29C
:101B2000704700000000000080B591F800C04B78BD
:101B300089784FEADC1263F3420203F0040EDB08FB
:101B40000CF07F0C09018033043142EA8E02090651
:101B500041EA034141EA022341F66051C2F20041E9
:101B600020229C440A70002201F8012F2CFA02F373
:101B70000832202A01F8013FF8D141F6605141F6C0
:101B80000052C2F20041C2F20042062300F0C4FD3E
:101B9000002818BF4FF0FF3080BD0000000000009B
:101BA00001464CF2E0308A780880002002F0F00212
:101BB0008A70704700000000002808BF70470128A5
:101BC00001D101207047032801D20220704701D1C2
:101BD00003207047052801D20420704701D1052059
:101BE0007047072801D20620704701D107207047AF
:101BF000092801D2082070470D2801D2092070471A
:101C0000112801D20A207047152801D20B207047F5
:101C1000192801D20C207047212801D20D207047CD
:101C200031284FF00F0038BF0E2070470000000031
:101C3000082898BF70470938C0B2062806D842F273
:101C40002471C0F6010151F8200070470020704750
:101C500070B541F6605541F60056C2F200450446A3
:101C6000C2F2004640F63E4028800020A8700323C0
:101C700020462946324600F04FFD10B1FF2040B209
:101C800070BDB07840F62E412980032340F001005A
:101C9000A87020462946324600F03EFD002818BFB5
:101CA0006FF0010040B270BD2DE9F04141F6605483
:101CB00001F5E877C2F2004441F600583E0A0546B5
:101CC000C2F2004806F1300121700020A070032309
:101CD000284621464246677000F01EFD18B1FF20DD
:101CE00040B2BDE8F08198F8020006F120012170B1
:101CF000032340F08000A0702846214642466770CA
:101D000000F00AFD002818BF6FF0010040B2BDE8E6
:101D1000F08100000000000010B54FF4FA73146861
:101D200003EBC10E41F66051C2F200414FEA1E2C96
:101D30000CF120030B70002301F801EF24FA03F2E9
:101D40000833202B01F8012FF8D141F6605141F6FC
:101D50000052C2F20041C2F200420623BDE8104028
:101D600000F0DABC0000000010B54FF4F8731468FE
:101D700003EBC10E41F66051C2F200414FEA1E2C46
:101D80000CF120030B70002301F801EF24FA03F299
:101D90000833202B01F8012FF8D141F6605141F6AC
:101DA0000052C2F20041C2F200420623BDE81040D8
:101DB00000F0B2BC00000000B0B501F5E87541F6D6
:101DC0006051C2F200419C464FEA152E02F01F04FA
:101DD00041F600520EF120030B70C2F200424D702A
:101DE00003236CF3C7148C70BDE8B04000F094BCC2
:101DF0002DE9F04141F6605541F60058C2F2004528
:101E00000446C2F2004817460E4640F23E70288053
:101E10000020A870032320462946424600F07CFC9F
:101E200018B1FF2040B2BDE8F08198F8020006F03A
:101E3000010167F3410140F22E7200F0FC002A809C
:101E40000844A870032320462946424600F064FC5B
:101E5000002818BF6FF0010040B2BDE8F08100001B
:101E6000F0B581B041F6605541F60057C2F2004529
:101E70000446C2F200470E4641F630602880042333
:101E8000204629463A4600F047FC08B100210AE006
:101E90007A1C0023002100BF12F8017F9F40083305
:101EA000102B3944F8D108B1FF2020E026F0E000E3
:101EB00008434FF4F15180B225F8011B002100BF07
:101EC00020FA01F20831082905F8012FF8D041F66F
:101ED000605141F60052C2F20041C2F200420423B6
:101EE000204600F019FC002818BF6FF0010040B236
:101EF00001B0F0BD00000000B0B50C4641F66051E5
:101F0000C2F2004141F60055C2F2004541F63032BE
:101F10000A8000228A7003232A4600F0FDFB10B1DC
:101F2000FF2040B2B0BDA8780146402818BF41212B
:101F3000202838BF0146002040B22170B0BD00000B
:101F4000F0B581B041F6605541F60056C2F2004549
:101F50000446C2F200460F464FF44C702880002021
:101F6000A870032320462946324600F0D5FB08B16D
:101F7000FF2011E0B0784FF448712980032300F06E
:101F8000F80029463843A8702046324600F0C4FBCA
:101F9000002818BF6FF0010040B201B0F0BD000092
:101FA0000146007800F0E002002018320A70704705
:101FB00080B501F0020201F0010301F01C0E41F6B0
:101FC0006051C2F2004143EA420C2E2203230A80F0
:101FD00041F60052C2F200424CEA8E0C81F802C077
:101FE000BDE8804000F098BB2DE9F04F81B041F68C
:101FF000605641F60058C2F20046894682464FF4C8
:10200000806415254FF0020BB71CC2F2004800BFD8
:10201000200A60216BF31F10307038464A467470F6
:10202000FEF7B3F9622350463146424600F074FB96
:1020300028B9013D04F16004EAD1002000E0FF204E
:1020400040B201B0BDE8F08FA1B380B501EB410112
:102050005023128803EB810E02214FEA1E2361F305
:102060001F1341F66051C2F3440CC2F200410B70E1
:102070004FF0604303EAC25302F0010243EA0C63EB
:1020800001F801EF43EA421C002300BF2CFA03F2DF
:102090000833202B01F8012FF8D141F6605141F6A9
:1020A0000052C2F20041C2F200420623BDE8804065
:1020B00000F032BB6FF063007047000000000000CA
:1020C00001460288002002F47E420A807047000028
:1020D00009B32DE9F04381B001EB410115465022CF
:1020E00041F6605402EB8106C2F2004441F600580A
:1020F0000323C6F30327C2F2004807F13001217021
:102100000021A170214642466670814600F004FB22
:1021100020B1FF2016E09C2040B2704798F80200E2
:1021200007F12001217005F00F010843A07003237F
:10213000484621464246667000F0EEFA002818BF75
:102140006FF0010001B0BDE8F04340B270470000FD
:10215000B0B50C4641F66051C2F2004141F600555F
:10216000C2F2004542F230020A8006232A4600F0FD
:10217000D3FA002818BFB0BD00216A1C00232160DB
:1021800012F8015F8D40083120292B442360F7D1DC
:10219000B0BD0000000000002DE9F04F99B001EB48
:1021A0004106502141F6605A302501EB8601C2F20A
:1021B000004A9B46144645EA11258AF8005041F62C
:1021C00000558AF80110C2F200450021CAF8021039
:1021D0000E23CAF806102A46CAF80A10514681464C
:1021E00000F09AFAD8B9DDF888E04FEA860C0221AF
:1021F00000220DF10C0816AB002602940024039275
:102200008FB20131EF5D08F804700134042CF7D16E
:10221000039F43F826700136032EEFD120B1FF2033
:1022200040B219B0BDE8F08F1698010645D480067B
:1022300000904FF00C00CDF804C058BF08205C4659
:10224000189900EB0E0B5FEA8E722BF0030001F47D
:10225000706218BF00F1040B02F5806030235FFA52
:102260008BF215464C2A28BF4C2543EA102005F175
:1022700002068AF800008AF8011022B10AF1020071
:102280002946FEF789F841F6605141F60052C2F244
:102290000041C2F2004248463346924600F03CFA02
:1022A0005FEA0B61074605D00AF1020103A82A463E
:1022B000FEF759F81FB1FD20B2E7FE20B0E7009B02
:1022C0002046002B029BDDE90321C3E90021229A6D
:1022D00006D44FF000019960019952B1082104E041
:1022E00005999960019922B10C214144FEF73BF810
:1022F000019901F1510041F66051030A022262F393
:102300001F13C2F2004141F600520B70C2F20042AC
:102310004870012088700323484600F0FDF900282A
:1023200018BF6FF003007BE741F6605141F60052A1
:10233000C2F20041C2F2004202234FF0000CA1F8A9
:1023400000C000F0E9B9000010B5137801EB4101BD
:102350004FF0500E54780EEB81024FF0800CD903F1
:102360004FF0020E3FFA81F14CEA831C41EA04630C
:1023700041F66051C2F20041140A6EF31F140C7052
:102380005FFA8CF401F8012F1A19002322FA03F4E2
:102390000833202B01F8014FF8D141F6605141F686
:1023A0000052C2F20041C2F200420623BDE81040D2
:1023B00000F0B2B9000000000146002000220A80AF
:1023C00070470000000000002DE9F04381B001EBF0
:1023D0004101502341F6605441F6005803EB810659
:1023E000C2F200440546C2F20048C6F303279146F4
:1023F00007F1300121700020A070032328462146F8
:102400004246667000F088F908B1FF2013E098F8A2
:10241000020007F12001217009F017010843A070A4
:102420000323284621464246667000F075F90028CD
:1024300018BF6FF0010040B201B0BDE8F0830000AA
:102440002DE9F04F97B001EB4104502141F6605B5C
:1024500041F6005601EB8401C2F2004B3027C2F274
:10246000004647EA11278BF801100021CBF8021033
:10247000CBF8061092469846CBF80A100E23594620
:1024800032468BF80070814600F046F9E0B9DDF87D
:1024900084E0A100009102224FF0000C01A914ACCD
:1024A000002700BF0025CDF804C000BF93B2013261
:1024B000F35C4B550135042DF8D1019B44F82730CE
:1024C0000137032FEED120B1FF2040B217B0BDE895
:1024D000F08F9DF85000000601D4FE20F5E79AF831
:1024E000040000F00F02082A01D8209F0CE0093AEE
:1024F000209F062A07D8D2B242F22473C0F6010305
:1025000053F8222000E00022BA4201D2FD20DCE78D
:102510008DF808009AF80500DAF800208DF8090017
:10252000BAF80600DDF858A00192ADF80A005FB1D4
:10253000C81DA8F101020023013312F8016FDDB2BA
:1025400000F8016FBD42F7D3F04617F003000AF51B
:1025500080640CD007F10802C0F1040651FA82F140
:1025600001F108003146FDF717FF209F00E000262B
:10257000B819210A0A30022286B28BF801A062F350
:102580001F11032E8BF8001008D36FF0010111FA10
:1025900080F20BF1020001A9FDF7E5FE41F660555E
:1025A00041F60052C2F20045C2F2004248462946B6
:1025B000334600F0B1F808B1FC2086E7009801210D
:1025C00051300223020AB8F1000F63F31F122A7080
:1025D00018BF032141F600526870A970C2F2004290
:1025E00003234846294600F097F8002818BF6FF0EB
:1025F00004006AE7000000002DE9F04186B00646BD
:10260000002014460D464FF00008FFF78DFE002015
:10261000FFF71EFB0020FF21FFF7E6FC05A8FFF7F0
:10262000BFFC9DF8140040F018008DF81400002045
:102630000599FFF7BDFC002000210022FFF7D8FB21
:1026400004AF3846FFF7ACFA9DF810009DF8111062
:1026500040F020008DF8100001F03B008DF81100D3
:1026600000203946FFF760FA00200222002331469D
:10267000FFF726F803AE3046FFF79EFE9DF80C00EC
:10268000E7218DF80D10294600F0C1008DF80C00EF
:1026900000203246FFF758FE002004222946FFF7AB
:1026A00093FE02AD2846FFF70BFDBDF8080021465A
:1026B0002A4640F4EF7020F02100ADF80800002019
:1026C000FFF7C2FC002001222146FFF701FD01AA0D
:1026D00000200021CDE90088FFF746FB6A46002074
:1026E0000021FFF719FB0020002101232246FFF7FC
:1026F00063FB00200021FFF7D7FA00200021FFF73D
:102700001FFC002043F60301FFF7AAFB06B0BDE85B
:10271000F0810000000000002DE9F04182B008B116
:10272000FF241CE041F200480D46C5F60208402196
:1027300016460022404600241F4603F0ADFF40F637
:1027400000700A21C2F200400091294632463B4601
:1027500005F0F2FE40210122404603F09DFF60B2E9
:1027600002B0BDE8F08100007047000000000000EA
:102770000BF05EF808F08CFBFEF74EFBC8200DF066
:10278000A7FEF5E700000000B0B540F2EC15C2F27C
:102790000045687D28B929A00BF0CEFF03F084FF27
:1027A000A86040F24274C2F200442078012806D1A9
:1027B00003F07AFFA860002020700120687503F004
:1027C00073FFA9682A69401A90420CD995ED010A55
:1027D00095ED001AB8EEC00AF8EEC10A9FED1C1A7A
:1027E000FEF762FB02E017A00BF052FA03F05CFF69
:1027F000A96842F637042A69401A02F5C871C0F682
:10280000010488420BD203F04FFFA968401A42F638
:1028100032012A69C0F60101904288BF0C46204669
:102820000BF08AFF03F040FFD5E90212401A0021A5
:10283000904288BF01212975B0BD00BF64726962F2
:10284000626C65005761697444726962626C65000C
:10285000000000000000000010B540F2F264C2F277
:102860000044A07806285DD8DFE800F00408353D74
:102870001C4E5A00FEF75CF80120A070FEF734F9F8
:1028800042F63200C0F601000BF056FF40F248104D
:10289000A178C2F2004090F86C00012808BF022124
:1028A000A17010BD42F64B00C0F601000BF0F0F92C
:1028B00040F2D800B7EE081AC2F2004090ED0D0ABF
:1028C000A078B0EEC00AB4EE410AF1EE10FAB8BF3B
:1028D0000520A07010BD0CF023F8002808BF10BD23
:1028E0000320A07010BD42F63700C0F601000BF0C7
:1028F00023FF40F24270A178C2F2004040780128E4
:1029000008BF0421A17010BD42F64B00C0F60100C3
:102910000BF0BEF904A00BF00FFF0620A07010BD55
:102920000120607010BD00BF6C696674000000007B
:1029300090ED061A90ED012A31EE201A90ED073A3B
:1029400033EE022A90ED003A9FED134A80ED032A00
:1029500011EE101A32EE033A21F00041B1F1FF4FAF
:1029600082EE033A80ED053A34FE011AB7EE004AD2
:1029700080ED021A30EE410A34EE434A80ED040A3B
:10298000A3EE001A22EE040A80ED070A80ED061A73
:10299000B0EE410A704700BF0000000000000000D8
:1029A0004FF4806003F090BD102003F08DBD000057
:1029B000202003F089BD000010B52DED0A8B41F6F3
:1029C0008444B0EE408AC2F200449FED449A40F243
:1029D000042094ED101AC2F2004021EE000AC0EE6D
:1029E000090A94ED140AFFF7A3FF94ED111A40F2BF
:1029F000242021EE081A84ED120A94ED150AC2F281
:102A00000040C1EE090AFFF793FF94ED121A84ED1E
:102A1000130AB7EEC12AB7EEC01AB0EE420B0EF0A1
:102A2000EFFE94ED051A9FED2EAA21EE0A1A9FEDF6
:102A30002DBAB7EEC00B84ED170A94ED122A81EE81
:102A40000B1AB7EEC29AB7EEC11AB0EE410B0EF0F8
:102A50007FFEB0EE408B94ED051A21EE0A1A94ED3C
:102A6000132AB7EEC2CA81EE0B1AB7EEC11AB0EE46
:102A7000410B0FF011F820EE4C1B94ED050A94ED7C
:102A8000122A20EE0A0AA9EE081BB7EEC29A80EEBF
:102A90000B0AB7EEC11B84ED0C1AB7EEC00A0EF09C
:102AA000FBFFB0EE408B94ED051A21EE0A1A94ED6F
:102AB000132AB7EEC2AA81EE0B1AB7EEC11AB0EE16
:102AC000410B0EF045FE20EE0A0BA9EE080BB7EE07
:102AD000C00B84ED0D0ABDEC0A8B10BD00007A44DA
:102AE000DA0F4940000034432DE9F04784B040F24A
:102AF000087440F6984AC2F2004442F61B0640F2BF
:102B00000410C2F2004AC0F60106C0F206002060BE
:102B100042F61F0942F62A07012150463246234653
:102B2000C0F60109C0F601070425CDE90075CDF80E
:102B300008904FF0010800F007FA642002F040FE10
:102B400040F204200221C0F20600206050463246C6
:102B50002346CDF80890CDE9007500F0F5F9642022
:102B600002F02EFE012000F017F841F22050002163
:102B7000C2F2004048F20002C4F2E131CCF2D43299
:102B800080F83680C0E908120021816204B0BDE8F7
:102B9000F08700000000000070B52DED108B40F2B2
:102BA000F86241F22055C2F20042C2F20045D2F86A
:102BB0000310D5E900345E1AD2F80B2000EE106A3B
:102BC000131B04460020B6F5803FCFF6FF70B8EE29
:102BD000C01A00EE103AC5E9021285ED041AB8EEEB
:102BE000C00A85ED050A02DD9FED892A03E08642D1
:102BF00005DA9FED882A32EE011A85ED041AB3F545
:102C0000803F02DD9FED821A03E0834205DA9FEDEB
:102C1000811A31EE000A85ED050A95ED050A95ED5C
:102C2000042AB7EEC00A41F684469FED731BB7EE47
:102C3000C22AC2F2004620EE013B9FED77DA9FEDFB
:102C4000704B9FED76EAA2EE043BC5E9001222EE3E
:102C5000012B9FED6D4BA0EE012B96ED050A20EEAA
:102C60000D0A83EE043B80EE0E0AB7EEC39B82EEA4
:102C7000041BB7EEC00AB7EEC9BAB7EEC1AB0EF08F
:102C800067FDB0EE408B96ED051AB7EECACA21EE8D
:102C90000D1A81EE0E1AB7EEC11AB0EE410B0EF00E
:102CA000FBFE20EE4C0B96ED051A21EE0D1AABEE55
:102CB000080B81EE0E1AB7EEC0FBB7EEC10A0EF09C
:102CC000EBFEB0EE408B96ED051A21EE0D1A81EE6B
:102CD0000E1AB7EEC11AB0EE410B0EF039FD20EE20
:102CE0000C0BABEE080BB7EECFBAB7EEC08B95ED81
:102CF0000A0AB7EEC00A0EF02BFD95ED0A1AB7EEE0
:102D0000C8CAB0EE408BB7EEC11AB0EE410B0EF060
:102D1000C3FE20EE4C1B95ED0A0AB7EEC00AABEEDF
:102D2000081BB7EEC11B85ED061A0EF011FDB0EEC3
:102D3000408B95ED0A1AB7EEC11AB0EE410B0EF0BA
:102D4000ABFE20EE0B0B01EE104A95ED082A95ED37
:102D5000093AACEE080BB8EEC18A95ED061A31EED1
:102D6000021AB7EEC00B89EE082A85ED070A8AEE33
:102D7000084A85ED081A33EE003A86ED142AB7EEBC
:102D8000C20A85ED093AB7EEC41A86ED154A0EF06F
:102D900037FDB7EEC00B95ED061A95ED072A81EECB
:102DA000083A86ED180AB0EEC10A86ED0A3AB0EE8E
:102DB000C23A95ED0B5A82EE084A86ED0B4A95ED24
:102DC0000C4A30EE050A33EE043A85ED0B0A85ED28
:102DD0000C3A96ED1C0A96ED1D3A31EE000A32EEE1
:102DE000031A86ED1C0AD5E90801C6E9060186ED3D
:102DF0001D1ABDEC108B70BDDF27DC659EA0E6BF01
:102E0000DF27DC659EA0E63F000000002D52394020
:102E1000000000C800000048DA0F494000003443B9
:102E200080B50EF0A1F941F6F461C2F200410968E3
:102E3000884218BF80BD40F2983040F2C061C2F2B3
:102E40000040C2F2004100680A688B68801A18448A
:102E5000886080BD00000000EFF3108072B600BFF4
:102E6000FEE700000000000040F6F830C2F200402B
:102E700002F046BE0000000040F6F830C2F200400A
:102E800002F03EBE0000000040F69840C2F2004052
:102E900002F036BE0000000040F69840C2F200404A
:102EA00002F02EBE0000000040F63850C2F2004092
:102EB00002F026BE0000000040F63850C2F200408A
:102EC00002F01EBE00000000F0B5D1E900C4D1F848
:102ED00008E00D692CB14EEA0C04254345F0804C06
:102EE00003E045EA8C4444EA0E0C856ED0F8847009
:102EF000D1E907466B438D6944EA0660D1F814E0D6
:102F0000CC68054307EB830045EA0E0647F823C06B
:102F100046EA04434360CB68002B08BFF0BD42F291
:102F2000A47C083001320023C0F6010CD71857F8F2
:102F3000017CC750CF6804331CF80770BB42F5D33F
:102F4000F0BD0000000000002DE9F0478CB0054600
:102F500040F6D850C2F200409A4617460E46DDF8B9
:102F600058908542DDE9148413D042F61B0138469F
:102F7000C0F601010396FDF721FA98B342F6260147
:102F80003846C0F60101FDF719FA68BB4FF08040E2
:102F900029E042F626013846C0F60101FDF70EFA97
:102FA000B0FA80F042F618014509C0F6010140462A
:102FB000FDF704FAB0FA80F042F623014709C0F6A3
:102FC00001014846FDF7FAF9B0FA80F03A46E1B25D
:102FD00043090120029129460124CDE9006A08F045
:102FE0004BF849E000200490092C4FF000000590B8
:102FF00001DA06940BE0A4F10C004FEAB0000528BA
:1030000005D8C1B22F2222FA01F1C90738D142F600
:10301000230100200790C0F601014846FDF7CEF9D4
:1030200048B142F61F014846C0F60101FDF7C6F956
:1030300020B9002001E04FF48010089018A140460C
:10304000FDF7BCF950B142F618014046C0F6010147
:10305000FDF7B4F920B94FF4001000E0002009900A
:10306000002003A9CDE90A002846524602F0F8FBE9
:103070000224002808BF012420460CB0BDE8F087D8
:1030800001A151F82040B4E7090000000A00000047
:103090000B0000000C000000090000000D00000003
:1030A000434C41535349430080B58AB001924FF0DD
:1030B000804202920C9ACDE903234FF00042059220
:1030C00000234FF40012CDE907230A4601A9069315
:1030D000099302F0C5FB002818BF01200AB080BD8B
:1030E00070B540F2B4340026C2F20044251F00BF80
:1030F000F0B20DF0E9F800EE100A0136281D042E9A
:10310000B8EEC00A85ED010A0546F1D1002500BFE1
:10311000E8B20DF0B9F861190135162D0874F7D130
:10312000002500BFE8B20DF0D7F8611901350A2D6E
:1031300081F83C00F6D194F84100012802D17BA02F
:103140000AF0A6FD227D40F2F05594F8240040F2EA
:103150004271C2F20045C2F20041012A08BF0128B3
:1031600007D0012A07D194F82230012B03D1022283
:1031700012E0012210E0012A04D1A37F012B01D12A
:10318000032209E0012A04BF227E012A07D194F814
:103190004220012A03D1042201232B708A702A784D
:1031A000012A04D18978042908BF002877D0012A90
:1031B00005D194F82500012801D1FDF719FB94F8F9
:1031C0003F0085F8B70094F83C20B0FA80F194F8FD
:1031D0002530480985F8B800607D217E85F8B62045
:1031E000012885F8B53085F8B41002D152A00BF053
:1031F000A3FAE07D012802D151A00BF09DFAE07CFA
:10320000012802D150A00BF097FA607C012802D16E
:103210004FA00BF091FA94F82100012802D14EA0A2
:103220000BF08AFA94F82000012802D14CA00BF090
:1032300083FA607F012802D14BA00BF07DFAE07F7A
:10324000012802D14AA00BF077FA94F82300012854
:1032500002D149A00BF070FA94F94600042801DD70
:10326000002009E094F82A10227D81F00101114329
:10327000B1FA81F14909084494F8241041F2086236
:10328000C2F2004284F8460094F83D00107009B183
:10329000012018E094F8220080B1032013E094F894
:1032A0003A0001287FF483AF40F26020C2F2004070
:1032B00090F89610013180F8961078E7A07F0028EA
:1032C00018BF01204000A17C85F8B90029B994F805
:1032D0002800012801D10CF073FA207C50B994F831
:1032E0002600012806D140F260200021C2F20040F1
:1032F00080F89610A17D94F82500012908BF0128C7
:1033000005D0012908BF002806D11FA000E01CA09D
:1033100009F08AF900F0B0FA0F2000BF211801303F
:1033200025284A78CA75F9D170BD00BF536166651A
:103330004D6F646500000000666F6C640000000063
:10334000636174636800000070726564756E6B0081
:10335000646566656E640000646F776E000000004F
:1033600064726962626C65006C69667400000000DA
:103370006A756D7000000000737469636B00000073
:1033800064656661756C740061726D6F7200000037
:10339000F0B581B02DED108B40F2F05441F684472A
:1033A000C2F2004493A1C2F20047B2EE080A94F8B8
:1033B000B5609FED922A94F8B4509FED92FA94F87C
:1033C000B600002E08BF0431002D97ED051A91EDCF
:1033D000003A31EE022A03FE00CA012840F2B4305E
:1033E00002FE010A9FED861AC2F2004020EE010A99
:1033F00090ED00EA90ED01DAD0ED02CA80EE0F0AFE
:10340000B7EEC0BAB0EE4B0B0EF0A2F9B0EE408BA7
:10341000B0EE4B0B0EF040FBB0EE409BB0EE4B0B12
:103420000EF096F9B0EE40ABB0EE4B0B0EF034FB65
:1034300094F8B90004284FD8DFE800F003301E27C5
:103440001200B3EE071A002E9FED722A01FE021A37
:10345000B1EE042A002D01FE021A2CEEC11AA4E0DE
:1034600097ED051A9FED682AB4EE421AF1EE10FAB4
:1034700033DA9FED672A37E040F2181097ED052AFE
:10348000C2F2004090ED0B1A10E0B0EE40BBFDF729
:10349000C7F9B0EE401AB0EE4B0B86E041F208607F
:1034A00097ED052AC2F2004090ED121A31EE421A51
:1034B000B4EE4F1AF1EE10FA02DD9FED552A08E046
:1034C0009FED512AB4EE421AF1EE10FA11DA9FED97
:1034D0004F2A31EE021A0CE067E0B4EE4F1AF1EE1B
:1034E00010FA04DD9FED492A32EE411A01E0B1EEF7
:1034F000411A40F2BC10B0EEC14AC2F2004090ED59
:10350000095A90ED022AB4EE454AF1EE10FA14DAA7
:1035100081EE053AB0EEC36AB6EE003AB4EE436A05
:10352000F1EE10FA0BDBB7EE003AB4EE436AF1EEBF
:1035300010FA04DCB0EE463A01E0B7EE003A90ED46
:10354000076AB4EE454A23EE066A90ED0A5AF1EE98
:1035500010FA80ED076A14DDB4EE454AF1EE10FA78
:103560000FDA90ED034A90ED085AA4EE016AB1EE2D
:10357000454AB4EE446AF1EE10FA04DB86FE454A91
:1035800001E0B0EE464A21EE021A80ED074AA3EEB2
:10359000014A90ED0B1AB1EE412A84FE411AB4EEB5
:1035A000442AF1EE10FA32FE011A94F8B800B1EE96
:1035B0004E2AA0B1B7EECD3AB7EEC22A20EE430BA9
:1035C00029EE024BA2EE0A0BA3EE084BB7EEC00B9E
:1035D000B7EEC42B2CEE000A6CEE020A03E02CEED0
:1035E000020A6DEE0C0ABDEC108B01B0BDE8F04094
:1035F000FDF75ABC0000FE42000088420000B442C1
:10360000DA0F494000003443000034C30000B443E3
:103610000000B4C300000C42022814D0012818BFD7
:10362000704740F2F8620868C2F20042D1F8031015
:10363000C2F803100121106041F22050C2F2004094
:1036400080F83410704740F2F8620868C2F2004215
:10365000D1F80310C2F80B100121906041F2205004
:10366000C2F2004080F835107047000000000000F2
:1036700042F65912C0F6F04290420CD042F659522E
:10368000C0F6F042904206D042F65922C0F6F0420F
:10369000904218BF704742F2B81C0A68C2F2004C50
:1036A0004968DCF80C3059601A60CCF804000CF062
:1036B0003BB900000000000010B540F2F0440221C8
:1036C000C2F20044204607F09BFC41F6C052237929
:1036D000C2F2004204F10801206891601060137189
:1036E000BDE810400AF060BA40B20638032888BF2F
:1036F000704703A151F8200001210170704700BFFD
:103700004006002404060024180600242C06002489
:10371000A3281BD0A2280CD0A12818BF704741F6BF
:103720001C601422C2F20040012300F8013BFCF7A8
:103730001ABE41F61C6C1822C2F2004C40F2011372
:103740000CF11700ACF81530FCF70DBE41F61C600B
:103750000121C2F2004081757047000000000000A6
:1037600010B52DED0A8B42F2B81041F68444C2F236
:103770000040C2F2004490ED040A90ED051A90ED6D
:10378000072A90ED083A31EE404A33EE422A84EDA2
:10379000104A84ED112AB7EEC40AB7EEC21A0EF031
:1037A0002FF894ED051A9FED2DAA21EE0A1A9FED30
:1037B0002CBAB7EEC00B84ED160A94ED102A81EEF8
:1037C0000B1AB7EEC29AB7EEC11AB0EE410B0DF06C
:1037D000BFFFB0EE408B94ED051A21EE0A1A94ED6E
:1037E000112AB7EEC2CA81EE0B1AB7EEC11AB0EEBB
:1037F000410B0EF051F920EE4C1B94ED050A94EDAF
:10380000102A20EE0A0AA9EE081BB7EEC29A80EE33
:103810000B0AB7EEC11B84ED081AB7EEC00A0EF012
:103820003BF9B0EE408B94ED051A21EE0A1A94EDA7
:10383000112AB7EEC2AA81EE0B1AB7EEC11AB0EE8A
:10384000410B0DF085FF20EE0A0BA9EE080BB7EE39
:10385000C00B84ED090ABDEC0A8B10BDDA0F49409C
:10386000000034430000000042F2B810C2F20040F1
:10387000C16B41637047000042F2B8100121C2F2EF
:1038800000400170C16B4163704700000000000000
:103890002DE9F041044602F007FF14B3054694F801
:1038A0003500022820D140F20F472668C4F20207F3
:1038B00040F26F48BE426FF00E00C4F2020817DCFF
:1038C0006F21C4F202018E4223DC3F21C4F20201C7
:1038D0008E4239DC1021C4F202018E4258D02821D8
:1038E00051E00120BDE8F08180206065012037E2D1
:1038F00046451ADC40F23F41C4F202018E422ADC06
:1039000040F21041C4F202018E4241D040F22841FF
:1039100039E09F21C4F202018E4225DC7021C4F2FD
:1039200002018E4234D088212DE040F29F41C4F242
:1039300002018E421FDC40F27041C4F202018E424D
:1039400026D040F288411EE04021C4F202018E429E
:103950001ED0582117E040F24041C4F202018E42CD
:1039600016D040F258410EE0A021C4F202018E426E
:103970000ED0B82107E040F2B841C4F202018E42F5
:1039800006D040F2A041C4F202018E42314607D176
:103990003146306820F01E0041F8140B6FF08000B3
:1039A0000A68464500EA0200086019DC9F20C4F25C
:1039B0000200864231DC5720C4F20200864256DC07
:1039C0001020C4F20200864200F091802820C4F248
:1039D0000200864200F08B804020C4F2020084E0A6
:1039E00045F22F40C5F6020086422BDC40F2B7407C
:1039F000C4F20200864248DC40F27040C4F2020089
:103A0000864274D040F28840C4F2020086426ED0F2
:103A100040F2A040C4F2020067E040F22740C4F246
:103A20000200864240DCA020C4F2020086425ED042
:103A3000B820C4F20200864259D040F21040C4F2CD
:103A4000020052E045F26B40C5F6020086423CDCC3
:103A500045F23040C5F60200864248D045F2444067
:103A6000C5F60200864242D045F258403BE058205D
:103A7000C4F2020086423AD07020C4F202008642AC
:103A800035D08820C4F202002FE040F2B840C4F2E2
:103A9000020086422BD045F20840C5F6020086425D
:103AA00025D045F21C401EE040F22840C4F202003E
:103AB00086421CD040F24040C4F20200864216D03A
:103AC00040F25840C4F202000FE045F26C40C5F6E7
:103AD000020086420BD045F29440C5F602008642B1
:103AE00005D045F28040C5F60200864204D1206E22
:103AF000016821F480710160306820F001003060BD
:103B00003068C0070BD002F0CFFD401B0628F7D36A
:103B100020206065032084F83500012020E1206822
:103B20000821B8424FF03F0210DC6F23C4F20203B9
:103B300098421CDC3F23C4F20203984232DC10237B
:103B4000C4F20203984251D028234AE040451ADCCF
:103B500040F23F43C4F2020398422ADC40F2104391
:103B6000C4F20203984241D040F2284339E09F2337
:103B7000C4F20203984225DC7023C4F20203984287
:103B800034D088232DE040F29F43C4F202039842D0
:103B90001FDC40F27043C4F20203984226D040F288
:103BA00088431EE04023C4F2020398421ED05823EB
:103BB00017E040F24043C4F20203984216D040F2AC
:103BC00058430EE0A023C4F2020398420ED0B8235B
:103BD00007E040F2A043C4F20203984206D040F24C
:103BE000B843C4F20203984240F0BF80D4E91637CC
:103BF00007F01F07404502FA07F25A5019DC9F21CF
:103C0000C4F20201884231DC5721C4F20201884229
:103C100056DC1021C4F20201884200F09180282174
:103C2000C4F20201884200F08B804021C4F20201FC
:103C300084E045F22F41C5F6020188422BDC40F2B8
:103C4000B741C4F20201884248DC40F27041C4F23C
:103C50000201884274D040F28841C4F202018842D5
:103C60006ED040F2A041C4F2020167E040F2274169
:103C7000C4F20201884240DCA021C4F20201884261
:103C80005ED0B821C4F20201884259D040F21041FE
:103C9000C4F2020152E045F26B41C5F602018842CE
:103CA0003CDC45F23041C5F60201884248D045F27D
:103CB0004441C5F60201884242D045F258413BE0FA
:103CC0005821C4F2020188423AD07021C4F20201A4
:103CD000884235D08821C4F202012FE040F2B84179
:103CE000C4F2020188422BD045F20841C5F6020118
:103CF000884225D045F21C411EE040F22841C4F222
:103D0000020188421CD040F24041C4F202018842C4
:103D100016D040F25841C4F202010FE045F26C4166
:103D2000C5F6020188420BD045F29441C5F6020166
:103D3000884205D045F28041C5F6020188420BD188
:103D4000616EA26EE06E4A6030B1016821F480714C
:103D50000160D4E91C014160012084F83500002095
:103D6000002184F83410BDE8F081042101223DE7F0
:103D7000F0B190F83510022918D180B540F20F4209
:103D80000168C4F20202914214DC6F23C4F2020300
:103D9000994224DC3F23C4F2020399423ADC102307
:103DA000C4F20203994258D0282352E08021416591
:103DB0000120704740F26F43C4F2020399421ADCBB
:103DC00040F23F43C4F2020399422ADC40F210431E
:103DD000C4F20203994240D040F2284339E09F23C5
:103DE000C4F20203994225DC7023C4F20203994213
:103DF00033D088232DE040F29F43C4F2020399425E
:103E00001FDC40F27043C4F20203994225D040F215
:103E100088431EE04023C4F2020399421DD0582378
:103E200017E040F24043C4F20203994215D040F239
:103E300058430EE0A023C4F2020399420DD0B823E8
:103E400007E040F2B843C4F20203994205D040F2C1
:103E5000A043C4F2020399426ED191424FF0040292
:103E600080F8352010DC6F20C4F20200814220DC93
:103E70003F20C4F20200814236DC1020C4F202006E
:103E8000814253D028204EE040F26F40C4F202003D
:103E900081421ADC40F23F40C4F2020081422ADC37
:103EA00040F21040C4F2020081423FD040F228406C
:103EB00039E09F20C4F20200814225DC7020C4F268
:103EC0000200814232D088202DE040F29F40C4F2AF
:103ED000020081421FDC40F27040C4F202008142C5
:103EE00024D040F288401EE04020C4F2020081420B
:103EF0001CD0582017E040F24040C4F2020081423A
:103F000014D040F258400EE0A020C4F202008142DA
:103F10000CD0B82007E040F2B840C4F20200814261
:103F200004D040F2A040C4F202008142086820F0B0
:103F300001000860002080BD0A6822F00E020A60BD
:103F400045F25742C5F6020291420A6822F0010288
:103F50000A600EDC45F22F42C5F60202914217DCE0
:103F600045F20842C5F60202914226D045F21C42B3
:103F70001FE045F27F42C5F60202914211DC45F294
:103F80005842C5F60202914217D045F26C4210E049
:103F900045F23042C5F6020291420ED045F244424B
:103FA00007E045F29442C5F60202914205D045F27F
:103FB0008042C5F6020291421AD1D0E9181CD0E91C
:103FC00016E30A6822F480720A6003F01F010122DE
:103FD00002FA01F1CEF80410816ECCF80410C16E23
:103FE00031B10A6822F480720A60D0E91C124A607A
:103FF000012180F83510016D0022002980F834205D
:1040000098D08847002080BDF0B581B018B3044631
:10401000006840F26F420125C4F20202016890423A
:1040200021F00101016018DC9F21C4F202018842E5
:1040300037DC5721C4F2020188425ADC1021C4F255
:104040000201884200F083802821C4F202018842E4
:104050007DD0402176E0012581E145F22F414FF0EE
:10406000000CC5F602014FF0100E0C2388424FF0F1
:1040700008064FF0040727DC40F2B741C4F2020102
:10408000884242DC40F27041C4F2020188425ED0B4
:1040900040F28841C4F20201884258D040F2A04167
:1040A00050E040F22741C4F2020188423CDCA021EA
:1040B000C4F2020188424AD0B821C4F20201884207
:1040C00045D040F210413DE045F26B41C5F602019A
:1040D000884249DC45F23041C5F60201884257D09A
:1040E00045F24441C5F60201884251D045F258419B
:1040F00048E05821C4F20201884228D07021C4F25D
:104100000201884223D088211CE040F2B841C4F269
:10411000020188421BD045F20841C5F602018842DF
:1041200036D045F21C412DE040F22841C4F2020194
:1041300088420CD040F24041C4F20201884206D0CD
:1041400040F25841C4F20201884240F00881014621
:1041500000223F254FF0210C41F8042B4FF0140EA4
:1041600010230C26082714E045F26C41C5F6020125
:1041700088420DD045F28041C5F60201884207D041
:1041800045F29441C5F602018842014601D0E6E0BD
:10419000014600220A60C251825145F6FC06C25017
:1041A000C5F6020640F80EC02046FDF781F845F23C
:1041B00057422168E36DC5F6020203F01F039142E6
:1041C00005FA03F3C3510EDC45F22F40C5F6020099
:1041D000814217DC45F20840C5F60200814226D034
:1041E00045F21C401FE045F27F40C5F602008142C7
:1041F00011DC45F25840C5F60200814217D045F265
:104200006C4010E045F23040C5F6020081420ED00D
:1042100045F2444007E045F29440C5F60200814271
:1042200005D045F28040C5F60200814244D101F03C
:10423000FC004CF6CD430838CCF6CC43A0FB03037E
:10424000A6F17C071809A6F1FC0303EB800300F03C
:104250001F000125C4E9183705FA00F0A06623B154
:1042600000201860D4E9190343606368581E0728CA
:1042700066D85FD8914206F144020EDC45F22F4722
:10428000C5F60207B94238DC45F20847C5F6020711
:10429000B94247D045F21C4740E045F27F47C5F69A
:1042A0000207B94232DC45F25847C5F60207B94267
:1042B00038D045F26C4731E001F0F8004AF6AB2304
:1042C0001038CAF6AA23A0FB030340F20F40C4F241
:1042D00002004FF0080C1F09814200F1AA05384680
:1042E00088BF0CEB131040F60003A942C4F202038E
:1042F00028BF384603F18007A7E745F23047C5F6E7
:104300000207B9420ED045F2444707E045F2804724
:10431000C5F60207B94205D045F29447C5F6020733
:10432000B9421FD106EB8301E1660121226701FA40
:1043300000F0606704F16C02002307CA03604A6062
:1043400000256567C4E91B55C4E90F55C4E911553B
:10435000C4E91355656584F8355084F8345028460F
:1043600001B0F0BD40F60001C4F2020101F1FC060B
:1043700001F5A072D6E700002DE9F04381B00021DD
:10438000009140F2840148F2B513C2F20041C1F637
:104390004E33856D40F26F490A680168C4F2020924
:1043A0002E68A2FB032849452B6815DC9F22C4F226
:1043B000020291422BDC5722C4F2020291424FDCEE
:1043C0001022C4F20202914278D02822C4F20202E2
:1043D000914273D040226CE045F22F42C5F60202B2
:1043E000914227DC40F2B742C4F20202914243DC20
:1043F00040F27042C4F2020291425FD040F2884221
:10440000C4F20202914259D040F2A04251E040F27F
:104410002742C4F2020291423DDCA022C4F2020211
:1044200091424BD0B822C4F20202914246D040F2EF
:1044300010423EE045F26B42C5F60202914275DC45
:1044400045F23042C5F60202914200F0828045F208
:104450004442C5F6020291427BD045F2584273E0D5
:104460005822C4F20202914228D07022C4F2020201
:10447000914223D088221CE040F2B842C4F20202EA
:1044800091421BD045F20842C5F60202914260D02B
:1044900045F21C4258E040F22842C4F20202914226
:1044A0000CD040F24042C4F20202914206D040F2E7
:1044B0005842C4F20202914240F02D84C26D08239A
:1044C00002F01F029340334200F0168140F20F4485
:1044D000C4F20204A1424FF0040413DC6F27C4F2BB
:1044E0000207B94200F391803F27C4F20207B942A4
:1044F00000F3D2801027C4F20207B94200F0F08026
:104500002827E8E0494500F38C8040F23F47C4F299
:104510000207B94200F3C78040F21047C4F2020715
:10452000B94200F0DD8040F22847D4E045F26C4209
:10453000C5F6020291420CD045F28042C5F6020255
:10454000914206D045F29442C5F60202914240F0F3
:10455000E2830E68C26D02F01F02042707FA02F41C
:104560001C4218BF16F004072CD1022707FA02F4E8
:104570001C4218BF16F0020762D1D3401B0740F15E
:10458000CA8316F0080300F0C68340F20F43C4F25A
:10459000020399426FF01C0300F318836F27C4F2E3
:1045A0000207B94200F354833F27C4F20207B9421D
:1045B00000F3B4831027C4F20207B94200F0D3839A
:1045C0002827CAE332046C605ED4B20600F1A183EE
:1045D00040F20F42C4F2020291426FF0080200F36F
:1045E000E3826F23C4F20203994200F302833F2364
:1045F000C4F20203994200F347831023C4F202037A
:10460000994200F0838328237AE39F27C4F20207AC
:10461000B94251DC7027C4F20207B94260D0882742
:1046200059E040F29F47C4F20207B9424BDC40F226
:104630007047C4F20207B94252D040F288474AE0BC
:1046400032046C6000F19C82B20600F1CF8340F22C
:104650000F42C4F2020291426FF0140200F3D682BC
:104660006F23C4F20203994200F315833F23C4F27F
:104670000203994200F38C831023C4F2020399428F
:1046800000F0AB832823A2E3F10300F14283816CA5
:10469000002940F079833EE34027C4F20207B94283
:1046A0001ED0582717E040F24047C4F20207B94233
:1046B00016D040F258470EE0A027C4F20207B942D4
:1046C0000ED0B82707E040F2A047C4F20207B94273
:1046D00006D040F2B847C4F20207B94218BF082416
:1046E0000F68274208D00F6827F004070F60AB60FF
:1046F000436D43F0010343650123934033426FD080
:1047000040F20F47C4F20207B94210DC6F27C4F22F
:104710000207B9421CDC3F27C4F20207B94232DC6F
:104720001027C4F20207B94251D028274AE0494570
:104730001ADC40F23F47C4F20207B9422ADC40F2D9
:104740001047C4F20207B94241D040F2284739E08D
:104750009F27C4F20207B94225DC7027C4F2020782
:10476000B94234D088272DE040F29F47C4F20207B7
:10477000B9421FDC40F27047C4F20207B94226D0AA
:1047800040F288471EE04027C4F20207B9421ED01B
:10479000582717E040F24047C4F20207B94216D04A
:1047A00040F258470EE0A027C4F20207B9420ED0EB
:1047B000B82707E040F2B847C4F20207B94206D072
:1047C00040F2A047C4F20207B94240F0E1814F69CC
:1047D00007F0800424B1AB60436D43F002034365EE
:1047E0000423934033426FD040F20F47C4F20207D4
:1047F000B94210DC6F27C4F20207B9421CDC3F2724
:10480000C4F20207B94232DC1027C4F20207B942EF
:1048100051D028274AE049451ADC40F23F47C4F20C
:104820000207B9422ADC40F21047C4F20207B9423B
:1048300041D040F2284739E09F27C4F20207B9422D
:1048400025DC7027C4F20207B94234D088272DE056
:1048500040F29F47C4F20207B9421FDC40F27047A2
:10486000C4F20207B94226D040F288471EE0402732
:10487000C4F20207B9421ED0582717E040F2404761
:10488000C4F20207B94216D040F258470EE0A02702
:10489000C4F20207B9420ED0B82707E040F2B84789
:1048A000C4F20207B94206D040F2A047C4F20207A0
:1048B000B94240F073810F6807F0020424B1AB6085
:1048C000436D43F004034365102303FA02F23242BE
:1048D0007ED040F20F43C4F2020399424FF0080326
:1048E00010DC6F27C4F20207B9421CDC3F27C4F278
:1048F0000207B94232DC1027C4F20207B94251D094
:1049000028274AE049451ADC40F23F47C4F2020733
:10491000B9422ADC40F21047C4F20207B94241D042
:1049200040F2284739E09F27C4F20207B94225DC4C
:104930007027C4F20207B94234D088272DE040F234
:104940009F47C4F20207B9421FDC40F27047C4F22D
:104950000207B94226D040F288471EE04027C4F241
:104960000207B9421ED0582717E040F24047C4F270
:104970000207B94216D040F258470EE0A027C4F211
:104980000207B9420ED0B82707E040F2A047C4F2B0
:104990000207B94206D040F2B847C4F20207B94252
:1049A00018BF04230F681F4212D0AA600A6852037E
:1049B0000A6806D4D20506D40A6822F008020A6002
:1049C00001E0110352D4016C11B10446884720461E
:1049D000C16D01F01F02202101FA02F3334200F001
:1049E000A68040F20F470168C4F202071026B942C0
:1049F00010DC6F27C4F20207B9421CDC3F27C4F267
:104A00000207B94236DC1027C4F20207B94255D07A
:104A100028274EE049451ADC40F23F47C4F202071E
:104A2000B9422EDC40F21047C4F20207B94245D029
:104A300040F228473DE09F27C4F20207B94229DC33
:104A40007027C4F20207B94238D0882731E040F21B
:104A50009F47C4F20207B94223DC40F27047C4F218
:104A60000207B9422AD040F2884722E0816C00292F
:104A7000ABD1ADE74027C4F20207B9421ED0582798
:104A800017E040F24047C4F20207B94216D040F2A4
:104A900058470EE0A027C4F20207B9420ED0B8274B
:104AA00007E040F2A047C4F20207B94206D040F244
:104AB000B847C4F20207B94218BF02260F6837424E
:104AC00035D0AB6090F83530042B0B6816D123F04D
:104AD00016030B604B6923F080034B61036C0BB929
:104AE000836C1BB10B6823F008030B603F219140DE
:104AF000A960012180F83510016D3FE15A030A6871
:104B00000CD4D2050ED40A6822F010020A600121EA
:104B100080F83510002180F8341003E0110301D42F
:104B2000416C00E0C16B11B1044688472046416DDD
:104B3000002900F0F080416DC9071CD0042180F8E5
:104B4000351001684FEA98220B6823F001030B60CF
:104B5000009B01330093934202D80B68DB07F7D127
:104B60000968C9074FF0030108BF012180F835101B
:104B7000002180F83410C16C002940F00581CAE0A2
:104B8000F10300F13381416C002940F0FD80C2E067
:104B900000240F68002C7FF41EAE21E600240F686D
:104BA000002C7FF48CAE8FE6494542DC40F23F4357
:104BB000C4F2020399427CDC40F21043C4F20203C7
:104BC000994200F0A38040F2284399E049454CDC2B
:104BD00040F23F47C4F20207B94200F3A68040F218
:104BE0001047C4F20207B94200F0BD8040F22847E6
:104BF000B3E09F23C4F20203994263DC7023C4F242
:104C00000203994200F08280882379E0494560DC04
:104C100040F23F43C4F20203994200F3C08040F2E5
:104C20001043C4F20203994200F0D78040F22843B7
:104C3000CDE040F29F43C4F20203994258DC40F2B7
:104C40007043C4F20203994260D040F2884357E0B7
:104C50009F27C4F20207B94270DC7027C4F2020732
:104C6000B94200F08080882777E040F29F47C4F285
:104C70000207B94269DC40F27047C4F20207B94248
:104C800071D040F2884768E04023C4F202039942A1
:104C90003CD0582334E09F23C4F20203994200F32E
:104CA00087807023C4F20203994200F09680882323
:104CB0008DE040F24043C4F20203994226D040F214
:104CC00058431DE0A023C4F2020399421ED0B8232A
:104CD00016E040F29F43C4F2020399426FDC40F2B7
:104CE0007043C4F20203994277D040F288436EE0E9
:104CF00040F2A043C4F20203994207D040F2B84305
:104D0000C4F20203994218BF6FF004020B681A4004
:104D10000A60016CC1BB01B0BDE8F0834027C4F25A
:104D20000207B9421FD0582717E040F24047C4F2AB
:104D30000207B94217D040F258470EE0A027C4F24C
:104D40000207B9420FD0B82707E040F2A047C4F2EB
:104D50000207B94207D040F2B847C4F20207B9428D
:104D600018BF6FF00E030F683B400B60012101FA82
:104D700002F26A60416580F83510C16C00294FF07D
:104D8000000280F83420C6D001B0BDE8F0430847E7
:104D90004023C4F2020399421FD0582317E040F287
:104DA0004043C4F20203994217D040F258430EE048
:104DB000A023C4F2020399420FD0B82307E040F2C7
:104DC000A043C4F20203994207D040F2B843C4F2B0
:104DD0000203994218BF6FF00A020B681A400A607A
:104DE000012180F83510002180F83410C16B0029B2
:104DF000CAD190E7000000002DE9F041044601F01F
:104E000053FCECB140F26F4805462068C4F202083A
:104E1000404518DC9F21C4F2020188422EDC572154
:104E2000C4F20201884254DC1021C4F2020188421B
:104E30007ED02821C4F20201884279D0402172E05C
:104E40000120BDE8F08145F22F41C5F602018842FC
:104E500027DC40F2B741C4F20201884245DC40F24F
:104E60007041C4F20201884262D040F28841C4F22B
:104E7000020188425CD040F2A04154E040F2274158
:104E8000C4F20201884240DCA021C4F2020188423F
:104E90004ED0B821C4F20201884249D040F21041FC
:104EA00041E045F26B41C5F60201884200F3B8804B
:104EB00045F23041C5F60201884200F0C38045F258
:104EC0004441C5F60201884200F0BC8045F25841D9
:104ED000B4E05821C4F20201884229D07021C4F202
:104EE0000201884224D088211DE040F2B841C4F27A
:104EF000020188421CD045F20841C5F602018842F1
:104F000000F0A08045F21C4198E040F22841C4F234
:104F1000020188420CD040F24041C4F202018842B2
:104F200006D040F25841C4F20201884240F0CE80DF
:104F3000022184F83510002184F83410016821F032
:104F40000101016020680168C9070CD001F0ACFBC9
:104F5000401B0628F6D320206065032084F8350026
:104F60000120BDE8F08148F23F0204F10807016822
:104F7000CFF61062114066698CCF1143D4F818C087
:104F80001943E3693943276A0E43616A33430429AD
:104F900043EA070343EA0C0303D1D4E90B76374312
:104FA0003B436568A5F12906292E00F2A18001275F
:104FB000DFE806F01515151515159E9E9E9E9E9E02
:104FC0009E9E9E9E9E9E9E9E9E9E151515159E9E25
:104FD0009E9E15159E9E9E9E9E9E15151515002F34
:104FE00018BF43F4801304290360426922F00702CA
:104FF00041EA020140F09080D4E90A53002B41EAD3
:10500000050100F08980BCF5005F61D0BCF1000FA4
:105010006AD1022D74D0012D60D0002D70D072E0C5
:1050200045F26C41C5F6020188420BD045F2804141
:10503000C5F60201884205D045F29441C5F6020149
:10504000884243D104F1080E022184F83510002172
:1050500084F834100168A3699EE80450A2F1800529
:10506000E769B5FA85F566696D09402A4FEA853525
:1050700043EA07026FF3101142EA060208BF102547
:1050800041EADC0142EA0E022943236A41EAD201E5
:105090004AF6F832CAF2FD724CF6CD470244CCF61D
:1050A000CC4741EA1311A2FB072301606FF0030014
:1050B00000EA9300E0652046FCF7FAF8E16D012272
:1050C00001F01F0102FA01F1416030E0402043E7A6
:1050D000032D18D8DFE805F00A140A02A3F1C07204
:1050E000B2FA82F252090FE0032D08D201220BE03E
:1050F00025F00302743AB2FA82F257096FE702D13F
:10510000C3F3006200E0002232B14020606501205C
:1051100084F83500BDE8F08141612046FCF7C8F80D
:10512000E16D3F2201F01F0102FA01F18160206868
:10513000404519DC9F21C4F20201884231DC57212D
:10514000C4F20201884256DC1021C4F202018842F6
:1051500000F092802821C4F20201884200F08C8085
:105160004021C4F2020184E045F22F41C5F602015C
:1051700088422BDC40F2B741C4F20201884248DC8D
:1051800040F27041C4F20201884275D040F2884179
:10519000C4F2020188426FD040F2A041C4F2020181
:1051A00067E040F22741C4F20201884240DCA021BE
:1051B000C4F2020188425FD0B821C4F202018842E1
:1051C0005AD040F21041C4F2020152E045F26B4164
:1051D000C5F6020188423CDC45F23041C5F60201C9
:1051E000884249D045F24441C5F60201884243D085
:1051F00045F258413BE05821C4F2020188423BD0BD
:105200007021C4F20201884236D08821C4F2020122
:105210002FE040F2B841C4F2020188422CD045F29E
:105220000841C5F60201884226D045F21C411EE025
:1052300040F22841C4F2020188421DD040F24041B0
:10524000C4F20201884217D040F25841C4F2020170
:105250000FE045F26C41C5F6020188420CD045F2E0
:105260009441C5F60201884206D045F28041C5F658
:105270000201884240F0D08045F2574C45F6FC0EC2
:10528000C5F6020CC5F6020E60450EDC45F22F4352
:10529000C5F60203984217DC45F20843C5F602033F
:1052A000984226D045F21C431FE045F27F43C5F6E5
:1052B0000203984211DC45F25843C5F602039842B6
:1052C00017D045F26C4310E045F23043C5F60203B7
:1052D00098420ED045F2444307E045F29443C5F6A8
:1052E0000203984205D045F28043C5F60203984276
:1052F00050D100F0FC034CF6CD47083BCCF6CC4730
:10530000A3FB0737AEF1FC05AEF17C063B0905EBCC
:1053100083022266A26803F01F030127802A6666C3
:1053200007FA03F2A26601D1002262606368A56EEB
:10533000D4E91826DFB2591E07291760756015D801
:105340007E1E072E62D860450EF1440213DC45F242
:105350002F41C5F6020188423CDC45F20841C5F602
:10536000020188424BD045F21C4144E000206067B6
:10537000C4E91B0050E045F27F41C5F602018842B6
:1053800031DC45F25841C5F60201884237D045F27A
:105390006C4130E000F0F8034AF6AB27103BCAF648
:1053A000AA27A3FB073740F20F43C4F202030825E4
:1053B0003E09984203F1AA02334688BF05EB171352
:1053C00040F600059042C4F2020528BF334605F1BD
:1053D00080069CE745F23041C5F6020188420ED0B6
:1053E00045F2444107E045F28041C5F6020188429A
:1053F00005D045F29441C5F60201884213D10EEB67
:105400008300E06601202267B040606704F16C020F
:10541000002307CA03604A6000206065012184F808
:105420003510BDE8F08140F60000C4F2020000F142
:10543000FC0E00F5A072E2E730B110B590F83440F0
:10544000012C03D1022010BD01207047012480F8F7
:10545000344090F83540012C2BD1022480F835409F
:1054600000244465D0F800C0DCF8004024F00104BA
:10547000CCF800400446FBF7A7FF40F20F4C206831
:10548000C4F2020C40F26F416045C4F2020118DC24
:105490006F23C4F20203984224DC3F23C4F20203C8
:1054A00098423ADC1023C4F20203984259D02823D0
:1054B00052E04FF400614165002180F83410012072
:1054C00010BD88421ADC40F23F43C4F20203984206
:1054D0002ADC40F21043C4F20203984241D040F269
:1054E000284339E09F23C4F20203984225DC70234D
:1054F000C4F20203984234D088232DE040F29F4347
:10550000C4F2020398421FDC40F27043C4F202036B
:10551000984226D040F288431EE04023C4F20203A2
:1055200098421ED0582317E040F24043C4F20203D1
:10553000984216D040F258430EE0A023C4F2020372
:1055400098420ED0B82307E040F2B843C4F20203F9
:10555000984206D040F2A043C4F20203984240F0C1
:10556000238103680B2262F344030360226C1AB1A7
:10557000082302681A430260884219DC9F22C4F2A1
:105580000202904231DC5722C4F20202904256DC01
:105590001022C4F20202904200F091802822C4F24C
:1055A0000202904200F08B804022C4F2020284E0AA
:1055B00045F22F42C5F6020290422BDC40F2B74280
:1055C000C4F20202904248DC40F27042C4F202028D
:1055D000904274D040F28842C4F2020290426ED0EF
:1055E00040F2A042C4F2020267E040F22742C4F255
:1055F0000202904240DCA022C4F2020290425ED03D
:10560000B822C4F20202904259D040F21042C4F2D1
:10561000020252E045F26B42C5F6020290423CDCC7
:1056200045F23042C5F60202904248D045F244426B
:10563000C5F60202904242D045F258423BE0582261
:10564000C4F2020290423AD07022C4F202029042A6
:1056500035D08822C4F202022FE040F2B842C4F2F0
:10566000020290422BD045F20842C5F60202904257
:1056700025D045F21C421EE040F22842C4F202024C
:1056800090421CD040F24042C4F20202904216D036
:1056900040F25842C4F202020FE045F26C42C5F6F5
:1056A000020290420BD045F29442C5F602029042AB
:1056B00005D045F28042C5F6020290426ED1236EBB
:1056C0001A68D20303D51A6842F480721A60E36E36
:1056D0001BB11A6842F480721A60604510DC6F21B9
:1056E000C4F2020188421CDC3F21C4F2020188425C
:1056F00032DC1021C4F2020188424FD028214AE056
:1057000088421ADC40F23F41C4F2020188422ADC9E
:1057100040F21041C4F2020188423FD040F22841D9
:1057200039E09F21C4F20201884225DC7021C4F2D5
:105730000201884232D088212DE040F29F41C4F21C
:10574000020188421FDC40F27041C4F2020188422B
:1057500024D040F288411EE04021C4F20201884278
:105760001CD0582117E040F24041C4F202018842A7
:1057700014D040F258410EE0A021C4F20201884248
:105780000CD0B82107E040F2B841C4F202018842CF
:1057900004D040F2A041C4F202018842016841F005
:1057A00001010160002010BD0268052363F343027C
:1057B0000260226C002A3FF4DFAE0423D9E6000029
:1057C000B0B5044600F070FF40F278310546C2F2F1
:1057D0000041621C097818BF0C4400BF00F064FF50
:1057E000401BA042FAD3B0BD90F89830013B012B8A
:1057F0000BD80068836D0B420CD0836D0B408B423D
:105800000CD1C36D43F0020309E000F19C010120BB
:10581000022221E0C36D43F0010300E00323C365CE
:105820008B0504D5D0F8E0301343C0F8E0304B05C9
:1058300004D5D0F8E4301A43C0F8E4204FF6FF72E4
:10584000436DC3F6CF720A401A4342658A0F4AF687
:1058500014010020C4F200010B681A430A6070476B
:1058600090F89830022B1BD1B0B50368D3F8C05024
:1058700015F07C5F1CD0D3F8C450AD021DD4D3F812
:10588000C4300546C3F304442346FDF71DFB2868D6
:105890000121A140C0F8D0100020C5F89410B0BD7F
:1058A000D0F89C1041F00801C0F89C10012070470E
:1058B000D0F89C1041F0200103E0D0F89C1041F496
:1058C0000071C0F89C100120B0BD00000000000075
:1058D000704700000000000090F89820013A012A6B
:1058E0000BD880B50A68002ACA680ED00B69072A4F
:1058F00043EA427E16D18B6919E0D0F89C1041F042
:105900000201C0F89C1001207047072A18D10A69CB
:10591000D1E906C3120442EA032242EA0C0242F031
:10592000605217E0D1F808C04B6943EA8C73006FEE
:10593000496800EBC10240F831E05360002080BDAF
:105940008B68D1E904CE9B0743EAC26242EA0C426B
:1059500042EA0E024968C06E40F82120002080BD56
:1059600070470000000000007047000000000000C9
:1059700070B590F89850022D11D1402914D10468C7
:10598000D4F8A05015F4FE0F2BD0D4F8A4506D0617
:105990002CD0D4F8A450ED0130D4002531E0D0F85B
:1059A0009C1041F0080125E041290FD10468D4F88A
:1059B000B05015F4FE0F14D0D4F8B4506D0615D0C5
:1059C000D4F8B450ED0126D4002527E0056D8D42B2
:1059D00007D900F17C04D0F854E04FF0000C0D46DC
:1059E00026E0D0F89C1041F0200103E0D0F89C1094
:1059F00041F48071C0F89C10012070BDD4F8A05013
:105A0000ED0FD4F8A440C4F3052404EB050E00F117
:105A10007404456C0BE0D4F8B050ED0FD4F8B440EA
:105A2000C4F3052404EB050E00F17804C56CF446BC
:105A300005FB0EFE256855F82E4014F08044546096
:105A400055F82E4024F0604608BFC4F38A4616601D
:105A500055F82E4004F00054946005EB8E0455F880
:105A60002E6006F000461661A688D661E68816F01C
:105A70000F06D660666806F480165661666806F4FE
:105A800000169661E67906F07F06166266684FEAB0
:105A9000D67656620ED042F2A47E04F108050024A8
:105AA000C0F6010E2E5D1E550134D6681EF8066044
:105AB000B442F7D3402904D10068C0F8A8C0002040
:105AC00070BD412904D10068C0F8B8C0002070BD85
:105AD0001F2907D80068012202FA01F1C0F89810C6
