:020000040800F2
:1000000040250024E102000889490108092B010864
:100010001145010861160008199901080000000047
:10002000000000000000000000000000C16C01089A
:100030002159000800000000115B0108F17301085C
:10004000FB020008FB020008FB020008FB0200089C
:10005000FB020008FB020008FB020008FB0200088C
:10006000FB020008FB020008095E0008F9200008F6
:100070000921000819210008292100083921000858
:100080004921000859210008FB020008716400089A
:100090009164000881640008A1640008195E0008EA
:1000A000FB020008FB020008FB020008FB0200083C
:1000B000517601086176010871760108FB0200089B
:1000C000FB020008FB020008FB020008FB0200081C
:1000D000FB020008E9980108F9980108099901084C
:1000E000F95D0008FB02000800000000FB020008A8
:1000F000FB020008FB020008FB020008692100085F
:10010000FB020008FB020008FB020008FB020008DB
:1001100019860108FB020008FB020008FB02000828
:100120007921000889210008FB020008FB02000871
:10013000FB020008FB020008FB020008FB020008AB
:1001400000000000000000000000000000000000AF
:10015000FB020008FB020008FB020008FB0200088B
:10016000FB020008FB020008FB020008FB0200087B
:10017000FB020008FB020008FB0200080000000070
:10018000FB020008FB020008FB020008FB0200085B
:10019000B16A0108FB020008FB020008FB0200082C
:1001A000FB020008FB020008FB0200080000000040
:1001B000FB020008FB020008FB020008FB0200082B
:1001C000FB020008FB020008000000000000000025
:1001D0000000000000000000FB020008000000001A
:1001E000000000000000000000000000000000000F
:1001F0000000000000000000FB020008FB020008F5
:10020000FB020008FB02000800000000FB020008DF
:10021000FB020008FB020008FB020008FB020008CA
:10022000FB02000800000000FB02000800000000C4
:10023000FB020008FB02000800000000FB020008AF
:10024000FB020008FB020008FB020008FB0200089A
:10025000FB020008FB020008FB020008FB0200088A
:10026000FB020008FB020008FB020008FB0200087A
:10027000FB020008FB020008FB020008000000006F
:10028000FB020008FB020008FB020008FB0200085A
:1002900000000000FB020008FB0200080000000054
:1002A00000000000FB020008FB020008FB0200083F
:1002B000FB020008FB020008FB020008B164000812
:1002C000C164000841760108FB020008DFF80CD089
:1002D00000F0C6F900480047B9AD010840250024E8
:1002E0000648804706480047FEE7FEE7FEE7FEE7D0
:1002F000FEE7FEE7FEE7FEE7FEE7FEE70175010821
:10030000CD0200082DE9F05F0546002092469B468D
:1003100088460646814640241BE02846414647461B
:10032000224600F0E1F853465A46C01A914110D3D4
:1003300011461846224600F0C8F82D1A67EB01084E
:100340004F4622460120002100F0BFF817EB0009BC
:100350004E41201EA4F10104DFDC484631462A4606
:100360004346BDE8F09F40EA01039B0703D009E044
:1003700008C9121F08C0042AFAD203E011F8013B91
:1003800000F8013B521EF9D27047D2B201E000F8EA
:10039000012B491EFBD270470022F6E710B5134629
:1003A0000A4604461946FFF7F0FF204610BD421CDE
:1003B00010F8011B0029FBD1801A704710B50022EC
:1003C00000E0521C835C8C5CA34201D1002BF8D16D
:1003D000D8B2E1B2401A10BD034611F8012B00F863
:1003E000012B002AF9D118467047F0B4CA17CB0F79
:1003F00050405140C61841F100054FEAC3723146E2
:1004000028004FF0960303D0B623F0BC00F085B867
:1004100030460021F9E73EB5CA17CB0F0024504003
:100420005140C0186141DA0740F233430094CDE9EE
:1004300001232246234600F0ADF803B030BD10B5CD
:1004400000F0004420F00040C20DC0F3160040F45C
:1004500000007F2A02DA0020014610BD0021962A02
:1004600003DCC2F19602D04002E0963A00F02DF88B
:10047000002CF2D00023D0EB030063EB010110BD90
:1004800070B5C1F30A5201F000450024C1F3130115
:1004900040F2FF3341F480119A4202DA0020014613
:1004A00070BD40F233439A42A2F2334203DC52421F
:1004B00000F01AF801E000F008F82C43F0D0002317
:1004C000D0EB030063EB010170BD202A04DB203A6E
:1004D00000FA02F1002070479140C2F1200320FA97
:1004E00003F3194390407047202A04DB203A21FA95
:1004F00002F00021704721FA02F3D040C2F120023D
:1005000091400843194670470029A8BF7047401C16
:10051000490008BF20F00100704710B4B0FA80FC19
:1005200000FA0CF050EA010404BF10BC704749B156
:10053000CCF1200421FA04F411FA0CF118BF0121C6
:1005400021430843A3EB0C01CB1D4FEA00614FEAA6
:10055000102042BF002010BC704700EBC350104475
:100560000029A4BF10BC7047401C490008BF20F000
:10057000010010BC704710B5141E73F1000408DAB6
:10058000401C41F1000192185B411A4301D120F057
:10059000010010BD2DE9F04D92469B4611B1B1FA14
:1005A00081F202E0B0FA80F220329046FFF78DFF30
:1005B00004460F4640EA0A0041EA0B0153465A46F8
:1005C000084313D0114653EA010019D0C8F1400284
:1005D0005046FFF789FF05460E46504659464246AB
:1005E000FFF773FF084305D0012004E02046394699
:1005F000BDE8F08D0020054346EAE0762C43374302
:100600000A986305E40AA0EB08000022FD0A44EA08
:1006100047540A3002D500200146E9E701051019C8
:100620006941DDE9084500196941BDE8F04DA2E7DF
:1006300070B521F0004303430CD0C1F30A550024E8
:10064000D5EB040564EB0403D617AD1AB34102DB06
:100650000020014670BD201841EB025170BD000022
:100660001CB509480090094801900546009C06E029
:10067000E06840F0010394E8070098471034AC426A
:10068000F6D3FFF727FE000014E0010844E001085C
:1006900070B58C1810F8015B15F0070301D110F844
:1006A000013B2A1106D110F8012B03E010F8016B71
:1006B00001F8016B5B1EF9D12B0705D40023521EF4
:1006C0000DD401F8013BFAE710F8013BCB1A921C5C
:1006D00003E013F8015B01F8015B521EF9D5A1425A
:1006E000D8D3002070BD000042F2FC00C2F20040EE
:1006F000C168098800EE101AB8EEC03A9FED102AC2
:100700009FED100AB0EE401AA3EE021A80ED041A13
:10071000C168498801EE101AB8EEC13AB0EE401A2D
:10072000A3EE021A80ED071AC168898801EE101A3B
:10073000B8EEC11AA1EE020A80ED0A0A704700BFA6
:100740000AD7233C0000A0C380B582B040F292607B
:10075000C2F2004080780146019140B1FFE7019864
:10076000012807D0FFE70198022806D008E005F02D
:100770008BF905E005F02CFA02E000F059F8FFE7EC
:1007800040F24420C2F2004090F91400012847D002
:10079000FFE740F24560C2F2004090F901000128F5
:1007A0003ED0FFE740F22A50C2F2004090F900002C
:1007B000012835D0FFE740F24C30C2F2004090ED06
:1007C000000A90ED011AB7EEC00AB7EEC11A1CF08C
:1007D000E7F80120B3EE0E1BB4EE410BF1EE10FA78
:1007E000009019DCFFE740F24C30C2F2004090ED7F
:1007F000020A90ED031AB7EEC00AB7EEC11A1CF058
:10080000CFF8B3EE0E1B0020B4EE410BF1EE10FA60
:10081000C8BF01200090FFE70098C00718B1FFE7AC
:1008200000F04AF8FFE702B080BD000000000000C1
:1008300080B582B040F29C21C2F2004108684A684B
:100840008B6841F6D431C2F2004101918B604A605D
:10085000086015F0CDF9019890ED003A90ED012A6D
:1008600090ED030A90ED041A30EE430AB7EEC00A89
:1008700031EE421AB7EEC11A1CF092F89FED0C1B34
:10088000B4EE410BF1EE10FA0DDAFFE740F22A5117
:10089000C2F20041012008704DF6A170C0F60100BF
:1008A00016F0A6FAFFE702B080BD00BF00BF00BF90
:1008B0000000000000407F4040F24421C2F20041AD
:1008C0000020888240F24561C2F20041088040F277
:1008D0002A51C2F20041087040F24451C2F2004174
:1008E000087070470000000080B590B040F24C10D6
:1008F000C2F2004090ED051A90ED0B0A30EE410A6D
:1009000040F2DC00C2F2004080ED0D0A90ED000ADA
:1009100090ED0D1A20EE010A8DED0E0A90ED090AF8
:1009200090ED0A1A41F6D430C2F2004090ED163A2A
:1009300090ED182A20EE030AA1EE020AB7EE001A83
:10094000B4EE410AF1EE10FA05DAFFE7B7EE000A5D
:100950008DED0C0A3CE040F2DC00C2F2004090ED6C
:10096000090A90ED0A1A41F6D430C2F2004090ED27
:10097000163A90ED182A20EE030AA1EE020AB1EE13
:10098000001AB4EE410AF1EE10FA05DDFFE7B1EE10
:10099000000A8DED0B0A16E040F2DC00C2F20040C6
:1009A00090ED090A90ED0A1A41F6D430C2F20040E7
:1009B00090ED163A90ED182A20EE030AA1EE020AF5
:1009C0008DED0B0AFFE79DED0B0A8DED0C0AFFE79D
:1009D0009DED0C0A40F2DC00C2F2004080ED0C0AF2
:1009E00090ED020A41F6D431C2F2004191ED0F1AA6
:1009F00020EE010A8DED0D0A90ED051A90ED0D0A1D
:100A0000B7EEC00AB0EEC00BB7EEC11AB4EE410BA0
:100A1000F1EE10FA0BDAFFE740F2DC00C2F2004020
:100A200090ED050AB7EEC00A8DED080B30E040F2FC
:100A3000DC00C2F2004090ED061A90ED0D0AB7EE10
:100A4000C00AB0EEC00BB7EEC11AB4EE410BF1EE26
:100A500010FA0BDDFFE740F2DC00C2F2004090ED3F
:100A6000060AB7EEC00A8DED060B0CE040F2DC0082
:100A7000C2F2004090ED0D0AB7EEC00AB0EEC00B16
:100A80008DED060BFFE79DED060B8DED080BFFE7E7
:100A90009DED080B40F2DC00C2F20040059090EDA5
:100AA000052A90ED061AB7EEC23A30EE430B31EE4E
:100AB000421AB7EEC11A80EE010BB0EE001B1CF01B
:100AC000BBF80598B0EE401B90ED0C0AB7EEC00ADB
:100AD00020EE010BB7EEC00B80ED0C0A90ED051A6D
:100AE00090ED0D0AB7EEC00AB0EEC00BB7EEC11A1A
:100AF000B4EE410BF1EE10FA6BDDFFE740F2DC00E3
:100B0000C2F2004090ED061A90ED0D0AB7EEC00A51
:100B1000B0EEC00BB7EEC11AB4EE410BF1EE10FA15
:100B200057DAFFE740F2DC00C2F2004090ED012A04
:100B300090ED071A90ED0D3A90ED0E0AA2EE030A21
:100B4000B1EE411AB4EE410AF1EE10FA0BDAFFE70A
:100B500040F2DC00C2F2004090ED070AB1EE400A1C
:100B60008DED040A30E040F2DC00C2F2004090ED6E
:100B7000012A90ED071A90ED0D3A90ED0E0AA2EEC3
:100B8000030AB4EE410AF1EE10FA09DDFFE740F284
:100B9000DC00C2F2004090ED070A8DED030A0EE082
:100BA00040F2DC00C2F2004090ED011A90ED0D2AF7
:100BB00090ED0E0AA1EE020A8DED030AFFE79DED0E
:100BC000030A8DED040AFFE79DED040A8DED020A8C
:100BD00004E09FED310A8DED020AFFE79DED020A68
:100BE00040F2DC00C2F2004080ED0E0A9DED0E3AAC
:100BF00090ED081A90ED0C2A90ED0E0AA2EE030A71
:100C0000B1EE411AB4EE410AF1EE10FA0BDAFFE749
:100C100040F2DC00C2F2004090ED080AB1EE400A5A
:100C20008DED010A30E040F2DC00C2F200409DEDA3
:100C30000E3A90ED081A90ED0C2A90ED0E0AA2EEF5
:100C4000030AB4EE410AF1EE10FA09DDFFE740F2C3
:100C5000DC00C2F2004090ED080A8DED000A0EE0C3
:100C600040F2DC00C2F200409DED0E2A90ED0C1A1D
:100C700090ED0E0AA1EE020A8DED000AFFE79DED50
:100C8000000A8DED010AFFE79DED010A8DED0F0AC7
:100C90009DED0F0A10B080BD0000000000000000B4
:100CA00080B594B040F24560C2F2004090F9000077
:100CB000012801D1FFE704E140F21C10C2F200401C
:100CC0001390D0ED070A90ED080A1BF0B9FC1398B9
:100CD0009FED7D1A20EE010A9FED7C1A80EE010A3D
:100CE00090ED031AB1EE411AB4EE410AF1EE10FA9A
:100CF0000BDAFFE740F21C10C2F2004090ED030A4D
:100D0000B1EE400A8DED120A3EE040F21C10C2F234
:100D100000401190D0ED070A90ED080A1BF090FCFE
:100D200011989FED691A20EE010A9FED681A80EE76
:100D3000010A90ED031AB4EE410AF1EE10FA09DD52
:100D4000FFE740F21C10C2F2004090ED030A8DED67
:100D5000100A14E040F21C10C2F20040D0ED070A65
:100D600090ED080A1BF06CFC9FED571A20EE010A6B
:100D70009FED561A80EE010A8DED100AFFE79DEDFA
:100D8000100A8DED120AFFE79DED120A40F24C1099
:100D9000C2F200400B9080ED080A41F66C51C2F29D
:100DA00000410A9191ED100AB7EEC00A8DED040BD7
:100DB00040F21C11C2F20041099191ED010AB7EE17
:100DC000C00A8DED000B90ED080A9FED401A8DEDE5
:100DD000021A20EE010A9FED3C1A8DED031A80EEF7
:100DE000010AB7EEC00A1BF083FD9DED003B9DEDAF
:100DF000022A9DED031A09990A9A0B98B0EE404B0E
:100E00009DED040BA3EE440BB7EEC00B80ED060A7C
:100E100092ED110AB7EEC00A8DED0C0B91ED010AAF
:100E2000B7EEC00A8DED060B90ED080A20EE020A1F
:100E300080EE010AB7EEC00A1CF062FB9DED061BB6
:100E4000099A0A990B98B0EE402B9DED0C0BA1EE80
:100E5000420BB7EEC00B80ED070A92ED021A90ED3F
:100E6000080A30EE010A80ED080A00220F9282661D
:100E700042660266C2658265426580F86C20426106
:100E80000261C26090ED060A91ED191A30EE410A36
:100E900080ED090A90ED070A91ED1A1A30EE410A29
:100EA00080ED0A0A90ED080A91ED1B1A30EE410A16
:100EB00080ED0B0A40F24561C2F20041012008704A
:100EC000FFE714B080BD00BF00003443DA0F494093
:100ED00080B582B08DED010A41F66C51C2F200413D
:100EE00091ED100A91ED191A30EE410A40F21C10F2
:100EF000C2F20040009080ED070A91ED110A91EDD9
:100F00001A1A30EE410A80ED080AD0ED070A90ED7A
:100F1000080A1BF095FB009880ED0A0A90ED070A7D
:100F200090ED081AB7EEC00AB7EEC11A1BF038FDF3
:100F30000098B7EEC00B80ED090A02B080BD00003A
:100F400080B5A4B040F24C10C2F200401B9090ED6E
:100F5000031A90ED090A30EE410A8DED230A90ED57
:100F6000041A90ED0A0A30EE410A8DED220A9DED39
:100F7000230AB7EEC00A9DED221AB7EEC11A1BF084
:100F80000FFD1B98B7EEC00B80ED160A90ED101AFE
:100F900090ED160AB7EEC00AB0EEC00BB7EEC11A5C
:100FA000B4EE410BF1EE10FA0BDAFFE740F24C1011
:100FB000C2F2004090ED100AB7EEC00A8DED180B9A
:100FC00030E040F24C10C2F2004090ED0F1A90ED6C
:100FD000160AB7EEC00AB0EEC00BB7EEC11AB4EEF7
:100FE000410BF1EE10FA0BDDFFE740F24C10C2F2BC
:100FF000004090ED0F0AB7EEC00A8DED160B0CE025
:1010000040F24C10C2F2004090ED160AB7EEC00A52
:10101000B0EEC00B8DED160BFFE79DED160B8DEDC1
:10102000180BFFE79DED180B40F24C10C2F2004088
:10103000159090ED0F1A90ED102AB7EEC23A30EEEF
:10104000430B31EE421AB7EEC11A80EE010BB0EE3F
:10105000001B1BF0F1FD1598B7EEC00B80ED150AD3
:1010600090ED0C0A9DED231A20EE010A8DED210A68
:101070009DED230AB7EEC00AB0EEC00B90ED121A38
:10108000B7EEC11AB4EE410BF1EE10FA21DAFFE728
:101090009DED230AB7EEC00AB0EEC00B40F24C1033
:1010A000C2F2004090ED111AB7EEC11AB4EE410B36
:1010B000F1EE10FA0DDDFFE740F24C10C2F20040F5
:1010C00090ED0E0A9DED231A20EE010A8DED140A13
:1010D00004E09FEDC60A8DED140AFFE79DED140AAA
:1010E0008DED200A9DED230AB7EEC00AB0EEC00BCD
:1010F00040F24C10C2F2004090ED111AB7EEC11A46
:10110000B4EE410BF1EE10FA05DAFFE79FEDB70AF6
:101110008DED130A50E040F24C10C2F2004090ED09
:10112000131A90ED170A9DED202A30EE020AB1EE57
:10113000411AB4EE410AF1EE10FA0BDAFFE740F281
:101140004C10C2F2004090ED130AB1EE400A8DED52
:10115000120A2CE040F24C10C2F2004090ED131A3B
:1011600090ED170A9DED202A30EE020AB4EE410AF6
:10117000F1EE10FA09DDFFE740F24C10C2F2004038
:1011800090ED130A8DED110A0CE040F24C10C2F202
:10119000004090ED170A9DED201A30EE010A8DED0A
:1011A000110AFFE79DED110A8DED120AFFE79DED93
:1011B000120A8DED130AFFE79DED130A40F24C1061
:1011C000C2F2004080ED170A9DED212A90ED151A1C
:1011D00090ED170AA1EE020A80ED190A90ED0C0AB3
:1011E0009DED221A20EE010A8DED1F0A9DED220AC7
:1011F000B7EEC00AB0EEC00B90ED121AB7EEC11AEE
:10120000B4EE410BF1EE10FA21DAFFE79DED220A70
:10121000B7EEC00AB0EEC00B40F24C10C2F2004074
:1012200090ED111AB7EEC11AB4EE410BF1EE10FABF
:101230000DDDFFE740F24C10C2F2004090ED0E0AC7
:101240009DED221A20EE010A8DED100A04E09FEDBB
:101250009F0A8DED100AFFE79DED100A8DED1E0A25
:101260009DED220AB7EEC00AB0EEC00B40F24C1062
:10127000C2F2004090ED111AB7EEC11AB4EE410B64
:10128000F1EE10FA05DAFFE79FED900A8DED0F0AF7
:1012900050E040F24C10C2F2004090ED131A90ED75
:1012A000180A9DED1E2A30EE020AB1EE411AB4EE84
:1012B000410AF1EE10FA0BDAFFE740F24C10C2F2ED
:1012C000004090ED130AB1EE400A8DED0E0A2CE0BD
:1012D00040F24C10C2F2004090ED131A90ED180A43
:1012E0009DED1E2A30EE020AB4EE410AF1EE10FA2C
:1012F00009DDFFE740F24C10C2F2004090ED130A06
:101300008DED0D0A0CE040F24C10C2F2004090ED61
:10131000180A9DED1E1A30EE010A8DED0D0AFFE749
:101320009DED0D0A8DED0E0AFFE79DED0E0A8DED88
:101330000F0AFFE79DED0F0A40F24C10C2F2004089
:101340000C9080ED180A9DED1F2A90ED151A90ED76
:10135000180AA1EE020A80ED1A0A90ED190A90ED22
:101360001A1AB7EEC00AB7EEC11A1BF019FB0C9897
:1013700090ED141AB1EE411AB7EEC11AB4EE410B5A
:10138000F1EE10FA0DDAFFE740F24C10C2F2004025
:1013900090ED140AB1EE400AB7EEC00A8DED0A0BCB
:1013A0003CE040F24C10C2F20040099090ED190A66
:1013B00090ED1A1AB7EEC00AB7EEC11A1BF0F0FA98
:1013C000099890ED141AB7EEC11AB4EE410BF1EE84
:1013D00010FA0DDDFFE740F24C10C2F2004090ED34
:1013E000140AB7EEC00A8DED060B12E000000000F3
:1013F00040F24C10C2F2004090ED190A90ED1A1A1A
:10140000B7EEC00AB7EEC11A1BF0CAFA8DED060B93
:10141000FFE79DED060B8DED0A0BFFE79DED0A0B37
:10142000B7EEC00B8DED1D0A9DED220ADDED230AFE
:101430001BF006F941F66C50C2F2004090ED1B1A09
:101440009FED232A21EE021A9FED222A81EE021A35
:1014500030EE010A8DED1C0A9DED1D0AB7EEC00AA3
:101460008DED000B9DED1C0AB7EEC00A1CF048F88C
:10147000B0EE401B9DED000B20EE010BB7EEC00B54
:101480008DED050A9DED1D0AB7EEC00A8DED020B2C
:101490009DED1C0AB7EEC00A1BF02AFAB0EE401B05
:1014A0009DED020B20EE010BB7EEC00B8DED040A93
:1014B000FFF71AFADDED040AB0EE401A9DED050AB9
:1014C00000F036F900F008F824B080BD00000000FC
:1014D000DA0F49C00000344380B588B0032007907C
:1014E000FFE70798012810DBFFE7079A40F2203159
:1014F000C2F2004101EB820050F8040C41F82200D6
:10150000FFE7079801380790EBE7002003908DF87C
:101510001B0040F24C10C2F2004090ED033A90EDF7
:10152000042A90ED090A90ED0A1A30EE430AB7EE4C
:10153000C00A31EE421AB7EEC11A1BF031FA039815
:10154000B7EEC00B8DED050A0490FFE70498032861
:1015500022DCFFE79DED050A049940F22030C2F23B
:10156000004000EB810090ED001AB4EE410AF1EE6C
:1015700010FA05DDFFE79DF91B000130029003E042
:101580009DF91B000290FFE702988DF81B00FFE712
:10159000049801300490D9E7059840F22031C2F256
:1015A0000041086040F2DC00C2F2004090ED0D0AFC
:1015B000B7EEC00AB0EEC00B9FED251BB4EE410B99
:1015C000F1EE10FA24DAFFE79DF91B0003280EDB89
:1015D000FFE740F24C10C2F2004090ED160A9FED7A
:1015E0001E1AB4EE410AF1EE10FA0EDBFFE740F2EC
:1015F0004C10C2F2004090ED160AB3EE041AB4EE9D
:10160000410AF1EE10FA03DAFFE70120019007E04A
:1016100040F24C10C2F2004090F96C000190FFE7DC
:10162000019940F24C10C2F2004080F86C1090F921
:101630006C00012807D1FFE74EF20700C0F6010059
:1016400015F0D6FBFFE708B080BD00BF00BF00BFAC
:10165000333333333333F33F0000A0420000000044
:10166000FFE7FEE70000000080B54AF2C400C4F2C4
:1016700000000068800200280ED5FFE740F210202D
:10168000C2F20040016841F6FC50C2F20040FEF791
:10169000A3FE12F08DF8FFE74AF2C440C4F2000046
:1016A0000068800200280ED5FFE740F21020C2F249
:1016B0000040016841F6FC50C2F20040FEF78CFE8B
:1016C00012F0D6F8FFE74DF2C440C4F20000006803
:1016D000800200280ED5FFE740F21020C2F2004041
:1016E000016841F6FC50C2F20040FEF775FE12F0B0
:1016F0001FF9FFE780BD000082B0019000910198C2
:10170000B22807D1FFE740F29261C2F20041012006
:101710000870FFE702B0704782B00190019800683E
:1017200000909DED000A02B070470000000000002C
:1017300080B58AB08DED090ACDED080A8DED071A46
:10174000089A40F24451C2F200410291084640F822
:10175000042F00909DED090AB7EEC00A9DED071A0F
:10176000B7EEC11A9FED782BA1EE020BB7EEC00BBE
:1017700081ED020A9DED080AB7EEC00A9DED071A39
:10178000B7EEC11A9FED724BA1EE440BB7EEC00B42
:1017900081ED060A01F1180201929DED090AB7EEEA
:1017A000C00A9DED071AB7EEC11A9FED6B3BA1EE83
:1017B000430BB7EEC00B81ED070A9DED080AB7EEAB
:1017C000C00A9DED071AB7EEC11AA1EE040BB7EEE1
:1017D000C00B81ED0B0A01F12C0203929DED090A69
:1017E000B7EEC00A9DED071AB7EEC11AA1EE430B82
:1017F000B7EEC00B81ED0C0A089B0A4642F8403F49
:1018000006929DED090AB7EEC00A9DED071AB7EEE4
:10181000C11AA1EE420BB7EEC00B82ED010A91EDA9
:10182000020AB7EEC00A90ED001AB7EEC11A1BF01B
:10183000B7F802980699B7EEC00B01ED0D0A90EDCE
:10184000061A90ED070AB7EEC00AB7EEC11A1BF0F0
:10185000A7F802980699B7EEC00B01ED080A90EDC3
:101860000B1A90ED0C0AB7EEC00AB7EEC11A1BF0C6
:1018700097F80698B7EEC00B00ED030A90ED001A3A
:1018800090ED010AB7EEC00AB7EEC11A1BF088F856
:1018900000980299069AB7EEC00B82ED020A91ED0C
:1018A000020AD0ED000A1AF0CBFE009906989FEDCF
:1018B0002C1A8DED041A20EE010A9FED2A1A8DEDE7
:1018C000051A80EE010A143012F026FE0298D0EDBF
:1018D000060A90ED070A1AF0B3FE01999DED042A5D
:1018E0009DED051A069820EE020A80EE010A2C30C2
:1018F00012F012FE0298D0ED0B0A90ED0C0A1AF0CD
:101900009FFE03999DED042A9DED051A069820EE91
:10191000020A80EE010A443012F0FEFD0698D0ED76
:10192000000A90ED010A1AF08BFE9DED042A9DED50
:10193000051A069920EE020A80EE010A01F15C0008
:1019400012F0EAFD0AB080BD7B14AE47E17AF03FA9
:10195000A29C685721E5EE3F79E9263108ACD03FDB
:1019600000003443DA0F494080B588B08DF81E007E
:101970009DF81E0020B9FFE74FF4FA60059038E0AB
:101980009DF81E00012804D1FFE741F28830049041
:101990002CE09DF81E00022804D1FFE74FF4FA5016
:1019A000039020E09DF81E00032804D1FFE747F2D2
:1019B0003050029014E09DF81E00042804D1FFE787
:1019C00041F28830019008E09DF81E1000200629A1
:1019D00008BF4FF47A600190FFE701980290FFE79B
:1019E00002980390FFE703980490FFE7049805909E
:1019F000FFE705980690069820B9FFE700208DF8CC
:101A00001F001DE00AF0B8FD40F23051C2F2004163
:101A1000C968401A069988420ED9FFE741F2383169
:101A2000C2F20041022048700120009011F030F80D
:101A300000988DF81F0003E000208DF81F00FFE7DD
:101A40009DF81F0008B080BD80B582B042F2FC0056
:101A5000C2F2004090F90000012818D1FFE79DF87C
:101A6000070001308DF807004FF47F406FF07F4191
:101A70009FED4B0A04F0FCFF014640F2BC10C2F29D
:101A8000004090F90020002014F05EFFFFE741F2D3
:101A90007040C2F2004090F83600C007C0B1FFE7C6
:101AA0009DF8070001308DF807004FF47F406FF07C
:101AB0007F419FED3C0A04F0DBFF014640F2BC1081
:101AC000C2F2004090F90020012014F03DFFFFE732
:101AD00041F66C50C2F2004090F91600012818D16E
:101AE000FFE79DF8070001308DF807004FF47F40B5
:101AF0006FF07F419FED2B0A04F0BAFF014640F2E0
:101B0000BC10C2F2004090F90020022014F01CFF2B
:101B1000FFE741F66C50C2F2004090F90000012846
:101B200018D1FFE79DF8070001308DF807004FF44A
:101B30007F406FF07F419FED1C0A04F099FF014642
:101B400040F2BC10C2F2004090F90020032014F0D3
:101B5000FBFEFFE741F25850C2F2004090F85800F7
:101B6000C007C0B1FFE79DF8070001308DF80700FE
:101B70004FF47F406FF07F419FED0B0A04F078FF38
:101B8000014640F2BC10C2F2004090F9002004204F
:101B900014F0DAFEFFE79DF9070002B080BD00BF38
:101BA000000070420000A0420000C8420000000097
:101BB00040F23051C2F200410020887041F23831C9
:101BC000C2F200414870704780B5CEB004A80190C1
:101BD0004FF494710291FEF7DFFB0199029A40F6EF
:101BE000C850C2F20040049041F20000C5F6020065
:101BF00005904FF40043ADF8183007904FF40060A3
:101C0000ADF8200040F20043C5F6020309934FF4FB
:101C1000806CADF828C00B93ADF8300001208DF832
:101C2000350002208DF8360003208DF8370004239C
:101C30008DF8383006238DF8393007238DF83A3087
:101C400008238DF83B3009238DF83C3066238DF84E
:101C50003E3077238DF83F3088238DF8403099232C
:101C60008DF841308DF8420044F60120C0F60100A5
:101C70004C9041F24830C2F200400390FEF773FBF3
:101C8000039812F069FF4EB080BD00000000000014
:101C9000704700000000000096B08DED150A9DED24
:101CA000150A41F6D430C2F2004090ED051A30EE2C
:101CB000410A9FEDD91AB4EE410AF1EE10FA11DD96
:101CC000FFE79DED150A41F6D430C2F2004090EDD9
:101CD000051A30EE410A9FEDD11A30EE010A8DED62
:101CE000100A34E09DED150A41F6D430C2F20040EE
:101CF00090ED051A30EE410A9FEDC91AB4EE410A83
:101D0000F1EE10FA11DAFFE79DED150A41F6D43035
:101D1000C2F2004090ED051A30EE410A9FEDC11A63
:101D200030EE010A8DED0F0A0CE09DED150A41F62B
:101D3000D430C2F2004090ED051A30EE410A8DED2C
:101D40000F0AFFE79DED0F0A8DED100AFFE79DEDED
:101D5000100A8DED140A40F21420C2F2004090EDFA
:101D6000020A9DED141A20EE010A8DED120A41F6C9
:101D7000D431C2F2004191ED163A91ED182A90ED5E
:101D8000001A90ED010A20EE030AA1EE020AB7EE56
:101D9000001AB4EE410AF1EE10FA05DAFFE7B7EEE9
:101DA000000A8DED0E0A3CE040F21420C2F2004021
:101DB00041F6D431C2F2004191ED163A91ED182A64
:101DC00090ED001A90ED010A20EE030AA1EE020A3E
:101DD000B1EE001AB4EE410AF1EE10FA05DDFFE7AC
:101DE000B1EE000A8DED0D0A16E040F21420C2F2A9
:101DF000004041F6D431C2F2004191ED163A91ED26
:101E0000182A90ED001A90ED010A20EE030AA1EEC7
:101E1000020A8DED0D0AFFE79DED0D0A8DED0E0A0C
:101E2000FFE79DED0E0A8DED110A9DED140AB7EE48
:101E3000C00AB0EEC00B40F21420C2F2004090ED98
:101E4000091AB7EEC11AB4EE410BF1EE10FA51DAED
:101E5000FFE79DED140A40F21420C2F2004090ED1D
:101E6000091A80EE010AB7EEC00AB0EEC00BB6EE5A
:101E7000001BB4EE410BF1EE10FA05DAFFE7B6EE07
:101E8000000B8DED0A0B30E09DED140A40F214209A
:101E9000C2F2004090ED091A80EE010AB7EEC00AC6
:101EA000B0EEC00BB7EE001BB4EE410BF1EE10FA32
:101EB00005DDFFE7B7EE000B8DED080B10E09DEDA3
:101EC000140A40F21420C2F2004090ED091A80EE8C
:101ED000010AB7EEC00AB0EEC00B8DED080BFFE7AC
:101EE0009DED080B8DED0A0BFFE79DED0A0B8DEDC7
:101EF000060B04E0B7EE000B8DED060BFFE79DED42
:101F0000060BB7EEC00B8DED110A9DED111A40F2D4
:101F10001420C2F2004090ED070A20EE010A80ED85
:101F2000070A9DED140AB7EEC00AB0EEC00B90EDA3
:101F3000091AB7EEC11AB4EE410BF1EE10FA73DDD7
:101F4000FFE79DED140AB7EEC00AB0EEC00B40F2F9
:101F50001420C2F2004090ED0A1AB7EEC11AB4EE96
:101F6000410BF1EE10FA5FDAFFE740F21420C2F203
:101F700000409DED143A90ED032A90ED070A90ED94
:101F8000081AA2EE030AB1EE411AB4EE410AF1EECC
:101F900010FA0BDAFFE740F21420C2F2004090ED95
:101FA000080AB1EE400A8DED050A30E040F2142037
:101FB000C2F200409DED143A90ED032A90ED070A1D
:101FC00090ED081AA2EE030AB4EE410AF1EE10FAFF
:101FD00009DDFFE740F21420C2F2004090ED080A4C
:101FE0008DED040A0EE040F21420C2F2004090EDA4
:101FF000031A90ED070A9DED142AA1EE020A8DED59
:10200000040AFFE79DED040A8DED050AFFE79DED4B
:10201000050A8DED030A10E0000034430000B4C34C
:10202000000034C30000B44340F21420C2F2004068
:1020300090ED070A8DED030AFFE79DED030A40F2DC
:102040001420C2F2004080ED070A9DED112A9DED9B
:10205000123A90ED070A90ED0B1AA2EE030AB1EEC8
:10206000411AB4EE410AF1EE10FA0BDAFFE740F242
:102070001420C2F2004090ED0B0AB1EE400A8DED43
:10208000020A30E09DED112A9DED123A40F2142033
:10209000C2F2004090ED070A90ED0B1AA2EE030A7F
:1020A000B4EE410AF1EE10FA09DDFFE740F2142028
:1020B000C2F2004090ED0B0A8DED010A0EE09DED9D
:1020C000111A9DED122A40F21420C2F2004090ED48
:1020D000070AA1EE020A8DED010AFFE79DED010A54
:1020E0008DED020AFFE79DED020A8DED130A9DEDCD
:1020F000130A16B07047000080B540F6E010C2F237
:10210000004006F0E1FC80BD80B540F28870C2F26C
:10211000004006F0D9FC80BD80B540F60000C2F258
:10212000004006F0D1FC80BD80B540F65820C2F2D8
:10213000004006F0C9FC80BD80B540F67800C2F2D0
:10214000004006F0C1FC80BD80B540F29860C2F24C
:10215000004006F0B9FC80BD80B540F6D020C2F248
:10216000004006F0B1FC80BD80B540F6F000C2F240
:10217000004006F0A9FC80BD80B540F66810C2F2B0
:10218000004006F0A1FC80BD80B540F21070C2F2A4
:10219000004006F099FC80BD83B00290029801686F
:1021A00001201022C4F202029142009000F0A380AC
:1021B000FFE70298016801202822C4F2020291423E
:1021C000009000F09880FFE702980168012040220B
:1021D000C4F202029142009000F08D80FFE7029865
:1021E000016801205822C4F202029142009000F0DE
:1021F0008280FFE70298016801207022C4F2020287
:102200009142009077D0FFE7029801680120882270
:10221000C4F20202914200906DD0FFE7029801687B
:102220000120A022C4F202029142009063D0FFE795
:10223000029801680120B822C4F202029142009083
:1022400059D0FFE702980168012040F21042C4F221
:102250000202914200904ED0FFE7029801680120EF
:1022600040F22842C4F202029142009043D0FFE7BC
:1022700002980168012040F24042C4F202029142F9
:10228000009038D0FFE702980168012040F25842E0
:10229000C4F20202914200902DD0FFE7029801683B
:1022A000012040F27042C4F202029142009022D01A
:1022B000FFE702980168012040F28842C4F202025E
:1022C0009142009017D0FFE702980168012040F288
:1022D000A042C4F20202914200900CD0FFE70298A3
:1022E00000684FF64831CBF6FD710844B0FA80F033
:1022F00040090090FFE70098C00740B3FFE702984D
:10230000007810384AF6AB21CAF6AA21A0FB0110CA
:1023100000090190019800F007014DF6A860C0F691
:102320000100405C0299C8650198042807D3FFE7C3
:1023300002990868042262F30900886506E00299A0
:10234000086840F2FF3290438865FFE705E0029994
:10235000086820F0FF008865FFE70298806D03B0F1
:10236000704700000000000084B0039003980068EC
:10237000019003980168012045F20842C5F6020267
:10238000914200904ED0FFE703980168012045F28A
:102390001C42C5F602029142009043D0FFE7039829
:1023A0000168012045F23042C5F6020291420090D8
:1023B00038D0FFE703980168012045F24442C5F692
:1023C0000202914200902DD0FFE70398016801209E
:1023D00045F25842C5F602029142009022D0FFE732
:1023E00003980168012045F26C42C5F60202914251
:1023F000009017D0FFE703980168012045F2804262
:10240000C5F60202914200900CD0FFE703980068E5
:102410004AF66C31CAF2FD710844B0FA80F0400906
:102420000090FFE70098C00710B3FFE7039800781B
:1024300008384CF6CD41CCF6CC41A0FB0110000988
:102440000290029945F60000C5F6020000EB8100FB
:1024500003990866039945F68000C5F602004866B0
:10246000029800F01F01012088400399886635E03A
:102470000398007810384AF6AB21CAF6AA21A0FBCF
:10248000011000090290019840F2B841C4F2020123
:1024900088420CD8FFE7019840F21041C4F20201D3
:1024A000884204D3FFE7029808300290FFE70299C0
:1024B00040F60000C4F2020000EB810003990866B8
:1024C000039940F68000C4F202004866029800F0CA
:1024D0001F010120884003998866FFE704B0704718
:1024E00083B002900298007901900198002800F0D2
:1024F0008A80FFE70198082800F28580FFE70298AC
:102500000168012045F20842C5F60202914200909E
:102510004ED0FFE702980168012045F21C42C5F643
:1025200002029142009043D0FFE702980168012027
:1025300045F23042C5F602029142009038D0FFE7E2
:1025400002980168012045F24442C5F60202914218
:1025500000902DD0FFE702980168012045F2584213
:10256000C5F602029142009022D0FFE7029801686E
:10257000012045F26C42C5F602029142009017D04C
:10258000FFE702980168012045F28042C5F6020289
:10259000914200900CD0FFE7029800684AF66C3137
:1025A000CAF2FD710844B0FA80F040090090FFE7DC
:1025B0000098C00780B1FFE7019945F6FC00C5F619
:1025C000020000EB81000299C866029945F64010AE
:1025D000C5F6020008670FE0019940F6FC00C4F25E
:1025E000020000EB81000299C866029940F6401093
:1025F000C4F202000867FFE70198411E01208840ED
:1026000002994867FFE703B0704700000000000030
:1026100085B0049000208DF80F000498806918BBE5
:10262000FFE70498806A029003281BD80299DFE82C
:1026300001F0020D0218049890F82F00C00720B195
:10264000FFE701208DF80F00FFE70CE00498C06A57
:10265000B0F1C07F04D1FFE701208DF80F00FFE744
:1026600001E000E0FFE747E004988069B0F5005F13
:1026700026D1FFE70498806A019003281ED80199AB
:10268000DFE801F00206021101208DF80F0016E0CC
:10269000049890F82F00C00720B1FFE701208DF8C3
:1026A0000F00FFE70BE00498C06AB0F1C07F04D1CF
:1026B000FFE701208DF80F00FFE700E0FFE71AE0D9
:1026C0000498806A0090032804D3FFE70098032849
:1026D00004D00EE001208DF80F000BE0049890F874
:1026E0002F00C00720B1FFE701208DF80F00FFE7A2
:1026F00000E0FFE7FFE7FFE79DF80F0005B0704738
:1027000089B008900791069205930898806D04900F
:102710000898806D03900898016801201022C4F287
:1027200002029142029000F00381FFE708980168DD
:1027300001202822C4F202029142029000F0F880A7
:10274000FFE70898016801204022C4F2020291428A
:10275000029000F0ED80FFE7089801680120582200
:10276000C4F202029142029000F0E280FFE7089872
:10277000016801207022C4F202029142029000F02E
:10278000D780FFE70898016801208822C4F202027E
:102790009142029000F0CC80FFE708980168012088
:1027A000A022C4F202029142029000F0C180FFE731
:1027B000089801680120B822C4F2020291420290F6
:1027C00000F0B680FFE708980168012040F210424F
:1027D000C4F202029142029000F0AA80FFE708983A
:1027E0000168012040F22842C4F2020291420290A4
:1027F00000F09E80FFE708980168012040F2404207
:10280000C4F202029142029000F09280FFE7089821
:102810000168012040F25842C4F202029142029043
:1028200000F08680FFE708980168012040F27042BE
:10283000C4F20202914202907AD0FFE70898016840
:10284000012040F28842C4F20202914202906FD00D
:10285000FFE708980168012040F2A042C4F202029A
:102860009142029064D0FFE708980168012040F28D
:10287000B842C4F202029142029059D0FFE7089890
:102880000168012045F20842C5F602029142029019
:102890004ED0FFE708980168012045F21C42C5F6BA
:1028A00002029142029043D0FFE70898016801209C
:1028B00045F23042C5F602029142029038D0FFE75D
:1028C00008980168012045F24442C5F6020291428F
:1028D00002902DD0FFE708980168012045F2584288
:1028E000C5F602029142029022D0FFE708980168E3
:1028F000012045F26C42C5F602029142029017D0C7
:10290000FFE708980168012045F28042C5F60202FF
:10291000914202900CD0FFE7089800684AF66C31AB
:10292000CAF2FD710844B0FA80F040090290FFE756
:102930000298C00770B1FFE70898416E806E48604A
:102940000898C06E28B1FFE70898016F406F486093
:10295000FFE7FFE70898016801201022C4F2020295
:102960009142019000F0A380FFE7089801680120E0
:102970002822C4F202029142019000F09880FFE701
:102980000898016801204022C4F20202914201909D
:1029900000F08D80FFE70898016801205822C4F2FA
:1029A00002029142019000F08280FFE708980168DE
:1029B00001207022C4F202029142019077D0FFE719
:1029C0000898016801208822C4F202029142019015
:1029D0006DD0FFE7089801680120A022C4F202022E
:1029E0009142019063D0FFE7089801680120B82266
:1029F000C4F202029142019059D0FFE708980168A1
:102A0000012040F21042C4F20202914201904ED0E5
:102A1000FFE708980168012040F22842C4F2020250
:102A20009142019043D0FFE708980168012040F2ED
:102A30004042C4F202029142019038D0FFE7089868
:102A40000168012040F25842C4F202029142019012
:102A50002DD0FFE708980168012040F27042C4F2CF
:102A600002029142019022D0FFE7089801680120FC
:102A700040F28842C4F202029142019017D0FFE76F
:102A800008980168012040F2A042C4F2020291427B
:102A900001900CD0FFE7089800684FF64831CBF65C
:102AA000FD710844B0FA80F040090190FFE70198F9
:102AB000C00750B3FFE70898C06D00F01F013F202A
:102AC00088400499886008980168086820F480208C
:102AD0000860059808990968486008988068402847
:102AE00009D1FFE70698089909688860079808994E
:102AF0000968C86008E0079808990968886006981E
:102B000008990968C860FFE782E008980168012019
:102B100045F20842C5F60202914200904ED0FFE70E
:102B200008980168012045F21C42C5F60202914254
:102B3000009043D0FFE708980168012045F2304239
:102B4000C5F602029142009038D0FFE7089801686C
:102B5000012045F24442C5F60202914200902DD078
:102B6000FFE708980168012045F25842C5F60202C5
:102B70009142009022D0FFE708980168012045F2B9
:102B80006C42C5F602029142009017D0FFE7089808
:102B90000168012045F28042C5F602029142009090
:102BA0000CD0FFE7089800684AF66C31CAF2FD7154
:102BB0000844B0FA80F040090090FFE70098C00791
:102BC00020B3FFE70898C06D00F01F010120884086
:102BD00003994860059808990968486008988068D2
:102BE000402809D1FFE70698089909688860079886
:102BF00008990968C86008E007980899096888601A
:102C0000069808990968C860FFE700E0FFE7FFE75A
:102C100009B070470000000080B584B08DF80E0048
:102C20008DF80D108DF80C208DF80B3000208DF8EC
:102C30000A009DF80B000146019140B1FFE70198A1
:102C4000012820D0FFE70198022838D053E09DF8F2
:102C50000E009DF80D1001F007F88DF80A009DF8A0
:102C60000A0028B1FFE79DF80A008DF80F004BE03D
:102C70009DF80E009DF80D109DF80C2000F0E4FB6F
:102C80008DF80A003BE09DF80E009DF80D1000F055
:102C900057FF8DF80A009DF80A0028B1FFE79DF85C
:102CA0000A008DF80F002FE09DF80E009DF80D1022
:102CB0009DF80C2000F0A8F98DF80A001FE09DF89F
:102CC0000E009DF80D1000F0A7FE8DF80A009DF88B
:102CD0000A0028B1FFE79DF80A008DF80F0013E005
:102CE0009DF80E009DF80D109DF80C2000F010F8D6
:102CF0008DF80A0003E0FF208DF80A00FFE79DF839
:102D00000A008DF80F00FFE79DF90F0004B080BDA9
:102D100080B586B08DF816008DF815108DF814204A
:102D200000208DF8130040F2C011C2F20041896802
:102D3000039102909DF80A1001F0FC0102318DF818
:102D40000A1001909DF8150001460091112800F22B
:102D50002B810099DFE811F012003D002801660088
:102D600066006600660066006A009B00CC00F70003
:102D7000FB0024012401660066006A0000208DF833
:102D80000F009DF80E0000F0E00006308DF80E00F8
:102D90009DF80D0000F0F00001308DF80D009DF859
:102DA0000C0000F0F00001308DF80C009DF80900D7
:102DB00000F0800007308DF809009DF804109DF8A0
:102DC000080001F03F0100F0C00008448DF8080041
:102DD000EEE000208DF80F009DF80E0000F0E000FE
:102DE00002308DF80E009DF80D0000F0F0008DF817
:102DF0000D009DF80C0000F0F0008DF80C009DF81F
:102E0000090000F0800003308DF809009DF80410DF
:102E10009DF8080001F03F0100F0C00008448DF863
:102E20000800C5E0FF208DF81700E6E000208DF8CF
:102E30000F009DF80E0000F0E0000E308DF80E003F
:102E40009DF80D0000F0F00003308DF80D009DF8A6
:102E50000C0000F0F00003308DF80C009DF8090024
:102E600000F080000F308DF809009DF804109DF8E7
:102E7000080001F03F0100F0C00008448DF8080090
:102E80009DF80A0000F0FC008DF80A0090E0002098
:102E90008DF80F009DF80E0000F0E00007308DF86F
:102EA0000E009DF80D0000F0F00002308DF80D00CE
:102EB0009DF80C0000F0F00002308DF80C009DF839
:102EC000090000F0800008308DF809009DF804101A
:102ED0009DF8080001F03F0100F0C00008448DF8A3
:102EE00008009DF80A0000F0FC008DF80A005FE081
:102EF00000208DF80F009DF80E0000F0E000063075
:102F00008DF80E009DF80D0000F0F00001308DF8F6
:102F10000D009DF80C0000F0F00001308DF80C0061
:102F20009DF8090000F0800007308DF809009DF839
:102F300004109DF8080001F03F0100F0C0000844B3
:102F40008DF8080034E0FF208DF8170055E00020D0
:102F50008DF80F009DF80E0000F0E00002308DF8B3
:102F60000E009DF80D0000F0F0008DF80D009DF8AA
:102F70000C0000F0F0008DF80C009DF8090000F046
:102F8000800003308DF809009DF804109DF80800BA
:102F900001F03F0100F0C00008448DF8080007E090
:102FA000FF208DF8170028E0FF208DF8170024E09F
:102FB0009DF81600039A082102F032FB8DF81300E9
:102FC0009DF8130020B1FFE7FE208DF8170014E0F4
:102FD0009DF81600029A0C2102F022FB8DF81300D6
:102FE0009DF8130020B1FFE7FD208DF8170004E0E5
:102FF0009DF813008DF81700FFE79DF9170006B044
:1030000080BD00000000000080B586B08DF816007D
:103010008DF815108DF8142000208DF8130040F263
:10302000C011C2F200418968039102909DF80A1014
:1030300001F0FC0102318DF80A1001909DF8150095
:1030400001460091112800F2D1810099DFE811F0CA
:1030500012003D00CE0168009100BA00BA00BA002B
:10306000BE00EF0020014B017601A101A50168001F
:10307000BA00BE0000208DF80F009DF80E0000F091
:10308000E0000E308DF80E009DF80D0000F0F0000D
:1030900003308DF80D009DF80C0000F0F0000330B7
:1030A0008DF80C009DF8090000F080000F308DF8BD
:1030B00009009DF804109DF8080001F03F0100F0A0
:1030C000C00008448DF8080094E100208DF80F003E
:1030D0009DF80E0000F0E00006308DF80E009DF81F
:1030E0000D0000F0F00001308DF80D009DF80C008F
:1030F00000F0F00001308DF80C009DF8090000F0A0
:10310000800007308DF809009DF804109DF8080034
:1031100001F03F0100F0C00008448DF8080069E1AB
:1031200000208DF80F009DF80E0000F0E000023046
:103130008DF80E009DF80D0000F0F0008DF80D00E8
:103140009DF80C0000F0F0008DF80C009DF80900CF
:1031500000F0800003308DF809009DF804109DF800
:10316000080001F03F0100F0C00008448DF808009D
:1031700040E100208DF80F009DF80E0000F0E00007
:1031800001308DF80E009DF80D0000F0F0008DF874
:103190000D009DF80C0000F0F0008DF80C009DF87B
:1031A000090000F0800002308DF809009DF804103D
:1031B0009DF8080001F03F0100F0C00008448DF8C0
:1031C000080017E1FF208DF8170038E100208DF886
:1031D0000F009DF80E0000F0E0001E308DF80E008C
:1031E0009DF80D0000F0F00007308DF80D009DF8FF
:1031F0000C0000F0F00007308DF80C009DF809007D
:1032000000F080001F308DF809009DF804109DF833
:10321000080001F03F0100F0C00008448DF80800EC
:103220009DF80A0000F0FC008DF80A00E2E00020A2
:103230008DF80F009DF80E0000F0E00011308DF8C1
:103240000E009DF80D0000F0F00004308DF80D0028
:103250009DF80C0000F0F00004308DF80C009DF893
:10326000090000F0800012308DF809009DF804106C
:103270009DF8080001F03F0100F0C00008448DF8FF
:1032800008009DF80A0000F0FC008DF80A00B1E08B
:1032900000208DF80F009DF80E0000F0E0000E30C9
:1032A0008DF80E009DF80D0000F0F00003308DF851
:1032B0000D009DF80C0000F0F00003308DF80C00BC
:1032C0009DF8090000F080000F308DF809009DF88E
:1032D00004109DF8080001F03F0100F0C000084410
:1032E0008DF8080086E000208DF80F009DF80E0094
:1032F00000F0E00008308DF80E009DF80D0000F0A1
:10330000F00002308DF80D009DF80C0000F0F00088
:1033100002308DF80C009DF8090000F080000930A3
:103320008DF809009DF804109DF8080001F03F0198
:1033300000F0C00008448DF808005BE000208DF824
:103340000F009DF80E0000F0E00006308DF80E0032
:103350009DF80D0000F0F00001308DF80D009DF893
:103360000C0000F0F00001308DF80C009DF8090011
:1033700000F0800007308DF809009DF804109DF8DA
:10338000080001F03F0100F0C00008448DF808007B
:1033900030E0FF208DF8170051E000208DF80F007D
:1033A0009DF80E0000F0E00002308DF80E009DF850
:1033B0000D0000F0F0008DF80D009DF80C0000F0FD
:1033C000F0008DF80C009DF8090000F0800003303B
:1033D0008DF809009DF804109DF8080001F03F01E8
:1033E00000F0C00008448DF8080003E0FF208DF8CD
:1033F000170024E09DF81600039A082102F010F946
:103400008DF813009DF8130020B1FFE7FE208DF822
:10341000170014E09DF81600029A0C2102F000F942
:103420008DF813009DF8130020B1FFE7FD208DF803
:10343000170004E09DF813008DF81700FFE79DF9D1
:10344000170006B080BD000080B586B08DF816006C
:103450008DF815108DF8142000208DF8130040F21F
:10346000C011C2F200418968039102909DF80A10D0
:1034700001F0FC0102318DF80A1001909DF8150051
:1034800001460091112800F297820099DFE811F0BF
:1034900012003D0068009300BE00E90012013701F0
:1034A0005B018C01BD01E80113023E026902930039
:1034B00012015B0100208DF80F009DF80E0000F056
:1034C000E0001E308DF80E009DF80D0000F0F000B9
:1034D00007308DF80D009DF80C0000F0F00007306B
:1034E0008DF80C009DF8090000F080001F308DF869
:1034F00009009DF804109DF8080001F03F0100F05C
:10350000C00008448DF808005AE200208DF80F0032
:103510009DF80E0000F0E0000E308DF80E009DF8D2
:103520000D0000F0F00003308DF80D009DF80C0048
:1035300000F0F00003308DF80C009DF8090000F059
:1035400080000F308DF809009DF804109DF80800E8
:1035500001F03F0100F0C00008448DF808002FE2A0
:1035600000208DF80F009DF80E0000F0E0000830FC
:103570008DF80E009DF80D0000F0F00002308DF87F
:103580000D009DF80C0000F0F00002308DF80C00EA
:103590009DF8090000F0800009308DF809009DF8C1
:1035A00004109DF8080001F03F0100F0C00008443D
:1035B0008DF8080004E200208DF80F009DF80E0041
:1035C00000F0E00006308DF80E009DF80D0000F0D0
:1035D000F00001308DF80D009DF80C0000F0F000B7
:1035E00001308DF80C009DF8090000F080000730D4
:1035F0008DF809009DF804109DF8080001F03F01C6
:1036000000F0C00008448DF80800D9E100208DF8D2
:103610000F009DF80E0000F0E00004308DF80E0061
:103620009DF80D0000F0F00001308DF80D009DF8C0
:103630000C0000F0F00001308DF80C009DF809003E
:1036400000F0800005308DF809009DF804109DF809
:10365000080001F03F0100F0C00008448DF80800A8
:10366000AEE100208DF80F009DF80E0000F0E000A4
:1036700003308DF80E009DF80D0000F0F0008DF87D
:103680000D009DF80C0000F0F0008DF80C009DF886
:10369000090000F0800004308DF809009DF8041046
:1036A0009DF8080001F03F0100F0C00008448DF8CB
:1036B000080085E100208DF80F009DF80E0000F055
:1036C000E00002308DF80E009DF80D0000F0F000D3
:1036D0008DF80D009DF80C0000F0F0008DF80C0046
:1036E0009DF8090000F0800003308DF809009DF876
:1036F000080000F0C00001308DF8080060E10020F3
:103700008DF80F009DF80E0000F0E00001308DF8FC
:103710000E009DF80D0000F0F0008DF80D009DF8F2
:103720000C0000F0F0008DF80C009DF8090000F08E
:10373000800002308DF809009DF8080000F0C000FC
:103740008DF808003CE101208DF80F009DF80E0077
:1037500000F0E0001E308DF80E009DF80D0000F026
:10376000F00007308DF80D009DF80C0000F0F0001F
:1037700007308DF80C009DF8090000F080001F3024
:103780008DF809009DF804109DF8080001F03F0134
:1037900000F0C00008448DF808009DF80A0000F011
:1037A000FC008DF80A000BE101208DF80F009DF858
:1037B0000E0000F0E00011308DF80E009DF80D00B5
:1037C00000F0F00004308DF80D009DF80C0000F0C2
:1037D000F00004308DF80C009DF8090000F0800026
:1037E00012308DF809009DF804109DF8080001F0D2
:1037F0003F0100F0C00008448DF808009DF80A0061
:1038000000F0FC008DF80A00DAE000208DF80F00CF
:103810009DF80E0000F0E0001E308DF80E009DF8BF
:103820000D0000F0F00007308DF80D009DF80C0041
:1038300000F0F00007308DF80C009DF8090000F052
:1038400080001F308DF809009DF804109DF80800D5
:1038500001F03F0100F0C00008448DF80800AFE01F
:1038600000208DF80F009DF80E0000F0E0001230EF
:103870008DF80E009DF80D0000F0F00005308DF879
:103880000D009DF80C0000F0F00005308DF80C00E4
:103890009DF8090000F0800013308DF809009DF8B4
:1038A00004109DF8080001F03F0100F0C00008443A
:1038B0008DF8080084E000208DF80F009DF80E00C0
:1038C00000F0E0000E308DF80E009DF80D0000F0C5
:1038D000F00003308DF80D009DF80C0000F0F000B2
:1038E00003308DF80C009DF8090000F080000F30C7
:1038F0008DF809009DF804109DF8080001F03F01C3
:1039000000F0C00008448DF8080059E000208DF850
:103910000F009DF80E0000F0E00008308DF80E005A
:103920009DF80D0000F0F00002308DF80D009DF8BC
:103930000C0000F0F00002308DF80C009DF809003A
:1039400000F0800009308DF809009DF804109DF802
:10395000080001F03F0100F0C00008448DF80800A5
:103960002EE000208DF80F009DF80E0000F0E00022
:1039700006308DF80E009DF80D0000F0F0000130CB
:103980008DF80D009DF80C0000F0F00001308DF86E
:103990000C009DF8090000F0800007308DF8090048
:1039A0009DF804109DF8080001F03F0100F0C000F0
:1039B00008448DF8080003E0FF208DF8170024E08C
:1039C0009DF81600039A082101F02AFE8DF81300D5
:1039D0009DF8130020B1FFE7FE208DF8170014E0DA
:1039E0009DF81600029A0C2101F01AFE8DF81300C2
:1039F0009DF8130020B1FFE7FD208DF8170004E0CB
:103A00009DF813008DF81700FFE79DF9170006B029
:103A100080BD00000000000080B584B08DF80E006D
:103A20008DF80D1000208DF80C0040F2C010C2F28D
:103A30000040406802909DF80D0001460191112858
:103A40005FD80199DFE801F009095D090909090951
:103A50001E1E1E1E1E1E1E33334800208DF80B0036
:103A60000E208DF80A009DF8090000F08000033058
:103A70008DF809009DF8080000F0800003308DF8F3
:103A8000080042E000208DF80B001E208DF80A008F
:103A90009DF8090000F0800007308DF809009DF8BE
:103AA000080000F0800007308DF808002DE00020AD
:103AB0008DF80B0007208DF80A009DF8090000F032
:103AC000800002308DF809009DF8080000F08000A9
:103AD00002308DF8080018E000208DF80B003E2021
:103AE0008DF80A009DF8090000F080000F308DF875
:103AF00009009DF8080000F080000F308DF80800E4
:103B000003E0FF208DF80F0014E09DF80E00029AEC
:103B1000042101F085FD8DF80C009DF80C0020B10A
:103B2000FFE7FE208DF80F0004E09DF80C008DF8F3
:103B30000F00FFE79DF90F0004B080BD00000000FA
:103B400080B584B08DF80E008DF80D1000208DF832
:103B50000C0040F2C010C2F20040406802909DF894
:103B60000D000146019111285FD80199DFE801F0AD
:103B700009095D09090909091E1E1E1E1E1E1E33A4
:103B8000334800208DF80B001E208DF80A009DF8A8
:103B9000090000F0800007308DF809009DF808004A
:103BA00000F0800007308DF8080042E000208DF81A
:103BB0000B003E208DF80A009DF8090000F08000FF
:103BC0000F308DF809009DF8080000F080000F30DC
:103BD0008DF808002DE000208DF80B000E208DF8E8
:103BE0000A009DF8090000F0800003308DF80900FC
:103BF0009DF8080000F0800003308DF8080018E000
:103C000000208DF80B007E208DF80A009DF8090039
:103C100000F080001F308DF809009DF8080000F0CA
:103C200080001F308DF8080003E0FF208DF80F00A2
:103C300014E09DF80E00029A042101F0F1FC8DF8C9
:103C40000C009DF80C0020B1FFE7FE208DF80F005E
:103C500004E09DF80C008DF80F00FFE79DF90F00C0
:103C600004B080BD0000000080B584B08DF80E0067
:103C70008DF80D1000208DF80C0040F2C010C2F23B
:103C80000040406802909DF80D0001460191112806
:103C90005FD80199DFE801F0090909090909090953
:103CA0001E1E1E1E1E1E1E33334800208DF80B00E4
:103CB0003E208DF80A009DF8090000F080000F30CA
:103CC0008DF809009DF8080000F080000F308DF895
:103CD000080042E000208DF80B007E208DF80A00DD
:103CE0009DF8090000F080001F308DF809009DF854
:103CF000080000F080001F308DF808002DE0002043
:103D00008DF80B001E208DF80A009DF8090000F0C8
:103D1000800007308DF809009DF8080000F0800051
:103D200007308DF8080018E000208DF80B00FE2009
:103D30008DF80A009DF8090000F080003F308DF8F2
:103D400009009DF8080000F080003F308DF8080061
:103D500003E0FF208DF80F000CE09DF80E00029AA2
:103D6000042101F05DFC8DF80C009DF80C008DF82D
:103D70000F00FFE79DF90F0004B080BD00000000B8
:103D800080B584B08DF80E00029100218DF80310EB
:103D900040F2C010C2F20040006801900298007822
:103DA00000F01F029DF8040000F0E00010448DF8C0
:103DB0000400029802789DF8040002F0200200F04E
:103DC000DF0010448DF80400029802789DF804008A
:103DD00002F0400200F0BF0010448DF80400029889
:103DE00002789DF8050000F0FE0040EAD2108DF840
:103DF00005000298407800F003029DF8050000F0ED
:103E0000F90040EA42008DF80500029842789DF8DA
:103E1000050002F0040200F0EF0040EA82008DF895
:103E2000050002984078C0F3C0029DF8060000F03B
:103E3000FE0010448DF80600029843789DF80600B5
:103E4000022202EAD30200F0FD0010448DF80600C1
:103E5000029843789DF80600042202EAD30200F09B
:103E6000FB0010448DF80600029843789DF8060088
:103E7000082202EAD30200F0F70010448DF8060091
:103E8000029843789DF80600102202EAD30200F05F
:103E9000EF0010448DF80600029882789DF8070024
:103EA00000F00F0040EA02108DF807009DF80E00A8
:103EB000019A01F0B5FB8DF803009DF8030020B1D5
:103EC000FFE7FF208DF80F0004E09DF803008DF858
:103ED0000F00FFE79DF90F0004B080BD0000000057
:103EE00082B0019040F2C010C2F200400068009021
:103EF0009DF8000000F01F020199087800F0E00032
:103F0000104408709DF800200199087802F0200202
:103F100000F0DF00104408709DF800200199087837
:103F200002F0400200F0BF00104408709DF801202C
:103F30000199087800F07F0040EAC21008709DF8EF
:103F40000100C0F341020199487800F0FC001044E0
:103F500048709DF8013001994878042202EA9302E2
:103F600000F0FB00104448709DF8020000F00102D0
:103F70000199487800F0F70040EAC20048709DF8C7
:103F800002200199487802F0020200F0EF0040EAB6
:103F9000C20048709DF802200199487802F004029E
:103FA00000F0DF0040EAC20048709DF8022001994D
:103FB000487802F0080200F0BF0040EAC2004870F2
:103FC0009DF802200199487802F0100200F07F006D
:103FD00040EAC20048709DF803200199887800F0FB
:103FE000F00040EA12108870002002B07047000014
:103FF00081B08DF802009DF8020020B9FFE7002093
:104000008DF8030081E09DF80200012804DCFFE741
:1040100001208DF8030078E09DF80200022804DCFE
:10402000FFE702208DF803006FE09DF802000328EF
:1040300004DCFFE703208DF8030066E09DF8020032
:10404000042804DCFFE704208DF803005DE09DF800
:104050000200052804DCFFE705208DF8030054E08A
:104060009DF80200062804DCFFE706208DF8030017
:104070004BE09DF80200072804DCFFE707208DF8DD
:10408000030042E09DF80200082804DCFFE7082056
:104090008DF8030039E09DF802000C2804DCFFE7EE
:1040A00009208DF8030030E09DF80200102804DCA0
:1040B000FFE70A208DF8030027E09DF8020014288E
:1040C00004DCFFE70B208DF803001EE09DF80200E2
:1040D000182804DCFFE70C208DF8030015E09DF89C
:1040E0000200202804DCFFE70D208DF803000CE01F
:1040F0009DF80200302804DCFFE70E208DF8030055
:1041000003E00F208DF80300FFE79DF8030001B0E6
:10411000704700000000000083B08DF80B00002005
:1041200001909DF80B00082804DCFFE79DF80B00C8
:10413000019024E09DF80B00093801460091062803
:104140001BD80099DFE801F004070A0D10131600D0
:104150000C20019012E0102001900FE0142001903B
:104160000CE01820019009E02020019006E03020AA
:10417000019003E04020019000E0FFE7FFE7019895
:1041800003B070470000000080B582B08DF80600D3
:1041900000208DF805008DF804009DF8060040F61B
:1041A0000C6101AA00F0E8FA8DF805009DF8050001
:1041B00020B1FFE7FF208DF807001BE09DF8040009
:1041C00040F001008DF804009DF806009DF80420E1
:1041D00040F60C6101F058F98DF805009DF80500D6
:1041E00020B1FFE7FE208DF8070003E000208DF8E6
:1041F0000700FFE79DF9070002B080BD0000000046
:1042000080B584B08DF80E008DF80D1000208DF86B
:1042100003009DF80D0000F5E870ADF80A009DF868
:104220000E00BDF80A1001AA00F0A6FA8DF80300EE
:104230009DF8030020B1FFE7FF208DF80F001CE080
:104240009DF8040040F080008DF804009DF80E00F9
:10425000BDF80A109DF8042001F016F98DF803004E
:104260009DF8030020B1FFE7FE208DF80F0004E069
:104270009DF803008DF80F00FFE79DF90F0004B0D3
:1042800080BD00000000000080B586B08DF81700EA
:104290008DF81610049200208DF807000290049803
:1042A000006802909DF816104FF4FA7000EBC10000
:1042B000ADF80E009DF81700BDF80E10029A01F03F
:1042C000AFF98DF807009DF9070006B080BD00002A
:1042D00080B586B08DF817008DF816100492002076
:1042E0008DF8070002900498006802909DF816105F
:1042F0004FF4F87000EBC100ADF80E009DF8170008
:10430000BDF80E10029A01F08BF98DF807009DF9A7
:10431000070006B080BD000080B584B08DF80F00A6
:104320008DF80E108DF80D208DF80C3000208DF8D2
:1043300003009DF80C00C00738B1FFE79DF80400AA
:1043400040F080008DF8040006E09DF8040000F0C5
:104350007F008DF80400FFE79DF80D109DF8040024
:1043600001F01F0100F0E00008448DF804009DF802
:104370000E0000F5E870ADF80A009DF80F00BDF8DA
:104380000A109DF8042001F07FF88DF803009DF9D4
:10439000030004B080BD000080B584B08DF80E002D
:1043A0008DF80D108DF80C2000208DF80B00ADF865
:1043B000080040F60761ADF8081001909DF80E0066
:1043C000BDF8081001AA033200F0D6F98DF80B00F1
:1043D0009DF80B0020B1FFE7FF208DF80F002DE0C6
:1043E0009DF80D109DF8070001F0010100F0FE009E
:1043F00008448DF807009DF80C109DF8070001F0A7
:10440000010100F0FD0040EA41008DF807009DF831
:104410000E00BDF808109DF8072001F035F88DF862
:104420000B009DF80B0020B1FFE7FE208DF80F0078
:1044300004E09DF80B008DF80F00FFE79DF90F00D9
:1044400004B080BD0000000080B584B08DF80E007F
:10445000ADF80C1000208DF80B00ADF808001E21FF
:10446000ADF80810ADF804009DF80E00BDF8081076
:1044700001AA00F019FA8DF80B009DF80B0020B18D
:10448000FFE7FF208DF80F001FE0BDF80C0020F0C3
:10449000E001BDF804000843ADF804009DF80E00EB
:1044A000BDF80810BDF8042001F06EF88DF80B007F
:1044B0009DF80B0020B1FFE7FE208DF80F0004E00F
:1044C0009DF80B008DF80F00FFE79DF90F0004B079
:1044D00080BD00000000000080B584B08DF80E00A3
:1044E000029100208DF80700ADF804008DF803005C
:1044F0001B20ADF804009DF80E00BDF804100DF16E
:10450000030200F039F98DF807009DF8070020B18B
:10451000FFE7FF208DF80F0017E09DF8030020282B
:1045200005DBFFE79DF80300402805D1FFE79DF874
:1045300003000299087003E0029941200870FFE728
:104540009DF807008DF80F00FFE79DF90F0004B0FC
:1045500080BD00000000000080B582B08DF806002C
:104560008DF8051000208DF804008DF803009DF8EB
:104570000600032101AA00F0FFF88DF803009DF862
:10458000030020B1FFE7FF208DF8070022E09DF82F
:10459000040000F0F8008DF804009DF805109DF867
:1045A000040008438DF804009DF806009DF80420DF
:1045B000032100F069FF8DF803009DF8030020B18E
:1045C000FFE7FE208DF8070004E09DF803008DF85A
:1045D0000700FFE79DF9070002B080BD0000000062
:1045E00082B0019040F2AC20C2F20040006800901E
:1045F0009DF8000000F001020199087800F0FE002B
:10460000104408709DF8003001990878022202EAEF
:10461000530200F0FD00104408709DF8003001992D
:104620000878042202EA930200F0FB0010440870AC
:104630009DF8003001990878182202EA930200F0F0
:10464000E70010440870002002B07047000000002E
:1046500080B584B003918DF80B0000208DF80A001E
:1046600001909DF80C0000F001019DF8040000F09D
:10467000FE0008448DF804009DF80C109DF804001D
:1046800001F0020100F0FB0040EA41008DF8040057
:104690009DF80C109DF8040001F0040100F0EF00FB
:1046A00040EA81008DF804009DF80C109DF804008C
:1046B00001F0180100F09F0040EA81008DF804002D
:1046C0009DF80B009DF804204FF4606100F0DCFEC3
:1046D0008DF80A009DF90A0004B080BD00000000BA
:1046E00080B59CB08DF86E008DF86D1000208DF8AF
:1046F00007000290FFE702985F280BD8FFE79DF8BC
:104700006D00029A0DF10D018854FFE70298013007
:104710000290F0E74FF48060ADF8040000200290B2
:10472000FFE7029814281DD8FFE79DF86E00BDF83A
:1047300004100DF10D02602300F0D6FE8DF8070085
:104740009DF8070020B1FFE7FF208DF86F000EE015
:10475000BDF804006030ADF80400FFE702980130B6
:104760000290DEE79DF807008DF86F00FFE79DF9E6
:104770006F001CB080BD000080B584B08DF80F00C4
:10478000ADF80C1002920321ADF8061000208DF850
:1047900005009DF80D2061F31F1241F6B041C2F2F1
:1047A00000410A70BDF80C204A7088709DF80F0017
:1047B000BDF8063041F65042C2F20042009201F0CC
:1047C0006FF8014600988DF80510807802990870FE
:1047D0009DF9050004B080BD80B584B08DF80F0050
:1047E000ADF80C100292ADF80630BDF806000230AC
:1047F000ADF8020000208DF801009DF80D000321A6
:1048000061F31F1041F6B041C2F200410870BDF8DB
:104810000C0048700220ADF80400FFE7BDF804006A
:10482000BDF8021088420FDAFFE7BDF8042041F618
:10483000B041C2F2004100208854FFE7BDF80400F7
:104840000130ADF80400E9E79DF80F00BDF8023033
:1048500041F6B041C2F2004141F65042C2F200427C
:1048600001F01EF88DF801000020ADF80400FFE70C
:10487000BDF80400BDF80610884211DAFFE7BDF864
:10488000042041F65040C2F2004010448078029962
:104890008854FFE7BDF804000130ADF80400E7E7F5
:1048A0009DF9010004B080BD80B586B08DF816007A
:1048B000ADF8141004920420ADF8060000208DF825
:1048C00005009DF81500032161F31F1041F6B0416A
:1048D000C2F200410870BDF8140048709DF816003F
:1048E000BDF8063041F65042C2F2004200F0D8FF57
:1048F0008DF805009DF8050028B1FFE79DF805003B
:104900008DF817002CE004990020088002208DF813
:104910000F00FFE79DF80F0003281CDCFFE79DF860
:104920000F1041F65040C2F20040405C02900298E5
:104930009DF80F206FF00F0101EBC20100FA01F2A8
:104940000499088810440880FFE79DF80F000130A3
:104950008DF80F00DEE79DF805008DF81700FFE7E2
:104960009DF9170006B080BD80B586B08DF81600A1
:10497000ADF8141004920620ADF8060000208DF862
:1049800005009DF81500032161F31F1041F6B041A9
:10499000C2F200410870BDF8140048709DF816007E
:1049A000BDF8063041F65042C2F2004200F078FFF6
:1049B0008DF805009DF8050028B1FFE79DF805007A
:1049C0008DF817002CE004990020086002208DF873
:1049D0000F00FFE79DF80F0005281CDCFFE79DF89E
:1049E0000F1041F65040C2F20040405C0290029825
:1049F0009DF80F206FF00F0101EBC20100FA01F2E8
:104A00000499086810440860FFE79DF80F00013022
:104A10008DF80F00DEE79DF805008DF81700FFE721
:104A20009DF9170006B080BD80B586B08DF81600E0
:104A3000ADF814100492ADF80E30BDF80E008000F1
:104A40000230ADF8020000208DF801009DF815003D
:104A5000032161F31F1041F6B041C2F2004108701A
:104A6000BDF8140048700220ADF80C00FFE7BDF857
:104A70000C00BDF8021088420FDAFFE7BDF80C20E9
:104A800041F6B041C2F2004100208854FFE7BDF872
:104A90000C000130ADF80C00E9E79DF81600BDF8F8
:104AA000023041F6B041C2F2004141F65042C2F23A
:104AB000004200F0F5FE8DF801009DF8010028B1DC
:104AC000FFE79DF801008DF8170040E00220ADF8E7
:104AD00008000020ADF80C00FFE7BDF80C00BDF8A1
:104AE0000E1088422EDAFFE700200190ADF80A0090
:104AF000FFE7BDF80A00032817DCFFE7BDF8081040
:104B000041F65040C2F20040405CBDF80A2001A9C5
:104B10008854FFE7BDF80A000130ADF80A00BDF87F
:104B200008000130ADF80800E3E701980499BDF8EA
:104B30000C2041F82200FFE7BDF80C000130ADF871
:104B40000C00CAE79DF801008DF81700FFE79DF9FA
:104B5000170006B080BD000080B584B08DF80E004F
:104B60008DF80D10029200208DF80700ADF80400BA
:104B70009DF80D0020B9FFE79C208DF80F0051E053
:104B800040F2C010C2F20040C06C00909DF80000DE
:104B900000F07F008DF8000002980088C0F3440206
:104BA000BDF801109DF803304FF4600000EA0340A7
:104BB00040EA0240ADF80110000C8DF803000298A5
:104BC00001889DF80320BDF8010040EA02408909F0
:104BD00061F35F50ADF80100000C8DF803000298FE
:104BE000007800F001019DF8000000F0DF0040EACD
:104BF00041108DF800009DF80D0000EB40015020A1
:104C000000EB8100ADF804009DF80E00BDF8041023
:104C1000009A00F005FD8DF807009DF807008DF85B
:104C20000F00FFE79DF90F0004B080BD00000000F9
:104C300082B0019040F2C010C2F20040C06C0090FF
:104C40009DF80300019900F01F02088820F03E0043
:104C500040EA420008809DF80330019908886FF00F
:104C60003E0202EA430220F4E070104408809DF8FE
:104C7000000042090199088862F3000008800020C2
:104C800002B070470000000080B584B08DF80E00BF
:104C90008DF80D108DF80C2000208DF80B00ADF86C
:104CA00008009DF80D0020B9FFE79C208DF80F004B
:104CB0003BE09DF80D0000EB4001502000EB81002F
:104CC000ADF80800002001909DF80E00BDF8081016
:104CD00001AAFFF751FD8DF80B009DF80B0020B1E4
:104CE000FFE7FF208DF80F001FE09DF80C0000F09B
:104CF0000F019DF8040008438DF804009DF80E0094
:104D0000BDF808109DF8042000F0BEFB8DF80B00E4
:104D10009DF80B0020B1FFE7FE208DF80F0004E0A6
:104D20009DF80B008DF80F00FFE79DF90F0004B010
:104D300080BD00000000000080B584B08DF80F0039
:104D40008DF80E100020ADF80C008DF807000290D1
:104D50009DF80E0000EB4001512000EB8100ADF802
:104D60000C00BDF8090040F00100ADF809009DF805
:104D70000F00BDF80C109DF8092000F085FB8DF8A0
:104D800007009DF9070004B080BD0000000000008E
:104D900080B584B08DF80F00029100208DF80700D7
:104DA0009DF80F00029A2021FFF7DEFD8DF8070025
:104DB0009DF9070004B080BD80B5A0B0844622985C
:104DC0008DF87EC08DF87D101E921D938DF87300B6
:104DD00000208DF872008DF871008DF853009DF859
:104DE0007D0000EB4001502000EB8100ADF86E002B
:104DF0009DF87E00BDF86E1018AA0323FFF714FE7D
:104E00008DF853009DF8530020B1FFE7FF208DF887
:104E10007F00E2E0189817909DF85C100020B0EB3E
:104E2000D11F04D0FFE7FE208DF87F00D5E0199850
:104E300016901A98159015986FF31F30ADF86E0004
:104E4000BDF86E0000F58060ADF86E009DF873004F
:104E500008308DF872009DF85C004009C00730B141
:104E6000FFE79DF8720004308DF87200FFE79DF8AF
:104E70007200800740B1FFE79DF8720000F0FC006F
:104E800004308DF87200FFE79DF872004D2804DBB6
:104E9000FFE74C208DF87200FFE79DF87E00BDF81B
:104EA0006E109DF872300DF10702FFF795FC8DF83A
:104EB00053009DF8530020B1FFE7FD208DF87F00DF
:104EC0008BE09DF807008DF800009DF808008DF834
:104ED00001009DF809008DF802009DF80A008DF888
:104EE000030000981E9908609DF80B008DF80000E3
:104EF0009DF80C008DF801009DF80D008DF8020062
:104F00009DF80E008DF8030000981E9948609DF8EA
:104F10005C004009C00770B3FFE79DF80F008DF8F3
:104F200000009DF810008DF801009DF811008DF82B
:104F300002009DF812008DF8030000981E99886009
:104F400000208DF87100FFE79DF871009DF8731047
:104F500088420FDAFFE79DF871200DF10700104439
:104F6000007B1D998854FFE79DF8710001308DF892
:104F70007100E9E71CE01E99002088608DF871003F
:104F8000FFE79DF871009DF8731088420FDAFFE784
:104F90009DF871200DF107001044007A1D99885486
:104FA000FFE79DF8710001308DF87100E9E7FFE738
:104FB0009DF87E009DF87D10FFF7BEFE8DF8530032
:104FC0009DF8530020B1FFE7FC208DF87F0004E03E
:104FD0009DF853008DF87F00FFE79DF97F0020B01A
:104FE00080BD00000000000080B582B08DF8070091
:104FF0000220ADF8040000208DF8030041F6B04116
:10500000C2F20041087048709DF80700BDF80430F6
:1050100041F65042C2F2004200F042FC8DF803001B
:105020009DF9030002B080BD80B584B08DF80F00FB
:105030008DF80E10029200208DF80700ADF80400E4
:1050400040F2C010C2F20040C06C00909DF8000019
:1050500040F080008DF800000298407800F01F01B9
:105060009DF8030000F0E00008448DF8030002986A
:1050700041789DF8030001F0E00100F01F000844B2
:105080008DF80300029802789DF80200602101EA81
:10509000520100F09F0008448DF802000298007849
:1050A000C0F344019DF8020000F0E00008448DF8D0
:1050B00002000298007800F001019DF8000000F065
:1050C000BF0040EA81108DF800009DF80E0000EB53
:1050D0004001502000EB8100ADF804009DF80F0066
:1050E000BDF80410009A00F09BFA8DF807009DF9B6
:1050F000070004B080BD000082B0019040F2C010F3
:10510000C2F20040C06C00909DF80000C0F3801215
:105110000199087800F0FE00104408709DF8020024
:1051200000F01F020199087800F0C10040EA420037
:1051300008709DF802200199087802F0600200F0E2
:105140003F0040EA420008709DF8030000F01F0293
:105150000199487800F0E000104448709DF8032061
:105160000199487802F0E00200F01F0010444870F6
:10517000002002B07047000080B584B08DF80E00AA
:105180008DF80D108DF80C2000208DF80B00ADF877
:1051900008009DF80D1001EB4102502101EB820146
:1051A000ADF8081001909DF80E00BDF8081001AA96
:1051B000FFF7E2FA8DF80B009DF80B0020B1FFE736
:1051C000FF208DF80F001FE09DF80C0000F0170184
:1051D0009DF8040008438DF804009DF80E00BDF80A
:1051E00008109DF8042000F04FF98DF80B009DF891
:1051F0000B0020B1FFE7FE208DF80F0004E09DF8C2
:105200000B008DF80F00FFE79DF90F0004B080BD83
:1052100080B5A0B084462398DDF888E08DF87EC084
:105220008DF87D101E921D938DF8730000208DF86F
:1052300053009DF87D0000EB4001502000EB810001
:10524000ADF870009DF87E00BDF8701019AA032318
:10525000FFF7EAFB8DF853009DF8530020B1FFE7FC
:10526000FF208DF87F00C7E0199817909DF85C101B
:105270000020B0EBD11F04D1FFE7FE208DF87F00A6
:10528000BAE01E98007900F00F00FEF745FF189075
:1052900018982299884204D2FFE7FD208DF87F00FC
:1052A000AAE01A9816901B98159015986FF31F3066
:1052B000ADF87000BDF8700000F58060ADF87000CA
:1052C0001E9800788DF807001E9840788DF8080029
:1052D0001E9880788DF809001E98C0788DF80A0015
:1052E0001E9800798DF80B001E9840798DF80C00FF
:1052F0001E9880798DF80D001E98C0798DF80E00EB
:1053000000208DF80600FFE79DF8060022998842EC
:105310000FD2FFE71D989DF80610405C0DF10702C3
:1053200011440872FFE79DF8060001308DF8060071
:10533000EAE70020ADF804008DF803009DF888002E
:10534000800740B3FFE7229800F00300C0F104009B
:10535000ADF80400229808308DF8060000208DF882
:105360000300FFE79DF80300BDF80410884211DA3E
:10537000FFE79DF806009DF8031008440DF10701B2
:10538000014400200872FFE79DF8030001308DF80A
:105390000300E7E7FFE79DF87E00BDF87010229A52
:1053A000BDF804301A44083293B20DF1070200F040
:1053B0009BF88DF853009DF8530020B1FFE7FC20C7
:1053C0008DF87F0018E09DF87E009DF87D109DF817
:1053D000732002F0010200F013F88DF853009DF8DD
:1053E000530020B1FFE7FB208DF87F0004E09DF81B
:1053F00053008DF87F00FFE79DF97F0020B080BD4E
:1054000080B584B08DF80E008DF80D108DF80C204D
:1054100000208DF803009DF80D1001EB4102512191
:1054200001EB8201ADF80A1001909DF8050040F0F3
:1054300001008DF805009DF80C00C00738B1FFE7AA
:105440009DF8050040F002008DF80500FFE79DF88B
:105450000E00BDF80A109DF8052000F015F88DF833
:1054600003009DF8030020B1FFE7FF208DF80F0037
:1054700004E09DF803008DF80F00FFE79DF90F0091
:1054800004B080BD0000000080B584B08DF80F002E
:10549000ADF80C108DF80B200320ADF808000020AB
:1054A0008DF807009DF80D00022161F31F1041F6F1
:1054B000B041C2F200410870BDF80C0048709DF880
:1054C0000B0088709DF80F00BDF8083041F650427F
:1054D000C2F2004200F0E4F98DF807009DF90700E0
:1054E00004B080BD0000000080B584B08DF80F00CE
:1054F000ADF80C100292ADF80630BDF8060002308F
:10550000ADF8020000208DF801009DF80D1002207A
:1055100060F31F1141F6B042C2F200421170BDF8B3
:105520000C105170ADF80400FFE7BDF80400BDF8A1
:105530000210884212DAFFE70298BDF804201044F6
:1055400010F8020C41F6B041C2F200418854FFE766
:10555000BDF804000130ADF80400E6E79DF80F0047
:10556000BDF8023041F6B041C2F2004141F650426E
:10557000C2F2004200F094F98DF801009DF901009B
:1055800004B080BD0000000080B584B08DF80F002D
:10559000ADF80C10ADF80A200420ADF8060000208C
:1055A0008DF805009DF80D10022262F31F1141F6DF
:1055B000B042C2F200421170BDF80C1051708DF86B
:1055C0000900FFE79DF80900012813DCFFE7BDF89B
:1055D0000A009DF80910CA00D04041F6B042C2F25C
:1055E000004211448870FFE79DF8090001308DF8F2
:1055F0000900E7E79DF80F00BDF8063041F6B0411D
:10560000C2F2004141F65042C2F2004200F048F9B5
:105610008DF805009DF9050004B080BD0000000074
:1056200080B584B08DF80F00ADF80C100292062002
:10563000ADF8040000208DF803009DF80D10022243
:1056400062F31F1141F6B042C2F200421170BDF880
:105650000C1051708DF80700FFE79DF80700032834
:1056600012DCFFE702989DF80710CA00D04041F60F
:10567000B042C2F2004211448870FFE79DF8070073
:1056800001308DF80700E8E79DF80F00BDF8043001
:1056900041F6B041C2F2004141F65042C2F200422E
:1056A00000F0FEF88DF803009DF9030004B080BD02
:1056B00080B582B08DF807008DF8061000208DF8B7
:1056C00005009DF80700C0B9FFE79DF80600C00778
:1056D00048B1FFE741F20040C5F602004021002238
:1056E00006F032FF08E041F20040C5F6020040211A
:1056F000012206F029FFFFE703E0FF208DF80500F7
:10570000FFE79DF9050002B080BD00000000000029
:1057100080B58CB08DF82F008DF82E108DF82D20CF
:1057200000200490FFF760FC0498FEF72DFD04981C
:10573000FF21FEF7D5FF0AA8FEF752FF04989DF857
:10574000281041F018018DF828100A99FEF780FF03
:10575000049A10461146FEF71FFE09A80090FEF7B6
:10576000BFFB009904989DF8242042F020028DF898
:1057700024209DF8252002F0BF028DF825209DF8F9
:10578000252002F07F028DF825209DF8252002F0CB
:10579000FB028DF82520FEF7F3FA049B9DF82F10ED
:1057A00002221846FDF738FA08A80190FFF7A4FC7A
:1057B000019A04989DF8211001F0E00107318DF85D
:1057C00021109DF8211041F0E0018DF821109DF885
:1057D000201001F0C1018DF820109DF82E10FFF768
:1057E00023FC04989DF82E100422FFF7C5FC07A89F
:1057F0000290FFF71DFA029A0498BDF81C1041F0C0
:105800001E0121F02001ADF81C10BDF81C1041F460
:10581000E071ADF81C10BDF81C1021F00101ADF8CD
:105820001C109DF82D10FFF797F904989DF82D1086
:1058300001220392FFF728FA049906910591069830
:1058400040F2FF7290430690069820F08040069048
:1058500005986FF30A000590059820F080400590A8
:1058600006AA0846FEF734FD049905AA0846FEF785
:105870000BFD039B04999DF82D200846FEF74CFD77
:1058800004990846FEF7BCFC04990846FEF764FE3E
:10589000049843F60301FEF7D7FD0CB080BD00006D
:1058A00080B586B08DF8160004910392ADF80A30E9
:1058B00000208DF809009DF816000121FFF7F8FE81
:1058C0008DF809009DF9090028B1FFE79DF809004E
:1058D0008DF817001FE09DF8160078B9FFE70499CE
:1058E000039ABDF80A30EC460A20CCF8000040F6D6
:1058F0005060C2F2004009F0FBFF00E0FFE79DF8B6
:1059000016000021FFF7D4FE8DF809009DF809006C
:105910008DF81700FFE79DF9170006B080BD000065
:10592000704700000000000080B582B00190FFE7E2
:1059300011F042F80DF07CFCFBF796FEC82015F044
:10594000EFFAF5E70000000081B040F24861C2F2D2
:105950000041D1F8032041F27040C2F200400090B3
:105960008260D1F80B10C16001688268891A00EE6C
:10597000101AB8EEC00A80ED040A4268C168891A9C
:1059800000EE101AB8EEC00A80ED050A90ED040A88
:105990009FED381AB4EE410AF1EE10FA0DDDFFE783
:1059A00041F27040C2F2004090ED040A9FED341ABB
:1059B00030EE010A80ED040A1BE041F27040C2F2B1
:1059C000004090ED040A9FED2C1AB4EE410AF1EE6E
:1059D00010FA0DDAFFE741F27040C2F2004090ED9C
:1059E000040A9FED261A30EE010A80ED040AFFE753
:1059F000FFE741F27040C2F2004090ED050A9FEDD2
:105A00001D1AB4EE410AF1EE10FA0DDDFFE741F286
:105A10007040C2F2004090ED050A9FED191A30EE79
:105A2000010A80ED050A1BE041F27040C2F200401D
:105A300090ED050A9FED101AB4EE410AF1EE10FA4E
:105A40000DDAFFE741F27040C2F2004090ED050A26
:105A50009FED0A1A30EE010A80ED050AFFE7FFE725
:105A600041F27041C2F2004188680860C86848602D
:105A700001B0704700008047000080C70000004868
:105A8000000000C80000000080B582B040F2442051
:105A9000C2F2004090F9150070B9FFE74DF684702E
:105AA000C0F6010012F0BCFB06F066FD40F2442196
:105AB000C2F200418860FFE740F29260C2F200400B
:105AC00090F90000012810D1FFE706F055FD40F2E3
:105AD0004421C2F20041886040F29262C2F2004268
