:020000040800F2
:10000000D8240024E102000879C90008C9B1000819
:1000100059C60008A10E0008D90701080000000019
:1000200000000000000000000000000091EB00084C
:10003000012A000800000000F1DF0008B9F0000804
:10004000FB020008FB020008FB020008FB0200089C
:10005000FB020008FB020008FB020008FB0200088C
:10006000FB020008FB020008712C0008B112000816
:10007000C1120008D1120008E1120008F1120008B4
:100080000113000811130008FB02000811310008D9
:10009000313100082131000841310008792C000875
:1000A000FB020008FB020008FB020008FB0200083C
:1000B00071F2000881F2000891F20008FB020008CA
:1000C000FB020008FB020008FB020008FB0200081C
:1000D000FB020008A9070108B9070108C9070108C0
:1000E000692C0008FB02000800000000FB02000869
:1000F000FB020008FB020008FB02000821130008B5
:10010000FB020008FB020008FB020008FB020008DB
:1001100059F80008FB020008FB020008FB02000877
:100120003113000841130008FB020008FB0200081D
:10013000FB020008FB020008FB020008FB020008AB
:1001400000000000000000000000000000000000AF
:10015000FB020008FB020008FB020008FB0200088B
:10016000FB020008FB020008FB020008FB0200087B
:10017000FB020008FB020008FB0200080000000070
:10018000FB020008FB020008FB020008FB0200085B
:1001900089EA0008FB020008FB020008FB020008D5
:1001A000FB020008FB020008FB0200080000000040
:1001B000FB020008FB020008FB020008FB0200082B
:1001C000FB020008FB020008000000000000000025
:1001D0000000000000000000FB020008000000001A
:1001E000000000000000000000000000000000000F
:1001F0000000000000000000FB020008FB020008F5
:10020000FB020008FB02000800000000FB020008DF
:10021000FB020008FB020008FB020008FB020008CA
:10022000FB02000800000000FB02000800000000C4
:10023000FB020008FB02000800000000FB020008AF
:10024000FB020008FB020008FB020008FB0200089A
:10025000FB020008FB020008FB020008FB0200088A
:10026000FB020008FB020008FB020008FB0200087A
:10027000FB020008FB020008FB020008000000006F
:10028000FB020008FB020008FB020008FB0200085A
:1002900000000000FB020008FB0200080000000054
:1002A00000000000FB020008FB020008FB0200083F
:1002B000FB020008FB020008FB02000851310008A5
:1002C0006131000861F20008FB020008DFF80CD081
:1002D00000F0AEF90048004719190108D82400249D
:1002E0000648804706480047FEE7FEE7FEE7FEE7D0
:1002F000FEE7FEE7FEE7FEE7FEE7FEE7B1F10008F6
:10030000CD0200082DE9F05F0546002092469B468D
:1003100088460646814640241BE02846414647461B
:10032000224600F0E1F853465A46C01A914110D3D4
:1003300011461846224600F0C8F82D1A67EB01084E
:100340004F4622460120002100F0BFF817EB0009BC
:100350004E41201EA4F10104DFDC484631462A4606
:100360004346BDE8F09F40EA01039B0703D009E044
:1003700008C9121F08C0042AFAD203E011F8013B91
:1003800000F8013B521EF9D27047D2B201E000F8EA
:10039000012B491EFBD270470022F6E710B5134629
:1003A0000A4604461946FFF7F0FF204610BD421CDE
:1003B00010F8011B0029FBD1801A704710B50022EC
:1003C00000E0521C835C8C5CA34201D1002BF8D16D
:1003D000D8B2E1B2401A10BD034611F8012B00F863
:1003E000012B002AF9D118467047F0B4CA17CB0F79
:1003F00050405140C61841F100054FEAC3723146E2
:1004000028004FF0960303D0B623F0BC00F085B867
:1004100030460021F9E73EB5CA17CB0F0024504003
:100420005140C0186141DA0740F233430094CDE9EE
:1004300001232246234600F0ADF803B030BD10B5CD
:1004400000F0004420F00040C20DC0F3160040F45C
:1004500000007F2A02DA0020014610BD0021962A02
:1004600003DCC2F19602D04002E0963A00F02DF88B
:10047000002CF2D00023D0EB030063EB010110BD90
:1004800070B5C1F30A5201F000450024C1F3130115
:1004900040F2FF3341F480119A4202DA0020014613
:1004A00070BD40F233439A42A2F2334203DC52421F
:1004B00000F01AF801E000F008F82C43F0D0002317
:1004C000D0EB030063EB010170BD202A04DB203A6E
:1004D00000FA02F1002070479140C2F1200320FA97
:1004E00003F3194390407047202A04DB203A21FA95
:1004F00002F00021704721FA02F3D040C2F120023D
:1005000091400843194670470029A8BF7047401C16
:10051000490008BF20F00100704710B4B0FA80FC19
:1005200000FA0CF050EA010404BF10BC704749B156
:10053000CCF1200421FA04F411FA0CF118BF0121C6
:1005400021430843A3EB0C01CB1D4FEA00614FEAA6
:10055000102042BF002010BC704700EBC350104475
:100560000029A4BF10BC7047401C490008BF20F000
:10057000010010BC704710B5141E73F1000408DAB6
:10058000401C41F1000192185B411A4301D120F057
:10059000010010BD2DE9F04D92469B4611B1B1FA14
:1005A00081F202E0B0FA80F220329046FFF78DFF30
:1005B00004460F4640EA0A0041EA0B0153465A46F8
:1005C000084313D0114653EA010019D0C8F1400284
:1005D0005046FFF789FF05460E46504659464246AB
:1005E000FFF773FF084305D0012004E02046394699
:1005F000BDE8F08D0020054346EAE0762C43374302
:100600000A986305E40AA0EB08000022FD0A44EA08
:1006100047540A3002D500200146E9E701051019C8
:100620006941DDE9084500196941BDE8F04DA2E7DF
:100630001CB509480090094801900546009C06E059
:10064000E06840F0010394E8070098471034AC429A
:10065000F6D3FFF73FFE0000543A0108843A010840
:1006600070B58C1810F8015B15F0070301D110F874
:10067000013B2A1106D110F8012B03E010F8016BA1
:1006800001F8016B5B1EF9D12B0705D40023521E24
:100690000DD401F8013BFAE710F8013BCB1A921C8C
:1006A00003E013F8015B01F8015B521EF9D5A1428A
:1006B000D8D3002070BD000070B540F2F05440F275
:1006C0008805C2F20044C2F20045607B022809D0CE
:1006D000012803D098BB02F0A3F930E002F018FA29
:1006E0002DE000BF41F664462868C2F20046306043
:1006F00068687060A868B0600DF0AEFC96ED000A06
:1007000096ED011A96ED032A96ED043A32EE400A70
:1007100033EE411AB7EEC00AB7EEC11A12F050FB21
:100720009FED111BB4EE410BF1EE10FA07DA012038
:10073000207043F63D20C0F601000EF099FA95F8BE
:10074000200001281CBFE078012803D02078012870
:1007500018BF70BD40F2BC610020C2F20041288485
:1007600060802070087070BD0000000000407F4075
:1007700040F25C1041F66441C2F20040C2F2004116
:1007800090ED150A91ED161A20EE012A90ED160A49
:1007900091ED181A40F22C21C2F20041A0EE012A7C
:1007A000B7EE001A91ED050A91ED0B3A33EE400ACF
:1007B00080ED190AB4EE412A90ED0C1AF1EE10FA10
:1007C00002DAB7EE002B0BE0B1EE003AB4EE432AAA
:1007D000F1EE10FA02DDB1EE002B01E0B7EEC22A15
:1007E000B0EEC04A90ED125A90ED113AB7EEC37ACE
:1007F00084FE456AB4EE443AF1EE10FA75EE430A0F
:1008000033FE066AB4EE434A9FED1E3AF1EE10FA4B
:10081000B7EEC66A36EE476BB7EEE07A86EE076B48
:1008200026EE066B26EE022BB7EEC22B80ED182AC1
:1008300015DDB4EE454AF1EE10FA10DA90ED0D3AFE
:1008400090ED1A4AA3EE004A90ED135AB1EE453AE4
:10085000B4EE434AF1EE10FA01DB84FE453A20EE95
:10086000010A80ED1A3AA2EE003A90ED140AB1EEB8
:10087000401A83FE400AB4EE431AF1EE10FA31FE3C
:10088000000A704700000000F0B581B02DED088B24
:1008900040F2F254C2F200442078012800F098801F
:1008A00040F25C15C2F20045D5ED070A95ED080A45
:1008B00012F0D6F89FED488A95ED031A20EE080A4B
:1008C0009FED469AB1EE411A80EE090AB4EE410A54
:1008D000F1EE10FA1ADBD5ED070A95ED080A12F0D1
:1008E000BFF820EE080A95ED031A80EE090AB4EE6F
:1008F000410AF1EE10FA09DCD5ED070A95ED080A78
:1009000012F0AEF820EE080A80EE091A21EE090A6C
:1009100041F6A456C2F2004640F22C27C2F200472C
:1009200080EE080A96ED102AB7EEC2AA95ED012ACC
:10093000B7EEC2BA87ED081AB7EEC00A12F0E8F9AE
:10094000ABEE40AB97ED081A96ED110A21EE091AAD
:1009500081EE081AB7EEC08A95ED010AB7EEC09A8B
:10096000B7EEC10AB7EECA1B87ED061A12F074FB88
:10097000A9EE408B002095ED021A97ED082A31EE82
:10098000021A96ED1A4AB7EEC80B786187ED070A8E
:1009900097ED062A96ED193A87ED081A96ED1B5A3F
:1009A00030EE440A32EE432A87ED0A0A31EE450A58
:1009B00087F86C00C7E90300C7E91500C7E917000D
:1009C000C7E9190087ED092A012087ED0B0A20707D
:1009D000BDEC088B01B0F0BD00003443DA0F494094
:1009E00010B541F6A45040F25C14C2F20040C2F2CD
:1009F000004490ED100A90ED111A90ED192A90ED37
:100A00001A3A70EE420A31EE430AC4ED070A84ED49
:100A1000080A12F025F894ED071A94ED083AB7EE9B
:100A2000C12A84ED0A0AB7EEC31AB0EE420B12F0E7
:100A3000C7F9B7EEC00B84ED090A10BD0000000035
:100A400010B52DED088B40F22C24C2F2004494ED39
:100A5000030A94ED041A94ED092A94ED0A3A32EE51
:100A6000408A33EE419AB7EEC8BAB7EEC9AAB0EEE3
:100A70004B0BB0EE4A1B12F0A3F9B7EEC01B94ED7E
:100A80000F2A94ED103AB0EECB7BB0EEC10A84EDA4
:100A9000161A94ED111A94ED0C5A28EE056A80FE90
:100AA000424AB4EE403AF1EE10FA32EE432A33FEF7
:100AB000040AB7EEC34AB7EEC22AB7EEC00AB7EED1
:100AC000C13A94ED121AB7EEC11A30EE440BB4EEEF
:100AD000437BF1EE10FA80EE020B9FEDA62AB0EEFA
:100AE000424A20EE000BB7EEC00B84ED150A20DB66
:100AF000B4EE437B94ED0E4A28EE044ADFED9D0AE6
:100B0000F1EE10FAB4EE471B94ED137A34FE204A4E
:100B1000F1EE10FA34FE204AD4ED170A74EE200AE2
:100B2000B1EE474AF4EE440AF1EE10FA01DB80FE22
:100B3000C74AB0EECA7B84ED174AA0EE064A29EEFA
:100B4000055AB4EE437BF1EE10FA84ED194A20DB2E
:100B5000B4EE437B94ED0E2A29EE022A9FED853AEE
:100B6000F1EE10FAB4EE471B94ED131A32FE032A8D
:100B7000F1EE10FA32FE032A94ED183A33EE023AFF
:100B8000B1EE412AB4EE423AF1EE10FA01DB83FEF7
:100B9000412A84ED182AA0EE052AB7EEC40A84ED96
:100BA0001A2AB7EEC21A12F00BF994ED141AB1EE2C
:100BB00041AAB7EECA1AB4EE410BF1EE10FA1EDBF1
:100BC00094ED190A94ED1A1AB7EEC00AB7EEC11ADD
:100BD00012F0F6F894ED14AAB7EECA1AB4EE410B6F
:100BE000F1EE10FA0BDC94ED190A94ED1A1AB7EE37
:100BF000C00AB7EEC11A12F0E3F8B7EEC0ABB0EE20
:100C0000490AF0EE480A11F02BFF41F6A4509FED7F
:100C10005A2AC2F2004090ED1B1A21EE021A9FEDF3
:100C2000572A81EE021A30EE010AB7EEC09AB0EEF2
:100C3000490B12F011FAB0EE408BB0EE490B12F0F6
:100C400067F840F25C1041F66441C2F20040C2F223
:100C5000004194ED0B4A90ED151A91ED162A21EE04
:100C6000023A91ED181A90ED162AA2EE013AB7EE6B
:100C7000002A94ED051A34EE411A80ED191AB4EEEB
:100C8000423A90ED0C2AF1EE10FA03DAB7EE003B8F
:100C90000CE000BFB1EE004AB4EE443AF1EE10FAB7
:100CA00002DDB1EE003B01E0B7EEC33AB0EEC15A4F
:100CB00090ED126A90ED114AB7EEC49A85FE467A1D
:100CC000B4EE454AF1EE10FA76EE441A34FE077A95
:100CD000B4EE445A9FED274AF1EE10FAB7EEC77A08
:100CE00037EE497BB7EEE19A87EE097B27EE077B6B
:100CF00023EE073BB7EEC33B80ED183A15DDB4EEAB
:100D0000465AF1EE10FA10DA90ED0D4A90ED1A5AAB
:100D1000A4EE015A90ED136AB1EE464AB4EE445A7D
:100D2000F1EE10FA01DB85FE464AB7EECA5A80EDB5
:100D30001A4A21EE021A20EE050BA3EE014A28EE14
:100D4000052BF7EEC00B90ED140AB1EE401A84FEAD
:100D5000403AB7EEC20BB4EE441AF1EE10FA31FE8F
:100D6000031A00F0F1F8BDEC088BBDE8104000F06C
:100D700007B800BF00000000DA0F49C0000034438C
:100D8000B0B540F22C2440F20065C2F20044C2F239
:100D9000004594ED030A94ED041A94ED092A94EDAC
:100DA0000A3A32EE400A33EE411A95E80700B7EEF0
:100DB000C00A6860B7EEC11AC5E9021212F000F865
:100DC000B7EEC00B40F25C10C2F2004095ED002A75
:100DD0009FED2D5B90ED191A95ED014AB0EEC11A09
:100DE00095ED023A85ED000AB7EEC11AB4EE451B47
:100DF00095ED031AF1EE10FA32DA0020B4EE404A13
:100E0000F1EE10FAB8BF0120B4EE402A0021F1EE55
:100E100010FAB8BF0130B4EE403AF1EE10FAB8BFA4
:100E20000130B4EE401A9FED1A1AF1EE10FAB8BF75
:100E3000013094ED160AC0B2B4EE410A02284FF018
:100E4000000088BF0120F1EE10FAB8BF012108426E
:100E500010D1B3EE041AB4EE410AF1EE10FA09DB38
:100E600094F86C00012818BFB0BD0AA0BDE8B040DE
:100E70000DF0FEBE012084F86C0006A0BDE8B04075
:100E80000DF0F6BE00BF00BF333333333333F33FCF
:100E90000000A0424261736B65744E656172000090
:100EA000FEE7000000000000B0B54AF2C40540F2C1
:100EB0009C24C4F20005C2F200442868800208D5D0
:100EC00041F634602168C2F20040FFF785FA0AF06B
:100ED000EBFCD5F80004800208D541F634602168A7
:100EE000C2F20040FFF778FA0AF032FD4DF2C4403A
:100EF000C4F200000068800258BFB0BD41F6346003
:100F00002168C2F20040FFF767FABDE8B0400AF07E
:100F100073BD00000000000040F2F551B128C2F29C
:100F2000004107D0B22818BF7047C81D01210170C9
:100F3000704700BF481C012101707047000000008D
:100F4000006800EE100A7047B0B52DED088BB7EEC3
:100F5000C02A40F2BC64B7EEC13AC2F20044B7EE18
:100F6000E01AB0EE428BC4ED010A9FEDA37BC4ED05
:100F7000100AB0EE425BA3EE078BB0EE417B9FED13
:100F80009A4B9FED9B6BA3EE045BA3EE467BB7EE03
:100F9000C50B84ED020AB7EEC75B84ED065AB7EEC7
:100FA000C87B84ED077AB0EE418B84ED0C7AA3EE1A
:100FB000442BA3EE068BB7EEC83B84ED0B3AB7EE9D
:100FC000C23BB7EEC02A84ED113AB0EE420B11F0ED
:100FD000F7FE94ED071A94ED063AB7EEC12AB7EE84
:100FE000C00BB7EEC31A84ED030AB0EE420B11F04A
:100FF000E7FE94ED0C1A94ED0B3AB7EEC12AB7EE6A
:10100000C00BB7EEC31A84ED080AB0EE420B11F024
:10101000D7FE94ED111A94ED103AB7EEC12AB7EE4F
:10102000C00BB7EEC31A84ED0D0AB0EE420B11F0FF
:10103000C7FEB7EEC00B84ED120AD4ED010A94EDA1
:10104000020A11F00DFD9FED728A94ED161A20EE42
:10105000080A9FED70AA9FED6ABB012580EE0A0A7F
:101060009FED699B31EE401AB0EE402AB7EEC11AEF
:1010700031EE0B1B81EE091BBFFEC11BB8EEC11A7E
:10108000A1EE082A32EE400AB0EEC00AB7EEC00A5E
:1010900080EE090BBDEEC00BD4ED060A10EE100A6F
:1010A0006FF35E0001284FF0010008BF4FF0FF30E2
:1010B00094ED070A84ED152A206111F0D1FC20EE91
:1010C000080A94ED1C1A80EE0A0A31EE401AB0EEBE
:1010D000402AB7EEC11A31EE0B1B81EE091BBFFE91
:1010E000C11BB8EEC11AA1EE082A32EE400AB0EEDA
:1010F000C00AB7EEC00A80EE090BBDEEC00B10EEC1
:10110000100A6FF35E0001284FF0010008BF4FF096
:10111000FF30D4ED0B0A94ED0C0A606284ED1B2ABB
:1011200011F09EFC20EE080A94ED221A80EE0A0AC5
:1011300031EE401AB0EE402AB7EEC11A31EE0B1B69
:1011400081EE091BBFFEC11BB8EEC11AA1EE082A31
:1011500032EE400AB0EEC00AB7EEC00A80EE090BCC
:10116000BDEEC00B10EE100A6FF35E0001284FF0C9
:10117000010008BF4FF0FF30D4ED100A94ED110AC2
:10118000A06384ED212A11F06BFC20EE080A94ED97
:10119000281A80EE0A0A31EE401AB0EE402AB7EE65
:1011A000C11A31EE0B1B81EE091BBFFEC11BB8EE4D
:1011B000C11AA1EE082A32EE400AB0EEC00AB7EE1C
:1011C000C00A80EE090BBDEEC00B10EE100A6FF3E3
:1011D0005E00012808BF4FF0FF3584ED272AE56443
:1011E000BDEC088BB0BD00BF7B14AE47E17AF03F89
:1011F000A29C685721E5EE3F79E9263108ACD0BFC3
:10120000000000000000594000000000008066401F
:1012100000003443DA0F4940B0B541F2304440F2A7
:101220000041C2F2004440F6BC60C5F60201C2F2C1
:101230000040206001F5406060604FF40042C4E966
:1012400002204FF400602062C4E9040140F2012052
:101250004FF48062C0F20340C4F8250040F20670EB
:101260000025C0F60810C4F8290046F2006084F892
:101270002450C4E90621C8F67700C4F82D0040F2D6
:101280009930A4F8310004F13300ED21FFF784F820
:101290004CF68110C0F60000C4E948052046BDE8C0
:1012A000B0400CF051B90000704700000000000091
:1012B00040F6D420C2F2004003F086BA00000000DD
:1012C00040F67C00C2F2004003F07EBA000000004D
:1012D00040F6F400C2F2004003F076BA00000000CD
:1012E00040F64C30C2F2004003F06EBA000000003D
:1012F00040F66C10C2F2004003F066BA0000000035
:1013000040F28C70C2F2004003F05EBA00000000B0
:1013100040F6C430C2F2004003F056BA00000000AC
:1013200040F6E410C2F2004003F04EBA00000000A4
:1013300040F65C20C2F2004003F046BA0000000014
:1013400040F60400C2F2004003F03EBA0000000084
:1013500040F20F42D0F800C0C4F20202944511DC02
:101360006F22C4F20202944522DC3F22C4F2020240
:10137000944539DC1022C4F2020294455AD0282246
:1013800054E000BF40F26F42C4F2020294451BDCFD
:1013900040F23F42C4F2020294452DDC40F210427A
:1013A000C4F20202944545D040F228423EE000BF1C
:1013B0009F22C4F20202944528DC7022C4F2020289
:1013C000944537D0882231E040F29F42C4F20202B5
:1013D000944523DC40F27042C4F20202944529D0C5
:1013E00040F2884222E000BF4022C4F2020294454B
:1013F00020D058221AE000BF40F24042C4F202025C
:10140000944517D040F2584210E000BFA022C4F229
:10141000020294450ED0B82208E000BF40F2B84264
:10142000C4F20202944505D040F2A042C4F2020286
:10143000944517D10CF0F8024AF6AB23103ACAF6DD
:10144000AA23A2FB03310AA35F2AC1F302115B5C4A
:1014500040F2FF312CEA0101C36588BF0431816588
:10146000084670472CF0FF0181650846704700BFB1
:10147000000610160006101670B540F26F44D0F842
:1014800000C0C4F20204D0F858E0A4451ADC9F253D
:10149000C4F20205AC4533DC5725C4F20205AC4565
:1014A0005ADC1025C4F20205AC4500F098802825CE
:1014B000C4F20205AC4500F092804025C4F202055A
:1014C0008AE000BF45F22F45C5F60205AC452DDC8C
:1014D00040F2B745C4F20205AC454BDC40F2704522
:1014E000C4F20205AC457AD040F28845C4F2020548
:1014F000AC4574D040F2A045C4F202056CE000BFD8
:1015000040F22745C4F20205AC4543DCA025C4F2F5
:101510000205AC4563D0B825C4F20205AC455ED0E7
:1015200040F21045C4F2020556E000BF45F26B459B
:10153000C5F60205AC453FDC45F23045C5F602056F
:10154000AC454CD045F24445C5F60205AC4546D005
:1015500045F258453EE000BF5825C4F20205AC45AF
:101560003DD07025C4F20205AC4538D08825C4F2C0
:10157000020531E040F2B845C4F20205AC452ED078
:1015800045F20845C5F60205AC4528D045F21C4594
:1015900020E000BF40F22845C4F20205AC451ED051
:1015A00040F24045C4F20205AC4518D040F258451F
:1015B000C4F2020510E000BF45F26C45C5F6020515
:1015C000AC450CD045F29445C5F60205AC4506D0B5
:1015D00045F28045C5F60205AC4540F0D080456E29
:1015E000C66E002E866E6E601CBFD0E91C566E6003
:1015F000A44515DC9F24C4F20204A4452CDC572426
:10160000C4F20204A44551DC1024C4F20204A4452F
:101610007AD02824C4F20204A44575D040246FE097
:1016200045F22F44C5F60204A44529DC40F2B74434
:10163000C4F20204A44545DC40F27044C4F2020442
:10164000A44561D040F28844C4F20204A4455BD0B2
:1016500040F2A04454E000BF40F22744C4F2020428
:10166000A4453FDCA024C4F20204A4454CD0B82415
:10167000C4F20204A44547D040F2104440E000BF49
:1016800045F26B44C5F60204A44555DC45F23044EE
:10169000C5F60204A44561D045F24444C5F60204EF
:1016A000A4455BD045F2584454E000BF5824C4F22E
:1016B0000204A44528D07024C4F20204A44523D017
:1016C00088241DE040F2B844C4F20204A4451BD0B3
:1016D00045F20844C5F60204A4453FD045F21C4437
:1016E00038E000BF40F22844C4F20204A4450BD005
:1016F00040F24044C4F20204A44505D040F25844EC
:10170000C4F20204A4453AD18468C06D00F01F0001
:101710003F2505FA00F0CEF80800DCF80000402C68
:1017200020F48020CCF80000CCF8043023D1CCF891
:101730000820CCF80C1070BD45F26C44C5F60204CC
:10174000A4450BD045F28044C5F60204A44505D05B
:1017500045F29444C5F60204A44510D1C46D012598
:1017600004F01F04806805FA04F4CEF80440402811
:10177000CCF80430DBD0CCF80810CCF80C2070BDCD
:1017800070B5022B5CD0012B28D0002B61D1112920
:101790005FD841F6405443F61012C2F20044C0F63E
:1017A00001024FF484630E46238043F6FE03C0F625
:1017B0000103525CA2700546595CE27041F6E042BA
:1017C000217100216171C2F200420623214601F01D
:1017D000EBF8002864D040B270BD00BF112938D8A2
:1017E0004FF6FB72C0F20302CA40D20731D041F675
:1017F000405643F6EC02C2F20046C0F601024FF436
:1018000084630C46338043F6DA03C0F60103525C6E
:10181000B2700546595CF27041F6E0423171002128
:101820007171C2F200420623314601F0BDF8A0BB3F
:10183000002228462146BDE8704000F09DB800BF58
:10184000112906D84FF6FB72C0F20302CA40D20734
:1018500002D1FF2040B270BD41F6405643F6C802A7
:10186000C2F20046C0F601024FF484630C46338096
:1018700043F6B603C0F60103525CB2700546595CEC
:10188000F27041F6E042317100217171C2F2004202
:101890000623314601F088F850B1FE2040B270BDF9
:1018A000002228463146BDE8704000F0D5B800BFA0
:1018B000002228462146BDE8704000F001B8000033
:1018C0002DE9F041112904464FF0FF0051D84FF0A7
:1018D0000708022701220623DFE801F01B104B4B0B
:1018E0004B4B4B4B0A161B4B104B4B4B4B0A00BF41
:1018F0004FF00F08002703220E230AE04FF00308E1
:101900000022022305E000BF4FF008080027022252
:10191000072341F640554FF40260C2F2004500260D
:101920002946AA70EA7041F6E0422880C2F20042DD
:101930002B71062320466E7101F036F820B1FE208F
:1019400040B2BDE8F08100BF41F6E0424FF4426092
:101950002880C2F20042062320462946AE7085F850
:1019600003802F716E7101F01FF8002818BF6FF00F
:10197000020040B2BDE8F081112906D84DF61B7275
:10198000C0F20202CA40D20702D1FF2040B2704723
:101990002DE9F04141F640541FA2C2F2004423A3B6
:1019A00043F6A407525CC0F601074FF40266268096
:1019B00023A65B5C227141F6E042A37017F8018018
:1019C000E370775CC2F2004206232146002666716E
:1019D000054600F0E9FF28B1FE20BDE8F04140B225
:1019E000704700BF41F6E0424FF442602080C2F2EF
:1019F0000042062328462146A670E77084F804803A
:101A0000667100F0D1FF002818BF6FF00200BDE83A
:101A1000F04140B2704700BF0E060E02010E0E0EDE
:101A20001E110E08060E02020E1E00000301030026
:101A3000000303030704030201030000030700007F
:101A40000F070F03020F0F0F1F120F09070F0303DA
:101A50000F1F00000000000011292BD82DE9F041D4
:101A600043F6A40641F6405421A22BA7C0F6010676
:101A7000C2F2004423A3525C7D5C16F801802BA7C0
:101A80004FF4026626802EA65B5C627141F6E0424E
:101A90007F5C765C2371C2F2004206232146A5706A
:101AA000E570054600F080FF40B1FE20BDE8F04142
:101AB00040B27047FF2040B2704700BF41F6E0429D
:101AC0004FF44260208000206071C2F20042062381
:101AD00028462146A670E77084F8048000F064FF71
:101AE000002818BF6FF00200BDE8F04140B2704717
:101AF00000000000000000000101000000000000E4
:101B0000000100001E0E0806040302011E111E1231
:101B10000E080606021E0000070302010100000075
:101B20000704070503020101000700001F0F090752
:101B3000050403021F121F130F090707031F0000EC
:101B40000000000000000100000000000000000094
:101B5000010000000000000010B50A7820244B7836
:101B600091F802C002F07F0ED10903F0040263F382
:101B7000420141EA820241F64051C2F20041DB08D3
:101B80008033CA704FEA0C1204324A7141F6E042C7
:101B90000B71C2F2004206230C7000244C7081F8D5
:101BA00002E000F001FF002818BF4FF0FF3010BD29
:101BB00001464CF2E0308A780880002002F0F00202
:101BC0008A7070470000000020B1012804D1012074
:101BD000704700BF00207047032801D202207047E1
:101BE00002D10320704700BF052801D204207047AE
:101BF00002D10520704700BF072801D20620704798
:101C000002D10720704700BF092801D20820704781
:101C10000D2801D209207047112801D20A207047EF
:101C2000152801D20B207047192801D20C207047CB
:101C3000212801D20D20704701460F20312938BFDD
:101C40000E20704700000000082898BF7047093830
:101C5000C0B2062806D843F62411C0F6010151F897
:101C6000200070470020704770B541F6405541F69E
:101C7000E046C2F200450446C2F2004640F63E404D
:101C800028800020A870032320462946324600F011
:101C90008BFE18B1FF2040B270BD00BFB07840F697
:101CA0002E412980032340F00100A87020462946D8
:101CB000324600F079FE002818BF6FF0010040B2F4
:101CC00070BD0000000000002DE9F04141F64054D5
:101CD00001F5E877C2F2004441F6E0483E0A0546C5
:101CE000C2F2004806F1300121700020A0700323E9
:101CF000284621464246677000F056FE20B1FF207C
:101D000040B2BDE8F08100BF98F8020006F1200162
:101D10002170032340F08000A070284621464246EF
:101D2000677000F041FE002818BF6FF0010040B25C
:101D3000BDE8F081000000004FF4FA73D2F800C053
:101D400003EBC10241F64051C2F20041130A2033B5
:101D50004A704FEA1C22CA704FEA1C420A7141F6CF
:101D6000E0420B70C2F20042062381F802C04FEA43
:101D70001C6C81F805C000F017BE000000000000D8
:101D80004FF4F873D2F800C003EBC10241F64051A2
:101D9000C2F20041130A20334A704FEA1C22CA7073
:101DA0004FEA1C420A7141F6E0420B70C2F2004257
:101DB000062381F802C04FEA1C6C81F805C000F0D0
:101DC000F3BD000000000000B0B501F5E87541F674
:101DD0004051C2F200419C464FEA152E02F01F040A
:101DE00041F6E0420EF120030B70C2F200424D704A
:101DF00003236CF3C7148C70BDE8B04000F0D4BD71
:101E00002DE9F04141F6405541F6E048C2F2004567
:101E10000446C2F2004817460E4640F23E70288043
:101E20000020A870032320462946424600F0BCFD4E
:101E300020B1FF2040B2BDE8F08100BF98F8020059
:101E400006F0010167F3410140F22E7200F0FC0040
:101E50002A800844A870032320462946424600F001
:101E6000A3FD002818BF6FF0010040B2BDE8F0816B
:101E7000F0B581B041F6405541F6E046C2F200456A
:101E80000446C2F200460F4641F630602880042323
:101E900020462946324600F087FD18B1FF2040B2A7
:101EA00001B0F0BDF0784FF4F152B1782A8007F01C
:101EB0001F02042347EA00201143A970000AE870BA
:101EC00020462946324600F06FFD002818BF6FF00B
:101ED000010040B201B0F0BDB0B50C4641F6405132
:101EE000C2F2004141F6E045C2F2004541F630320F
:101EF0000A8000228A7003232A4600F055FD18B19B
:101F0000FF2040B2B0BD00BFA8780146402818BFEE
:101F10004121202838BF0146002040B22170B0BDC9
:101F2000F0B581B041F6405541F6E046C2F20045B9
:101F30000446C2F200460F464FF44C702880002041
:101F4000A870032320462946324600F02DFD18B123
:101F5000FF2040B201B0F0BDB0784FF44871298045
:101F6000032300F0F80029463843A8702046324683
:101F700000F01AFD002818BF6FF0010040B201B058
:101F8000F0BD0000000000000146007800F0E00213
:101F9000002018320A70704780B501F0020201F08B
:101FA000010301F01C0E41F64051C2F2004143EA28
:101FB000420C2E2203230A8041F6E042C2F2004284
:101FC0004CEA8E0C81F802C0BDE8804000F0ECBC09
:101FD000F0B581B041F640550E46C2F200450446C8
:101FE000AF1C602138463246FEF7CFF941F6E04299
:101FF0006223C2F200422046294600F0D5FC18B107
:10200000FF2040B201B0F0BD602138463246FEF7F5
:10201000BCF941F6E0426223C2F200422046294662
:1020200000F0C2FC20B1FF2040B201B0F0BD00BF03
:10203000602138463246FEF7A8F941F6E0426223B5
:10204000C2F200422046294600F0AEFC20B1FF203B
:1020500040B201B0F0BD00BF602138463246FEF705
:1020600094F941F6E0426223C2F20042204629463A
:1020700000F09AFC20B1FF2040B201B0F0BD00BFDB
:10208000602138463246FEF780F941F6E04262238D
:10209000C2F200422046294600F086FC20B1FF2013
:1020A00040B201B0F0BD00BF602138463246FEF7B5
:1020B0006CF941F6E0426223C2F200422046294612
:1020C00000F072FC20B1FF2040B201B0F0BD00BFB3
:1020D000602138463246FEF758F941F6E042622365
:1020E000C2F200422046294600F05EFC20B1FF20EB
:1020F00040B201B0F0BD00BF602138463246FEF765
:1021000044F941F6E0426223C2F2004220462946E9
:1021100000F04AFC20B1FF2040B201B0F0BD00BF8A
:10212000602138463246FEF730F941F6E04262233C
:10213000C2F200422046294600F036FC20B1FF20C2
:1021400040B201B0F0BD00BF602138463246FEF714
:102150001CF941F6E0426223C2F2004220462946C1
:1021600000F022FC20B1FF2040B201B0F0BD00BF62
:10217000602138463246FEF708F941F6E042622314
:10218000C2F200422046294600F00EFC20B1FF209A
:1021900040B201B0F0BD00BF602138463246FEF7C4
:1021A000F4F841F6E0426223C2F20042204629469A
:1021B00000F0FAFB20B1FF2040B201B0F0BD00BF3B
:1021C000602138463246FEF7E0F841F6E0426223ED
:1021D000C2F200422046294600F0E6FB20B1FF2073
:1021E00040B201B0F0BD00BF602138463246FEF774
:1021F000CCF841F6E0426223C2F200422046294672
:1022000000F0D2FB20B1FF2040B201B0F0BD00BF12
:10221000602138463246FEF7B8F841F6E0426223C4
:10222000C2F200422046294600F0BEFB20B1FF204A
:1022300040B201B0F0BD00BF602138463246FEF723
:10224000A4F841F6E0426223C2F200422046294649
:1022500000F0AAFB20B1FF2040B201B0F0BD00BFEA
:10226000602138463246FEF790F841F6E04262239C
:10227000C2F200422046294600F096FB20B1FF2022
:1022800040B201B0F0BD00BF602138463246FEF7D3
:102290007CF841F6E0426223C2F200422046294621
:1022A00000F082FB20B1FF2040B201B0F0BD00BFC2
:1022B000602138463246FEF768F841F6E042622374
:1022C000C2F200422046294600F06EFB20B1FF20FA
:1022D00040B201B0F0BD00BF602138463246FEF783
:1022E00054F841F6E0426223C2F2004220462946F9
:1022F00000F05AFB20B1FF2040B201B0F0BD00BF9A
:10230000602138463246FEF740F841F6E04262234B
:10231000C2F200422046294600F046FB002818BFC2
:102320004FF0FF3040B201B0F0BD000000000000EF
:1023300061B310B514884FF0604301EB410103EA2B
:10234000C453C4F3440C43EA0C6C502303EB8103E5
:1023500041F64051C2F200414FEA132E0EF1200225
:102360000A70202202EA44128A700022A1F8032097
:1023700041F6E0424B70C2F2004206234FEA1C6471
:102380004C71BDE8104000F00FBB00BF6FF0630060
:10239000704700000000000001460288002002F49F
:1023A0007E420A807047000011B32DE9F04101EB35
:1023B00041011546502241F6405402EB8106C2F21B
:1023C000004441F6E0483021C2F2004841EA1621BB
:1023D00021700021A1700323214642466670074602
:1023E00000F0E2FA40B1FF20BDE8F04140B2704792
:1023F0009C2040B2704700BF300A98F8021020308D
:10240000207005F00F0003230843A07038462146D2
:102410004246667000F0C8FA002818BF6FF001004D
:10242000BDE8F04140B27047B0B50C4641F64051AE
:10243000C2F2004141F6E045C2F2004542F23002EC
:102440000A8006232A4600F0AFFA002818BFB0BD64
:1024500000212160A9782160EA7841EA0221216007
:102460002A7941EA024121606A7941EA02612160E8
:10247000B0BD0000000000002DE9F04F95B001EB69
:102480004108502141F6405441F6E04601EB8801F5
:10249000C2F200443027C2F2004647EA11276170B9
:1024A0000021C4F80210C4F8061099469246C4F8F8
:1024B0000A100E23214632462770054600F074FAB2
:1024C00020B1FF2040B215B0BDE8F08F96F90200B0
:1024D00000283BD4C0B21E9F800601904FF00C0034
:1024E0004FF4706258BF0820F17A3844BF0700F0FB
:1024F000FC0302EA012118BF181DB27A01F58061C0
:10250000C0B2302307464C2828BF4C2743EA11218C
:1025100007F1020B21706270F0B1A01C3946FDF783
:102520003BFF2846214632465B4600F03DFA834693
:10253000B11C02A83A46FDF716FFBBF1000F1BD0F5
:10254000FD2040B215B0BDE8F08F00BFFE2040B2C4
:1025500015B0BDE8F08F00BF41F6405141F6E042B2
:10256000C2F20041C2F2004228465B4600F01CFA6B
:102570008346BBF1000FE3D1DDE901204FEA880675
:10258000002A1E9A0399CAE9000107D44FF00000FF
:10259000CAF8080062B1082005E000BF0498CAF834
:1025A00008002AB10C2002A901444846FDF7DBFED1
:1025B00006F1510041F6E042010A607020312170BD
:1025C0000120A070C2F2004203232846214600F0F9
:1025D000EBF9002818BF6FF0030040B215B0BDE85A
:1025E000F08F00000000000041F6405141F6E0424B
:1025F000C2F20041C2F2004202234FF0000CA1F8E7
:1026000000C000F0D1B9000010B501EB41014FF05E
:10261000500C147892F801E00CEB810241F6405125
:102620004FEA122CC2F200410CF120030B70802300
:102630004A7043EA84128A700022CA7062080A71E2
:1026400041F6E042C2F20042062381F805E0BDE80F
:10265000104000F0A9B900000146002000220A80C5
:1026600070470000000000002DE9F04101EB41013E
:10267000502341F6405441F6E04803EB8106C2F294
:10268000004430210546C2F2004841EA162121707B
:1026900017460020A0700323284621464246667054
:1026A00000F082F920B1FF2040B2BDE8F08100BF08
:1026B000300A98F802102030207007F0170003232A
:1026C0000843A070284621464246667000F06CF927
:1026D000002818BF6FF0010040B2BDE8F081000093
:1026E0002DE9F04F93B001EB4109502141F64054E0
:1026F00041F6E04501EB8901C2F200443027C2F205
:10270000004547EA1127277061700021C4F80210C4
:102710001746C4F806101E46C4F80A100E232146B8
:102720002A46804600F040F920B1FF2040B213B0A5
:10273000BDE8F08F95F90200B0F1FF3F04DDFE2007
:1027400040B213B0BDE8F08F3879DDF870A000F02A
:102750000F01082907D9093943F62412C9B2C0F676
:10276000010252F82110514504D2FD2040B213B0AD
:10277000BDE8F08F95F80AC08DF80400787995F8D7
:102780000BB08DF80500F888BAF1000F3968009198
:10279000ADF8060032D000226846002141F0010366
:1027A0001718DBB2B25C53453A7216D241F00202FE
:1027B0001F18D2B2F35C52453B720ED241F00303B4
:1027C0001718DBB2B25C53453A7206D204311F18B7
:1027D000CAB2F35C52453B72E0D31AF003010DD04C
:1027E0000AF10802C1F104052946664650FA82F052
:1027F0000830FDF7D1FDB44601E000BF00250AEB2B
:1028000005000BF1040102220A3062F31F1121704E
:1028100085B26FF0010111FA80F2A01C694684F8BC
:1028200001C0FDF7A0FD41F6E0424046C2F2004281
:1028300021462B4600F0B8F820B1FC2040B213B07E
:10284000BDE8F08F4FEA89001D99513000294FEA09
:102850001022607002F1200222704FF001024FF04E
:10286000030318BF032240462146A27041F6E0420E
:10287000C2F2004200F098F8002818BF6FF0040080
:1028800040B213B0BDE8F08F2DE9F04186B00646A6
:10289000002014460D464FF00008FFF7A5FE00206B
:1028A000FFF7E2F90020FF21FFF792FB05A8FFF7F1
:1028B0006BFB9DF8140040F018008DF81400002008
:1028C0000599FFF769FB002000210022FFF798FA25
:1028D00004AF3846FFF76CF99DF810009DF8111011
:1028E00040F020008DF8100001F03B008DF8110041
:1028F00000203946FFF730F900200222002331463C
:10290000FEF73EFF03AE3046FFF7A6FE9DF80C0033
:10291000E7218DF80D10294600F0C1008DF80C005C
:1029200000203246FFF770FE002004222946FFF700
:102930009BFE02AD2846FFF72FFDBDF8080021469B
:102940002A4640F4EF7020F02100ADF80800002086
:10295000FFF7EEFC002001222146FFF725FD01AA2A
:1029600000200021CDE90088FFF70AFA6A4600201E
:102970000021FFF7E1F90020002101232246FFF7A3
:1029800023FA00200021FFF79FF900200021FFF724
:10299000C7FA002043F60301FFF76AFA06B0BDE864
:1029A000F0810000000000002DE9F04182B028B164
:1029B000FF2460B202B0BDE8F08100BF41F20048E0
:1029C0000D46C5F602084021164600224046002466
:1029D0001F4604F03DF840F644700A21C2F2004060
:1029E0000091294632463B4605F0E6FF4021012290
:1029F000404604F02DF860B202B0BDE8F08100005E
:102A0000704700000000000008F0CAFDFEF74CFA15
:102A10004FF496700FF044F8F6E700000000000055
:102A2000B0B540F28804C2F2004494F8210028B9FD
:102A300030A00CF079FD04F013F8606140F2F0551D
:102A4000C2F20045287B012807D104F009F8606133
:102A500000202873012084F8210004F001F8616946
:102A6000E269401A90420DD994ED040A94ED031ADC
:102A7000B8EEC00AF8EEC10A9FED231AFEF764FA19
:102A800003E000BF1DA00CF0F3F803F0E9FF61695B
:102A9000E269401A02F5FA7188420BD203F0E0FFB6
:102AA0006169E269401A904204D943F63220C0F6C7
:102AB000010011E003F0D4FF616943F63223E269BB
:102AC000411A43F6372002F57A72C0F60103C0F6C8
:102AD0000100914288BF18460CF026FD03F0C0FFAC
:102AE000D4E90512401A0021904288BF012184F8E0
:102AF0002010B0BD64726962626C650057616974D0
:102B000044726962626C6500000000000000000011
:102B100010B540F2F054C2F20044207905285BD889
:102B2000DFE800F0045024321A5800BFFDF7ACFE75
:102B300043F63220C0F601000CF0F6FCFDF780FFF2
:102B400040F22C202179C2F2004090F86C0001285C
:102B500008BF0146217110BD20A00CF089F822A009
:102B60000CF0E2FC0520207110BD00BF43F63720B9
:102B7000C0F601000CF0D8FCA0792179012808BF2B
:102B80000321217110BD00BFFDF7F2FDB0EE401A28
:102B90009FED170AF0EE400AFEF7D6F940F28C10CE
:102BA000B7EE081AC2F2004090ED0D0A2079B0EE9F
:102BB000C00AB4EE410AF1EE10FAB8BF0420207149
:102BC00010BD00BF0CF0C4FD002808BF10BD0220DE
:102BD000207110BD0120E07010BD00BF4261736B19
:102BE0006574466C6F77000070726564756E6B007B
:102BF000000000000000000090ED061A90ED012A90
:102C000031EE201A90ED073A33EE022A90ED003AA9
:102C10009FED134A80ED032A11EE101A32EE033AAB
:102C200021F00041B1F1FF4F82EE033A80ED053A09
:102C300034FE011AB7EE004A80ED021A30EE410A66
:102C400034EE434A80ED040AA3EE001A22EE040A91
:102C500080ED070A80ED061AB0EE410A704700BF0A
:102C600000000000000000004FF4806003F008BE88
:102C7000102003F005BE0000202003F001BE00007C
:102C8000B0B52DED0A8B41F66445B0EE408AC2F234
:102C900000459FED449A40F2AC0495ED101AC2F243
:102CA000004421EE000A2046C0EE090A95ED140A00
:102CB000FFF7A2FF95ED111A85ED120A21EE081A11
:102CC00095ED150A04F12000C1EE090AFFF794FF03
:102CD00095ED121A85ED130AB7EEC12AB7EEC01AA8
:102CE000B0EE420B10F06CF895ED051A9FED2EAA90
:102CF00021EE0A1A9FED2DBAB7EEC00B85ED170A2B
:102D000095ED122A81EE0B1AB7EEC29AB7EEC11AF0
:102D1000B0EE410B0FF0FCFFB0EE408B95ED051AC5
:102D200021EE0A1A95ED132AB7EEC2CA81EE0B1AEC
:102D3000B7EEC11AB0EE410B10F08EF920EE4C1B2D
:102D400095ED050A95ED122A20EE0A0AA9EE081B58
:102D5000B7EEC29A80EE0B0AB7EEC11B85ED0C1AD6
:102D6000B7EEC00A10F078F9B0EE408B95ED051A79
:102D700021EE0A1A95ED132AB7EEC2AA81EE0B1ABC
:102D8000B7EEC11AB0EE410B0FF0C2FF20EE0A0BF6
:102D9000A9EE080BB7EEC00B85ED0D0ABDEC0A8B52
:102DA000B0BD00BF00007A44DA0F49400000344350
:102DB0002DE9F04784B040F2004440F6DC4AC2F20C
:102DC000004443F61B2640F20410C2F2004AC0F64B
:102DD0000106C0F20600206043F61F2943F62A27A9
:102DE0000121504632462346C0F60109C0F60107CC
:102DF0000425CDE90075CDF808904FF0010800F0EA
:102E0000B7F9642002F014FE40F204200221C0F25F
:102E100006002060504632462346CDF80890CDE9A2
:102E2000007500F0A5F9642002F002FE012000F018
:102E300013F8002048F20001C4F2E13084F84E801B
:102E4000CCF2D431C4E90E010020206404B0BDE806
:102E5000F08700000000000070B52DED108B40F2EF
:102E60000045C2F20045D5F80B10D5E90634D5F877
:102E700013205E1A131B00EE106A01EE103A04468E
:102E80000020B6F5803FB8EEC00ACFF6FF70B8EE6E
:102E9000C11A85ED0A0AC5E9081285ED0B1A03DD92
:102EA0009FED892A04E000BF864205DA9FED872A5C
:102EB00032EE000A85ED0A0AB3F5803F02DD9FED90
:102EC000822A03E0834205DA9FED802A32EE011A5E
:102ED00085ED0B1AB7EEC11A41F664469FED742BCF
:102EE000B7EEC00AC2F2004621EE023B9FED78DA4F
:102EF0009FED714B9FED77EAA0EE043BC5E906120A
:102F000020EE020B9FED6E4BA1EE020B96ED051A23
:102F100021EE0D1A83EE043B80EE040B81EE0E1AB7
:102F2000B7EEC39BB7EEC0ABB7EEC10AB7EEC9BAF6
:102F30000FF0EEFEB0EE408B96ED051AB7EECACA62
:102F400021EE0D1A81EE0E1AB7EEC11AB0EE410B4A
:102F500010F082F820EE4C0B96ED051A21EE0D1ABA
:102F6000ABEE080B81EE0E1AB7EEC0FBB7EEC10A4E
:102F700010F072F8B0EE408B96ED051A21EE0D1AA6
:102F800081EE0E1AB7EEC11AB0EE410B0FF0C0FE83
:102F900020EE0C0BABEE080BB7EECFBAB7EEC08B42
:102FA00095ED100AB7EEC00A0FF0B2FE95ED101ABB
:102FB000B7EEC8CAB0EE408BB7EEC11AB0EE410B07
:102FC00010F04AF820EE4C1B95ED100AB7EEC00A3F
:102FD000ABEE081BB7EEC11B85ED0C1A0FF098FE87
:102FE000B0EE408B95ED101AB7EEC11AB0EE410B62
:102FF00010F032F820EE0B0B01EE104A95ED0E2A80
:1030000095ED0F3AACEE080BB8EEC18A95ED0C1AAF
:1030100031EE021AB7EEC00B89EE082A85ED0D0AD3
:103020008AEE084A85ED0E1A33EE003A86ED142A30
:10303000B7EEC20A85ED0F3AB7EEC41A86ED154A0F
:103040000FF0BEFEB7EEC00B95ED0C1A95ED0D2AF4
:1030500081EE083A86ED180AB0EEC10A86ED0A3A0A
:10306000B0EEC23A95ED115A82EE084A86ED0B4A4F
:1030700095ED124A30EE050A33EE043A85ED110A59
:1030800085ED123A96ED1C0A96ED1D3A31EE000AD6
:1030900032EE031A86ED1C0AD5E90E01C6E90601D7
:1030A00086ED1D1ABDEC108B70BD00BF00BF00BFC8
:1030B000DF27DC659EA0E6BFDF27DC659EA0E63F3C
:1030C000000000002D523940000000C800000048F8
:1030D000DA0F49400000344380B50FF08DFB40F219
:1030E0005841C2F200410A68904218BF80BD88680A
:1030F0000A698B69801A1844886180BD000000004D
:10310000EFF3108072B600BFFEE700000000000081
:1031100040F63C40C2F2004002F0AABE00000000AF
:1031200040F63C40C2F2004002F0A2BE00000000A7
:1031300040F6DC40C2F2004002F09ABE00000000FF
:1031400040F6DC40C2F2004002F092BE00000000F7
:1031500040F67C50C2F2004002F08ABE000000003F
:1031600040F67C50C2F2004002F082BE0000000037
:103170002DE9F0478CB0054640F61C60C2F20040D5
:103180009A4617460E46DDF858908542DDE91484CC
:1031900016D043F61B213846C0F601010396FDF711
:1031A0000DF9C8B343F626213846C0F60101FDF7F4
:1031B00005F998B3092C4FF00000059036DA44E089
:1031C00043F626213846C0F60101FDF7F7F8B0FABC
:1031D00080F043F618214509C0F601014046FDF78D
:1031E000EDF8B0FA80F043F623214709C0F601015B
:1031F0004846FDF7E3F8B0FA80F03A46E1B24309F9
:103200000120029129460124CDE9006A08F0A8FABC
:1032100020460CB0BDE8F087002001E04FF0804070
:103220000490092C4FF0000005900EDBA4F10C0077
:103230004FEAB000052809D8C1B22F2222FA01F1C5
:10324000C90703D01EA151F82040069443F623215C
:1032500000200790C0F601014846FDF7AFF848B1DD
:1032600043F61F214846C0F60101FDF7A7F820B933
:10327000002001E04FF48010089017A14046FDF7B0
:103280009DF858B143F618214046C0F60101FDF7FC
:1032900095F828B94FF4001001E000BF0020099014
:1032A000002003A9CDE90A002846524602F01CFC82
:1032B0000224002808BF012420460CB0BDE8F08796
:1032C000090000000A0000000B0000000C000000D4
:1032D000090000000D000000434C415353494300D6
:1032E00080B58AB001924FF0804202920C9ACDE9EB
:1032F00003234FF00042059200234FF40012CDE962
:1033000007230A4601A90693099302F0EDFB002862
:1033100018BF01200AB080BDB0B500F0D1FA40F26C
:103320001064C2F2004494F84100012802D185A043
:103330000BF09EFC207D40F2BC65C2F200450128E6
:1033400006D194F82410012902D100200EE000BF1C
:10335000012805D194F82210012901D1012005E0AE
:1033600001280AD1A07F012807D10220012129705C
:1033700040F2F551C2F20041087294F83D0085F820
:10338000B70094F83C20B0FA80F194F82530480951
:1033900085F8B800607D217E85F8B620012885F883
:1033A000B53085F8B41021D0E07D012824D0E07C30
:1033B000012827D0607C01282AD094F82100012818
:1033C0002DD094F82000012830D0607F012833D020
:1033D000E07F012836D094F82300012839D094F9F1
:1033E000460004283CDD002044E000BF58A00CF05B
:1033F0009BF8E07D0128DAD157A00CF095F8E07C2D
:103400000128D7D156A00CF08FF8607C0128D4D1C8
:1034100055A00CF089F894F821000128D1D154A0CE
:103420000CF082F894F820000128CED152A00CF0C4
:103430007BF8607F0128CBD151A00CF075F8E07FBC
:103440000128C8D150A00CF06FF894F8230001288F
:10345000C5D14FA00CF068F894F946000428C2DCEE
:1034600094F82A10227D81F001011143B1FA81F113
:103470004909084494F8241041F2E852C2F200428B
:1034800084F8460094F83D00107029B10120A17C19
:1034900085F8B90099B118E094F8220030B1032002
:1034A000A17C85F8B90051B10FE000BFA07F0028D2
:1034B00018BF01204000A17C85F8B90029B994F813
:1034C0002800012801D10DF06FFB207C50B994F841
:1034D0002600012806D141F6A4500021C2F2004086
:1034E00001708175A17D94F82500012908BF01288C
:1034F00006D0012908BF002807D129A001E000BF9C
:1035000025A00AF099F900F09BFB207C84F82600A6
:10351000D4F81100C4F82700D4F81500C4F82B0023
:10352000D4F81900C4F82F00D4F81D00C4F83300F3
:10353000D4F82100C4F8370094F8250084F83B0043
:10354000B0BD00BF536166654D6F6465000000004B
:10355000666F6C64000000006361746368000000C3
:1035600070726564756E6B00646566656E640000FC
:10357000646F776E0000000064726962626C6500BF
:103580006C696674000000006A756D7000000000D0
:10359000737469636B00000064656661756C740028
:1035A00061726D6F72000000F0B581B02DED108B6F
:1035B00040F2BC6441F66447C2F20044A4A1C2F2E6
:1035C0000047B2EE080A94F8B5609FEDA32A94F87C
:1035D000B4509FEDA3FA94F8B600002E08BF043152
:1035E000002D97ED051A91ED003A31EE022A03FE07
:1035F00000CA012840F2106002FE010A9FED971AEE
:10360000C2F2004020EE010A90ED00EA90ED01DAEE
:10361000D0ED02CA80EE0F0AB7EEC0BAB0EE4B0B87
:103620000FF076FBB0EE408BB0EE4B0B0FF014FDBD
:10363000B0EE409BB0EE4B0B0FF06AFBB0EE40AB30
:10364000B0EE4B0B0FF008FD94F8B90004286FD8CA
:10365000DFE800F0045226381A0000BFB3EE071A64
:10366000002E9FED832A01FE021AB1EE042A002DDE
:1036700001FE021A2CEEC11A94F8B800B1EE4E2ADF
:10368000002840F0CA802CE097ED051A9FED752ABE
:10369000B4EE421AF1EE10FA52DA9FED742A56E0B7
:1036A00040F25C1097ED052AC2F2004090ED0B1A33
:1036B00031EE421AB4EE4F1AF1EE10FA2BDD9FED07
:1036C0006B2A31E0B0EE40BBFDF752F8B0EE401A85
:1036D000B0EE4B0B94F8B800B1EE4E2A002840F043
:1036E0009C802CEE020A6DEE0C0ABDEC108B01B032
:1036F000BDE8F040FDF728BC41F2E85097ED052AFF
:10370000C2F2004090ED121A31EE421AB4EE4F1A96
:10371000F1EE10FAD3DC9FED532AB4EE421AF1EE2B
:1037200010FA19DA9FED502A31EE021A14E000BFA8
:1037300094F8B800B1EE4E2A00286ED1D1E700BF50
:10374000B4EE4F1AF1EE10FA04DD9FED472A32EE87
:10375000411A01E0B1EE411A40F21400B0EEC14A44
:10376000C2F2004090ED095A90ED022AB4EE454AAB
:10377000F1EE10FA14DA81EE053AB0EEC36AB6EE55
:10378000003AB4EE436AF1EE10FA0BDBB7EE003A02
:10379000B4EE436AF1EE10FA04DCB0EE463A01E012
:1037A000B7EE003A90ED076AB4EE454A23EE066A9A
:1037B000F1EE10FA16DD90ED0A5AB4EE454AF1EE3C
:1037C00010FA0FDA90ED034A90ED085AA4EE016A60
:1037D000B1EE454AB4EE446AF1EE10FA04DB86FE1F
:1037E000454A01E0B0EE464A21EE021A80ED074A52
:1037F000A3EE014A90ED0B1AB1EE412A84FE411A64
:10380000B4EE442AF1EE10FA32FE011A94F8B80030
:10381000B1EE4E2A00283FF464AFB7EECD3AB7EED2
:10382000C22A20EE430B29EE024BA2EE0A0BA3EEB6
:10383000084BB7EEC00BB7EEC42B2CEE000A6CEEB3
:10384000020ABDEC108B01B0BDE8F040FDF77CBB77
:103850000000FE42000088420000B442DA0F4940F6
:1038600000003443000034C30000B4430000B4C37C
:1038700000000C4200000000022811D0012818BFEF
:10388000704740F200420868C2F20042D1F80310CB
:10389000C2F80B109060012082F84C00704700BF06
:1038A00040F200420868C2F20042D1F80310C2F8A8
:1038B00013101061012082F84D00704700000000D5
:1038C00010B500200DF0E8FF00EE100A40F2106481
:1038D000C2F200440120B8EEC00A84ED000A0DF0E7
:1038E000DBFF00EE100A0220B8EEC00A84ED010AE8
:1038F0000DF0D2FF00EE100A0320B8EEC00A84EDEE
:10390000020A0DF0C9FF00EE100A0020B8EEC00A4E
:1039100084ED030A0DF0A4FF207401200DF0A0FF38
:10392000607402200DF09CFFA07403200DF098FF3E
:10393000E07404200DF094FF207505200DF090FF39
:10394000607506200DF08CFFA07507200DF088FF34
:10395000E07508200DF084FF207609200DF080FF2F
:1039600060760A200DF07CFFA0760B200DF078FF2A
:10397000E0760C200DF074FF20770D200DF070FF25
:1039800060770E200DF06CFFA0770F200DF068FF20
:10399000E07710200DF064FF84F8200011200DF076
:1039A0005FFF84F8210012200DF05AFF84F82200F6
:1039B00013200DF055FF84F8230014200DF050FF64
:1039C00084F8240015200DF04BFF84F8250000201A
:1039D0000DF06AFF84F83C0001200DF065FF84F8CB
:1039E0003D0002200DF060FF84F83E0003200DF042
:1039F0005BFF84F83F0004200DF056FF84F8400080
:103A000005200DF051FF84F8410006200DF04CFF19
:103A100084F8420007200DF047FF84F84300082097
:103A20000DF042FF84F8440009200DF03DFF84F8BA
:103A3000450010BD0000000042F65912C0F6F042E9
:103A400090420CD042F65952C0F6F042904206D055
:103A500042F65922C0F6F042904218BF704742F237
:103A6000940C0A68C2F2004C4968DCF80C305960CA
:103A70001A60CCF804000DF053B9000000000000FB
:103A800010B540F218540221C2F2004404F10C00B7
:103A900007F02AFE227C04F11401A160E068206096
:103AA0002271BDE810400BF06BB800000000000070
:103AB00040B20638032888BF704703A151F82000A0
:103AC00001210170704700BF0C070024D0060024BC
:103AD000E4060024F8060024A3281DD0A2280DD057
:103AE000A12818BF704741F6A4501422C2F200402A
:103AF000012300F8013BFCF736BC00BF41F6A45C93
:103B00001822C2F2004C40F201130CF11700ACF87D
:103B10001530FCF728BC00BF41F6A4500121C2F2C9
:103B2000004081757047000010B52DED0A8B42F200
:103B3000940041F66444C2F20040C2F2004490EDA9
:103B4000040A90ED051A90ED072A90ED083A31EE3F
:103B5000404A33EE422A84ED104A84ED112AB7EE32
:103B6000C40AB7EEC21A0FF02BF994ED051A9FEDB7
:103B70002DAA21EE0A1A9FED2CBAB7EEC00B84EDE8
:103B8000160A94ED102A81EE0B1AB7EEC29AB7EE20
:103B9000C11AB0EE410B0FF0BBF8B0EE408B94EDC4
:103BA000051A21EE0A1A94ED112AB7EEC2CA81EE67
:103BB0000B1AB7EEC11AB0EE410B0FF04DFA20EE22
:103BC0004C1B94ED050A94ED102A20EE0A0AA9EE8A
:103BD000081BB7EEC29A80EE0B0AB7EEC11B84ED4C
:103BE000081AB7EEC00A0FF037FAB0EE408B94ED2A
:103BF000051A21EE0A1A94ED112AB7EEC2AA81EE37
:103C00000B1AB7EEC11AB0EE410B0FF081F820EE9F
:103C10000A0BA9EE080BB7EEC00B84ED090ABDEC48
:103C20000A8B10BDDA0F4940000034430000000049
:103C300042F29400C2F20040C16B41637047000041
:103C400042F294000121C2F200400170C16B416355
:103C500070470000000000002DE9F041044602F02A
:103C6000FFFE1CB3054694F83500022822D140F22D
:103C70000F472668C4F2020740F26F48BE426FF059
:103C80000E00C4F202081DDC6F21C4F202018E4254
:103C90002ADC3F21C4F202018E4241DC1021C4F231
:103CA00002018E4263D028215CE000BF0120BDE804
:103CB000F08100BF802060650120002184F834106D
:103CC000BDE8F08146451BDC40F23F41C4F20201F1
:103CD0008E422DDC40F21041C4F202018E4246D0E9
:103CE00040F228413EE000BF9F21C4F202018E4213
:103CF00028DC7021C4F202018E4238D0882131E0E4
:103D000040F29F41C4F202018E4223DC40F2704136
:103D1000C4F202018E422AD040F2884122E000BF64
:103D20004021C4F202018E4221D058211AE000BF86
:103D300040F24041C4F202018E4218D040F2584194
:103D400010E000BFA021C4F202018E420FD0B821C2
:103D500008E000BF40F2B841C4F202018E4206D032
:103D600040F2A041C4F202018E42314607D13146F1
:103D7000306820F01E0041F8140B6FF080000A68D4
:103D8000464500EA020008601ADC9F20C4F20200E7
:103D9000864233DC5720C4F2020086425ADC1020EF
:103DA000C4F20200864200F097802820C4F202008C
:103DB000864200F091804020C4F202008AE000BFF9
:103DC00045F22F40C5F6020086422DDC40F2B74096
:103DD000C4F2020086424BDC40F27040C4F20200A2
:103DE000864279D040F28840C4F20200864273D005
:103DF00040F2A040C4F202006CE000BF40F2274055
:103E0000C4F20200864243DCA020C4F202008642D3
:103E100062D0B820C4F2020086425DD040F2104069
:103E2000C4F2020056E000BF45F26B40C5F6020046
:103E300086423FDC45F23040C5F6020086424BD058
:103E400045F24440C5F60200864245D045F258404E
:103E50003EE000BF5820C4F2020086423CD07020F1
:103E6000C4F20200864237D08820C4F2020031E05A
:103E700040F2B840C4F2020086422DD045F208401C
:103E8000C5F60200864227D045F21C4020E000BF64
:103E900040F22840C4F2020086421DD040F2404069
:103EA000C4F20200864217D040F25840C4F2020029
:103EB00010E000BF45F26C40C5F6020086420BD010
:103EC00045F29440C5F60200864205D045F2804096
:103ED000C5F60200864204D1206E016821F480718B
:103EE0000160306820F00100306000BF3068C0071A
:103EF00010D002F0B5FD401B0628F7D320206065E6
:103F0000032084F835000120002184F83410BDE836
:103F1000F08100BF20680821B8424FF03F0211DC59
:103F20006F23C4F2020398421EDC3F23C4F2020353
:103F3000984235DC1023C4F20203984257D028235C
:103F400050E000BF40451BDC40F23F43C4F2020397
:103F500098422DDC40F21043C4F20203984246D04E
:103F600040F228433EE000BF9F23C4F20203984280
:103F700028DC7023C4F20203984238D0882331E051
:103F800040F29F43C4F20203984223DC40F27043A4
:103F9000C4F2020398422AD040F2884322E000BFD4
:103FA0004023C4F20203984221D058231AE000BFF4
:103FB00040F24043C4F20203984218D040F2584302
:103FC00010E000BFA023C4F2020398420FD0B82330
:103FD00008E000BF40F2A043C4F20203984206D0BA
:103FE00040F2B843C4F20203984240F0C580D4E9DD
:103FF000163707F01F07404502FA07F25A5019DC3E
:104000009F21C4F20201884232DC5721C4F202012E
:10401000884259DC1021C4F20201884200F09680E7
:104020002821C4F20201884200F090804021C4F2AD
:10403000020189E045F22F41C5F6020188422DDCDC
:1040400040F2B741C4F2020188424BDC40F27041B9
:10405000C4F20201884279D040F28841C4F20201E0
:10406000884273D040F2A041C4F202016CE000BF6C
:1040700040F22741C4F20201884243DCA021C4F28D
:104080000201884262D0B821C4F2020188425DD0A8
:1040900040F21041C4F2020156E000BF45F26B410C
:1040A000C5F6020188423FDC45F23041C5F6020107
:1040B00088424BD045F24441C5F60201884245D0C2
:1040C00045F258413EE000BF5821C4F20201884247
:1040D0003CD07021C4F20201884237D08821C4F25A
:1040E000020131E040F2B841C4F2020188422DD011
:1040F00045F20841C5F60201884227D045F21C412D
:1041000020E000BF40F22841C4F2020188421DD0E5
:1041100040F24041C4F20201884217D040F25841B7
:10412000C4F2020110E000BF45F26C41C5F6020185
:1041300088420BD045F29441C5F60201884205D071
:1041400045F28041C5F6020188420BD1616EA26E34
:10415000E06E4A6030B1016821F480710160D4E9F9
:104160001C014160012084F835000020002184F802
:104170003410BDE8F08100BF0421012237E70000C0
:10418000F0B190F83510022918D180B540F20F42F5
:104190000168C4F20202914214DC6F23C4F20203EC
:1041A000994225DC3F23C4F2020399423CDC1023F0
:1041B000C4F2020399425DD0282357E08021416573
:1041C0000120704740F26F43C4F2020399421BDCA6
:1041D00040F23F43C4F2020399422DDC40F2104307
:1041E000C4F20203994245D040F228433EE000BFAA
:1041F0009F23C4F20203994228DC7023C4F2020315
:10420000994237D0882331E040F29F43C4F2020341
:10421000994223DC40F27043C4F20203994229D050
:1042200040F2884322E000BF4023C4F202039942D7
:1042300020D058231AE000BF40F24043C4F20203EA
:10424000994217D040F2584310E000BFA023C4F2B7
:10425000020399420ED0B82308E000BF40F2B843F1
:10426000C4F20203994205D040F2A043C4F2020313
:10427000994275D191424FF0040280F8352011DC4B
:104280006F20C4F20200814222DC3F20C4F202000F
:10429000814239DC1020C4F20200814259D028202A
:1042A00054E000BF40F26F40C4F2020081421BDCC8
:1042B00040F23F40C4F2020081422DDC40F2104047
:1042C000C4F20200814244D040F228403EE000BFE8
:1042D0009F20C4F20200814228DC7020C4F2020058
:1042E000814236D0882031E040F29F40C4F2020083
:1042F000814223DC40F27040C4F20200814228D0A7
:1043000040F2884022E000BF4020C4F20200814217
:104310001FD058201AE000BF40F24040C4F2020013
:10432000814216D040F2584010E000BFA020C4F2F5
:10433000020081420DD0B82008E000BF40F2B84032
:10434000C4F20200814204D040F2A040C4F2020054
:104350008142086820F001000860002080BD00BF95
:104360000A6822F00E020A6045F25742C5F60202C0
:1043700091420A6822F001020A600FDC45F22F42E6
:10438000C5F60202914219DC45F20842C5F6020266
:10439000914229D045F21C4222E000BF45F27F4203
:1043A000C5F60202914213DC45F25842C5F60202FC
:1043B000914219D045F26C4212E000BF45F2304202
:1043C000C5F6020291420FD045F2444208E000BF18
:1043D00045F29442C5F60202914205D045F2804270
:1043E000C5F6020291421AD1D0E9181CD0E916E3B1
:1043F0000A6822F480720A6003F01F01012202FAA7
:1044000001F1CEF80410816ECCF80410C16E31B108
:104410000A6822F480720A60D0E91C124A60012105
:1044200080F83510016D0022002980F8342094D0E6
:104430008847002080BD0000F0B581B020B304465D
:10444000006840F26F420125C4F202020168904206
:1044500021F0010101601BDC9F21C4F202018842AE
:104460003ADC5721C4F2020188425FDC1021C4F219
:104470000201884200F089802821C4F202018842AA
:1044800000F0838040217BE00125284601B0F0BD8B
:1044900045F22F414FF0000CC5F602014FF0100E0F
:1044A0000C2388424FF008064FF0040728DC40F246
:1044B000B741C4F20201884244DC40F27041C4F2C8
:1044C0000201884261D040F28841C4F20201884270
:1044D0005BD040F2A04153E040F22741C4F2020118
:1044E00088423FDCA021C4F2020188424DD0B821AD
:1044F000C4F20201884248D040F2104140E000BFBF
:1045000045F26B41C5F6020188424BDC45F2304171
:10451000C5F60201884259D045F24441C5F6020170
:10452000884253D045F258414AE000BF5821C4F2B6
:104530000201884229D07021C4F20201884224D0AD
:1045400088211DE040F2B841C4F2020188421CD02B
:1045500045F20841C5F60201884237D045F21C41B8
:104560002EE000BF40F22841C4F2020188420CD084
:1045700040F24041C4F20201884206D040F2584164
:10458000C4F2020188427FF480AF014600223F2539
:104590004FF0210C41F8042B4FF0140E10230C2681
:1045A000082714E045F26C41C5F6020188420DD09F
:1045B00045F28041C5F60201884207D045F2944198
:1045C000C5F602018842014601D05EE7014600229D
:1045D0000A60C251825145F6FC06C250C5F6020679
:1045E00040F80EC02046FCF7B3FE45F2574E216856
:1045F000E36DC5F6020E03F01F03714505FA03F3E0
:10460000C35113DC45F22F40C5F60200814221DC84
:1046100045F20840C5F60200814235D045F21C4003
:10462000C5F6020081422FD0A0E000BF45F27F40D6
:10463000C5F6020081421BDC45F25840C5F6020077
:10464000814221D045F26C40C5F6020081421BD068
:104650008CE000BF45F23040C5F60200814213D025
:1046600045F24440C5F6020081420DD07EE000BF15
:1046700045F29440C5F60200814205D045F28040E3
:10468000C5F60200814271D101F0FC004CF6CD4329
:104690000838CCF6CC43A0FB0303A6F17C0718092D
:1046A000A6F1FC0303EB800500F01F02256601253F
:1046B000676605FA02F2A266002543F820507A6088
:1046C0006068431E072B40D8714506F144020FDC99
:1046D00045F22F47C5F60207B94219DC45F20847F3
:1046E000C5F60207B94229D045F21C4722E000BFB7
:1046F00045F27F47C5F60207B94213DC45F2584739
:10470000C5F60207B94219D045F26C4712E000BF66
:1047100045F23047C5F60207B9420FD045F244478B
:1047200008E000BF45F28047C5F60207B94205D050
:1047300045F29447C5F60207B94239D10121002755
:1047400046F8207001FA03F05060C4E91B55656714
:10475000C4E90F55C4E91155C4E91355656584F8DA
:10476000355084F83450284601B0F0BD01F0F8000F
:104770004AF6AB231038CAF6AA23A0FB030340F283
:104780000F40C4F202004FF0080C1F09814200F1F3
:10479000AA05384688BF0CEB131040F60003A94267
:1047A000C4F2020328BF384603F180077AE700BF4E
:1047B00040F60001C4F2020101F1FC0601F5A0720D
:1047C000BCE70000000000002DE9F04782B00021A6
:1047D000019140F20C0148F2B513C2F20041C1F65A
:1047E0004E33856D40F26F490A680168C4F20209D0
:1047F0002E68A2FB032849452A6815DC9F22C4F2D3
:10480000020291422CDC5722C4F20202914251DC96
:104810001022C4F2020291427BD02822C4F202028A
:10482000914276D040226FE045F22F43C5F6020355
:10483000994229DC40F2B743C4F20203994245DCB5
:1048400040F27042C4F20202914262D040F28842C9
:10485000C4F2020291425CD040F2A04254E000BF98
:1048600040F22742C4F2020291423FDCA022C4F28D
:10487000020291424DD0B822C4F20202914248D0C5
:1048800040F2104240E000BF45F26B43C5F6020320
:10489000994275DC45F23043C5F60203994200F0B7
:1048A000828045F24443C5F6020399427BD045F22B
:1048B000584373E05822C4F20202914229D0702278
:1048C000C4F20202914224D088221DE040F2B84393
:1048D000C4F2020399421CD045F20843C5F6020314
:1048E000994260D045F21C4358E000BF40F2284294
:1048F000C4F2020291420CD040F24042C4F20202E1
:10490000914206D040F25842C4F20202914240F075
:104910005383C26D082302F01F0240F20F4A9340F6
:10492000C4F2020A334200F0DE8051454FF0040425
:1049300012DC6F27C4F20207B9426DDC3F27C4F2D4
:104940000207B94200F39C801027C4F20207B94263
:1049500000F0BD802827B5E0494569DC40F23F47BB
:10496000C4F20207B94200F3938040F21047C4F248
:104970000207B94200F0AB8040F22847A2E000BF36
:1049800045F26C43C5F6020399420CD045F28043D0
:10499000C5F60203994206D045F29443C5F60203D8
:1049A000994240F009830B68C76D07F01F07042682
:1049B000BE40164218BF13F0040423D10226BE40A5
:1049C000164218BF13F0020442D1FA40120740F118
:1049D000F38213F0080200F0EF820A6822F00E0260
:1049E0000A60012101FA07F26A60416580F835101A
:1049F000C16C00294FF0000280F8342040F0D882CA
:104A0000DAE200BF1A046E6034D49A0636D40A681B
:104A100022F004020A6031E09F27C4F20207B94283
:104A200040DC7027C4F20207B94250D0882749E021
:104A300040F29F47C4F20207B9423BDC40F27047A4
:104A4000C4F20207B94242D040F288473AE000BFC0
:104A50001A046E6000F1B4829A0600F1B5820A6809
:104A600022F00A020A60012180F83510002180F846
:104A70003410A9E2D90301D4816C98E2016C96E26A
:104A80004027C4F20207B94221D058271AE000BFDC
:104A900040F24047C4F20207B94218D040F25847EA
:104AA00010E000BFA027C4F20207B9420FD0B82718
:104AB00008E000BF40F2A047C4F20207B94206D0A6
:104AC00040F2B847C4F20207B94218BF08240F6881
:104AD000274208D00F6827F004070F60AB60436DD2
:104AE00043F0010343650123934033426FD05145A6
:104AF00010DC6F27C4F20207B9421DDC3F27C4F265
:104B00000207B94234DC1027C4F20207B94256D07A
:104B100028274FE049451BDC40F23F47C4F202071B
:104B2000B9422DDC40F21047C4F20207B94246D028
:104B300040F228473EE000BF9F27C4F20207B94277
:104B400028DC7027C4F20207B94238D0882731E048
:104B500040F29F47C4F20207B94223DC40F270479B
:104B6000C4F20207B9422AD040F2884722E000BFCF
:104B70004027C4F20207B94221D058271AE000BFEB
:104B800040F24047C4F20207B94218D040F25847F9
:104B900010E000BFA027C4F20207B9420FD0B82727
:104BA00008E000BF40F2A047C4F20207B94206D0B5
:104BB00040F2B847C4F20207B94240F007824F6999
:104BC0003F0604D5AB60436D43F002034365042305
:104BD000934033426FD0514510DC6F27C4F2020777
:104BE000B9421DDC3F27C4F20207B94234DC10276A
:104BF000C4F20207B94256D028274FE049451BDCD2
:104C000040F23F47C4F20207B9422DDC40F21047A0
:104C1000C4F20207B94246D040F228473EE000BF46
:104C20009F27C4F20207B94228DC7027C4F20207AA
:104C3000B94238D0882731E040F29F47C4F20207DA
:104C4000B94223DC40F27047C4F20207B9422AD0CD
:104C500040F2884722E000BF4027C4F20207B94271
:104C600021D058271AE000BF40F24047C4F20207A3
:104C7000B94218D040F2584710E000BFA027C4F254
:104C80000207B9420FD0B82708E000BF40F2A047A2
:104C9000C4F20207B94206D040F2B847C4F2020794
:104CA000B94240F09B810F68BF0704D5AB60436DEC
:104CB00043F004034365102303FA02F2324200F08A
:104CC000828051454FF0080310DC6F27C4F20207C1
:104CD000B9421DDC3F27C4F20207B94234DC102779
:104CE000C4F20207B94256D028274FE049451BDCE1
:104CF00040F23F47C4F20207B9422DDC40F21047B0
:104D0000C4F20207B94246D040F228473EE000BF55
:104D10009F27C4F20207B94228DC7027C4F20207B9
:104D2000B94238D0882731E040F29F47C4F20207E9
:104D3000B94223DC40F27047C4F20207B9422AD0DC
:104D400040F2884722E000BF4027C4F20207B94280
:104D500021D058271AE000BF40F24047C4F20207B2
:104D6000B94218D040F2584710E000BFA027C4F263
:104D70000207B9420FD0B82708E000BF40F2A047B1
:104D8000C4F20207B94206D040F2B847C4F20207A3
:104D9000B94218BF04230F681F4214D0AA600A68E2
:104DA00052030A6808D4D20508D40A6822F008021F
:104DB0000A60016C21B906E0110351D4016C11B1F4
:104DC000044688472046C16D01F01F02202101FAE8
:104DD00002F3334200F0AF8001681027514511DC27
:104DE0006F26C4F20206B1421EDC3F26C4F2020660
:104DF000B14239DC1026C4F20206B1425BD028264B
:104E000054E000BF49451BDC40F23F46C4F20206B5
:104E1000B14231DC40F21046C4F20206B1424AD03F
:104E200040F2284642E000BF9F26C4F20206B1428B
:104E30002CDC7026C4F20206B1423CD0882635E054
:104E400040F29F46C4F20206B14227DC40F27046AF
:104E5000C4F20206B1422ED040F2884626E000BFDE
:104E6000816C0029ACD1AEE74026C4F20206B14203
:104E700021D058261AE000BF40F24046C4F2020694
:104E8000B14218D040F2584610E000BFA026C4F24C
:104E90000206B1420FD0B82608E000BF40F2A0469B
:104EA000C4F20206B14206D040F2B846C4F202068D
:104EB000B14218BF02270E683E423CD0AB6090F86A
:104EC0003530042B0B681DD123F016030B604B69A2
:104ED00023F080034B61036C0BB9836C1BB10B682F
:104EE00023F008030B603F219140A960012180F865
:104EF0003510016D00294FF0000280F8342057D1A1
:104F00005AE000BF5A030A680CD4D2050ED40A68CE
:104F100022F010020A60012180F83510002180F88B
:104F2000341003E0110301D4416C00E0C16B11B1F6
:104F3000044688472046416D00293DD0416DC90790
:104F400034D0042180F8351001684FEA98220B68AC
:104F500023F001030B60019B0133019393421AD8A4
:104F60000B68DB0717D0019B01330193934212D8E2
:104F70000B68DB070FD0019B0133019393420AD8E2
:104F80000B68DB0707D0019B01330193934202D8E2
:104F90000B68DB07DFD10968C9074FF0030108BFC1
:104FA000012180F83510002180F83410C16C19B14E
:104FB00002B0BDE8F047084702B0BDE8F08700BF87
:104FC000D90301D4416CF2E7C16BF0E70B6804230D
:104FD000934033427FF4FFAD6DE600BF0B686AE695
:104FE0002DE9F041044601F03BFDFCB140F26F4871
:104FF00005462068C4F2020840451BDC9F21C4F22C
:105000000201884232DC5721C4F20201884259DC95
:105010001021C4F20201884200F083802821C4F2EA
:105020000201884200F07D80402175E00120BDE84A
:10503000F08100BF45F22F41C5F60201884229DC0C
:1050400040F2B741C4F20201884247DC40F27041AD
:10505000C4F20201884264D040F28841C4F20201E5
:1050600088425ED040F2A04156E000BF40F22741A6
:10507000C4F20201884241DCA021C4F2020188424C
:105080004FD0B821C4F2020188424AD040F2104108
:1050900042E000BF45F26B41C5F60201884200F3D1
:1050A000D18045F23041C5F60201884200F0DD8032
:1050B00045F24441C5F60201884200F0D68045F22F
:1050C0005841CDE05821C4F20201884229D0702114
:1050D000C4F20201884224D088211DE040F2B84188
:1050E000C4F2020188421CD045F20841C5F6020113
:1050F000884200F0BA8045F21C41B1E040F22841FC
:10510000C4F2020188420CD040F24041C4F20201D4
:10511000884206D040F25841C4F20201884240F071
:105120003981022184F83510002184F83410016897
:1051300021F00101016000BF20680168C9070DD09E
:1051400001F08EFC401B0628F6D32020606503206A
:1051500084F835000120BDE8F08100BF48F23F022D
:1051600004F108060168CFF61062114065694CCE63
:105170001143A2691943E3693143266A0D43616A09
:105180002B43042943EA060343EA020303D1D4E98B
:105190000B652E4333436568A5F12906292E00F2DD
:1051A0003182DFE816F02B002B002B002B002B00A8
:1051B0002B002F022F022F022F022F022F022F026D
:1051C0002F022F022F022F022F022F022F022F0257
:1051D0002F022B002B002B002B002F022F022F025F
:1051E0002F022B002B002F022F022F022F022F0243
:1051F0002F022B002B002B002B0000BF43F4801349
:1052000003600429436923F0070341EA030140F0E6
:10521000DD80D4E90A53002B41EA050100F0D68075
:10522000B2F5005F00F0B880002A40F0C180022D86
:1052300000F0C180012D00F0B580002D00F0BB8092
:10524000C4E000BF45F26C41C5F6020188420CD0B3
:1052500045F28041C5F60201884206D045F29441EC
:10526000C5F60201884240F0958004F1080E022143
:1052700084F83510002184F834100168A3699EE891
:105280000450A2F18005E769B5FA85F566696D09F4
:10529000402A4FEA853543EA07026FF3101142EACC
:1052A000060208BF102541EADC0142EA0E02236A29
:1052B000294341EAD20141EA131140F80819C0B26A
:1052C000CD2148433C2101EA9020E0652046FCF7CF
:1052D0003FF8E16D012201F01F0102FA01F1416086
:1052E0002068404500F381809F21C4F2020188427A
:1052F00014DC5721C4F20201884227DC1021C4F2D9
:105300000201884200F0C7802821C4F202018842CD
:1053100000F0C1804021C4F20201B9E040F227410F
:10532000C4F20201884221DCA021C4F202018842B9
:1053300000F0B180B821C4F20201884200F0AB80D5
:1053400040F21041C4F20201A2E000BF5821C4F2B1
:105350000201884200F09F807021C4F2020188425D
:1053600000F099808821C4F2020191E040F22841C6
:10537000C4F20201884200F08E8040F24041C4F243
:105380000201884200F0878040F25841C4F20201D5
:105390007EE000BF4020D9E6032D17D8DFE805F0F6
:1053A0000E0B0E02A3F1C072B2FA82F2520904E0AF
:1053B000032D03D30AD1C3F300623AB140206065E4
:1053C000012084F83500BDE8F08100BF416120462E
:1053D000FBF7BEFFE16D3F2201F01F0102FA01F170
:1053E0008160206840457FF77FAF45F22F41C5F6C9
:1053F0000201884216DC40F2B741C4F20201884241
:1054000026DC40F27041C4F20201884243D040F2EF
:105410008841C4F2020188423DD040F2A041C4F26A
:10542000020135E045F26B41C5F6020188421FDCFE
:1054300045F23041C5F6020188422CD045F2444184
:10544000C5F60201884226D045F258411EE000BF51
:1054500040F2B841C4F2020188421CD045F2084132
:10546000C5F60201884216D045F21C410EE000BF8D
:1054700045F26C41C5F6020188420CD045F29441D8
:10548000C5F60201884206D045F28041C5F6020108
:10549000884240F0E18045F2574C45F6FC0EC5F6D7
:1054A000020CC5F6020E60450EDC45F22F41C5F632
:1054B0000201884218DC45F20841C5F60201884223
:1054C00028D045F21C4121E045F27F41C5F602019A
:1054D000884213DC45F25841C5F60201884219D0D2
:1054E00045F26C4112E000BF45F23041C5F60201C1
:1054F00088420FD045F2444108E000BF45F2944194
:10550000C5F60201884205D045F28041C5F6020188
:10551000884247D100F0FC014CF6CD420839CCF668
:10552000CC42A1FB0212AEF1FC05AEF17C061309E0
:10553000A26803F01F01802A4FF0010205EB8305EA
:10554000256602FA01F26666A26605D10020606057
:10555000286072601EE000BF6368D9B25F1E072F2B
:105560002960726016D84E1E082E19D260450EF1C1
:10557000440237DC45F22F41C5F60201884249DC7E
:1055800045F20841C5F60201884259D045F21C4156
:1055900052E000BF00206067C4E91B005CE000BF70
:1055A000E06E54E000F0F8014AF6AB221039CAF67A
:1055B000AA22A1FB021240F20F43C4F20203082503
:1055C0001109984203F1AA060B4688BF05EB121396
:1055D00040F60005B042C4F2020505F1800628BF7E
:1055E0000B46A5E745F27F41C5F6020188421BDC68
:1055F00045F25841C5F60201884221D045F26C417E
:105600001AE000BF25F00307742F08BF43F480138E
:10561000F6E500BF45F23041C5F6020188420FD0E1
:1056200045F2444108E000BF45F28041C5F6020161
:10563000884205D045F29441C5F60201884213D153
:105640000EEB83000121E066B14022676167002113
:105650000160D4E91C01416000206065012184F8EB
:105660003510BDE8F08100BF40F60000C4F2020032
:1056700000F1FC0E00F5A072E2E70000000000005F
:1056800030B110B590F83440012C03D1022010BD88
:1056900001207047012480F8344090F83540012CF7
:1056A0002CD1022480F8354000244465D0F800C095
:1056B000DCF8004024F00104CCF800400446FBF77D
:1056C000DBFE40F20F4C2068C4F2020C40F26F4146
:1056D0006045C4F2020119DC6F23C4F20203984250
:1056E00026DC3F23C4F2020398423DDC1023C4F2BF
:1056F000020398425FD0282358E000BF4FF40061B6
:105700004165002180F83410012010BD88421BDC67
:1057100040F23F43C4F2020398422DDC40F21043B2
:10572000C4F20203984246D040F228433EE000BF54
:105730009F23C4F20203984228DC7023C4F20203C0
:10574000984238D0882331E040F29F43C4F20203EC
:10575000984223DC40F27043C4F2020398422AD0FC
:1057600040F2884322E000BF4023C4F20203984283
:1057700021D058231AE000BF40F24043C4F2020394
:10578000984218D040F2584310E000BFA023C4F262
:10579000020398420FD0B82308E000BF40F2B8439C
:1057A000C4F20203984206D040F2A043C4F20203BE
:1057B000984240F02F8103680B2262F34403036098
:1057C000226C1AB1082302681A430260884219DC6D
:1057D0009F22C4F20202904232DC5722C4F202023B
:1057E000904259DC1022C4F20202904200F09680EE
:1057F0002822C4F20202904200F090804022C4F2BB
:10580000020289E045F22F42C5F6020290422DDCE9
:1058100040F2B742C4F2020290424BDC40F27042C6
:10582000C4F20202904279D040F28842C4F20202ED
:10583000904273D040F2A042C4F202026CE000BF7A
:1058400040F22742C4F20202904243DCA022C4F29A
:105850000202904262D0B822C4F2020290425DD0AD
:1058600040F21042C4F2020256E000BF45F26B4221
:10587000C5F6020290423FDC45F23042C5F6020214
:1058800090424BD045F24442C5F60202904245D0C8
:1058900045F258423EE000BF5822C4F20202904254
:1058A0003CD07022C4F20202904237D08822C4F267
:1058B000020231E040F2B842C4F2020290422DD01E
:1058C00045F20842C5F60202904227D045F21C423A
:1058D00020E000BF40F22842C4F2020290421DD0F4
:1058E00040F24042C4F20202904217D040F25842C5
:1058F000C4F2020210E000BF45F26C42C5F602029B
:1059000090420BD045F29442C5F60202904205D077
:1059100045F28042C5F60202904274D1236E1A68A5
:10592000D20303D51A6842F480721A60E36E1BB189
:105930001A6842F480721A60604511DC6F21C4F26B
:10594000020188421EDC3F21C4F20201884235DC9C
:105950001021C4F20201884255D0282150E000BF36
:1059600088421BDC40F23F41C4F2020188422DDC38
:1059700040F21041C4F20201884244D040F2284172
:105980003EE000BF9F21C4F20201884228DC702162
:10599000C4F20201884236D0882131E040F29F41B2
:1059A000C4F20201884223DC40F27041C4F20201D9
:1059B000884228D040F2884122E000BF4021C4F252
:1059C000020188421FD058211AE000BF40F2404136
:1059D000C4F20201884216D040F2584110E000BFE4
:1059E000A021C4F2020188420DD0B82108E000BF16
:1059F00040F2B841C4F20201884204D040F2A04112
:105A0000C4F202018842016841F0010101600020F6
:105A100010BD00BF0268052363F343020260226CDD
:105A2000002A3FF4D3AE0423CDE6000000000000BE
:105A3000B0B5044601F014F840F204010546C2F284
:105A40000041621C097818BF0C4400BF01F008F83F
:105A5000401BA042FAD3B0BD90F89830013B012B17
:105A60000ED80068836D0B4212D0836D0B408B42C1
:105A700032D1C36D43F00203C3658B050ED412E02F
:105A800000F19C01012002220B681A430A60704752
:105A9000C36D43F00103C3658B0504D5D0F8E03036
:105AA0001343C0F8E0304B0504D5D0F8E4301A4376
:105AB000C0F8E4204FF6FF72436DC3F6CF720A4080
:105AC0001A4342658A0F4AF614010020C4F200010D
:105AD0000B681A430A6070470323C3658B05DDD446
