:020000040800F2
:1000000030200024E102000861480108C1280108ED
:10001000D1410108B1190008C98E01080000000093
:10002000000000000000000000000000B1650108B1
:10003000915C00080000000031570108816B010845
:10004000FB020008FB020008FB020008FB0200089C
:10005000FB020008FB020008FB020008FB0200088C
:10006000FB020008FB020008F15F00086924000899
:10007000792400088924000899240008A92400088C
:10008000B9240008C9240008FB020008196600080A
:100090003966000829660008496600080160000802
:1000A000FB020008FB020008FB020008FB0200083C
:1000B000D16D0108E16D0108F16D0108FB02000836
:1000C000FB020008FB020008FB020008FB0200081C
:1000D000FB020008998E0108A98E0108B98E01085B
:1000E000E15F0008FB02000800000000FB020008BE
:1000F000FB020008FB020008FB020008D9240008EC
:10010000FB020008FB020008FB020008FB020008DB
:10011000B97B0108FB020008FB020008FB02000893
:10012000E9240008F9240008FB020008FB0200088B
:10013000FB020008FB020008FB020008FB020008AB
:1001400000000000000000000000000000000000AF
:10015000FB020008FB020008FB020008FB0200088B
:10016000FB020008FB020008FB020008FB0200087B
:10017000FB020008FB020008FB0200080000000070
:10018000FB020008FB020008FB020008FB0200085B
:10019000A9630108FB020008FB020008FB0200083B
:1001A000FB020008FB020008FB0200080000000040
:1001B000FB020008FB020008FB020008FB0200082B
:1001C000FB020008FB020008000000000000000025
:1001D0000000000000000000FB020008000000001A
:1001E000000000000000000000000000000000000F
:1001F0000000000000000000FB020008FB020008F5
:10020000FB020008FB02000800000000FB020008DF
:10021000FB020008FB020008FB020008FB020008CA
:10022000FB02000800000000FB02000800000000C4
:10023000FB020008FB02000800000000FB020008AF
:10024000FB020008FB020008FB020008FB0200089A
:10025000FB020008FB020008FB020008FB0200088A
:10026000FB020008FB020008FB020008FB0200087A
:10027000FB020008FB020008FB020008000000006F
:10028000FB020008FB020008FB020008FB0200085A
:1002900000000000FB020008FB0200080000000054
:1002A00000000000FB020008FB020008FB0200083F
:1002B000898E0108FB020008FB020008596600084D
:1002C00069660008FB020008FB020008DFF80CD09A
:1002D00000F0C6F900480047F1A2010830200024D0
:1002E0000648804706480047FEE7FEE7FEE7FEE7D0
:1002F000FEE7FEE7FEE7FEE7FEE7FEE7916C01089A
:10030000CD0200082DE9F05F0546002092469B468D
:1003100088460646814640241BE02846414647461B
:10032000224600F0E1F853465A46C01A914110D3D4
:1003300011461846224600F0C8F82D1A67EB01084E
:100340004F4622460120002100F0BFF817EB0009BC
:100350004E41201EA4F10104DFDC484631462A4606
:100360004346BDE8F09F40EA01039B0703D009E044
:1003700008C9121F08C0042AFAD203E011F8013B91
:1003800000F8013B521EF9D27047D2B201E000F8EA
:10039000012B491EFBD270470022F6E710B5134629
:1003A0000A4604461946FFF7F0FF204610BD421CDE
:1003B00010F8011B0029FBD1801A704710B50022EC
:1003C00000E0521C835C8C5CA34201D1002BF8D16D
:1003D000D8B2E1B2401A10BD034611F8012B00F863
:1003E000012B002AF9D118467047F0B4CA17CB0F79
:1003F00050405140C61841F100054FEAC3723146E2
:1004000028004FF0960303D0B623F0BC00F085B867
:1004100030460021F9E73EB5CA17CB0F0024504003
:100420005140C0186141DA0740F233430094CDE9EE
:1004300001232246234600F0ADF803B030BD10B5CD
:1004400000F0004420F00040C20DC0F3160040F45C
:1004500000007F2A02DA0020014610BD0021962A02
:1004600003DCC2F19602D04002E0963A00F02DF88B
:10047000002CF2D00023D0EB030063EB010110BD90
:1004800070B5C1F30A5201F000450024C1F3130115
:1004900040F2FF3341F480119A4202DA0020014613
:1004A00070BD40F233439A42A2F2334203DC52421F
:1004B00000F01AF801E000F008F82C43F0D0002317
:1004C000D0EB030063EB010170BD202A04DB203A6E
:1004D00000FA02F1002070479140C2F1200320FA97
:1004E00003F3194390407047202A04DB203A21FA95
:1004F00002F00021704721FA02F3D040C2F120023D
:1005000091400843194670470029A8BF7047401C16
:10051000490008BF20F00100704710B4B0FA80FC19
:1005200000FA0CF050EA010404BF10BC704749B156
:10053000CCF1200421FA04F411FA0CF118BF0121C6
:1005400021430843A3EB0C01CB1D4FEA00614FEAA6
:10055000102042BF002010BC704700EBC350104475
:100560000029A4BF10BC7047401C490008BF20F000
:10057000010010BC704710B5141E73F1000408DAB6
:10058000401C41F1000192185B411A4301D120F057
:10059000010010BD2DE9F04D92469B4611B1B1FA14
:1005A00081F202E0B0FA80F220329046FFF78DFF30
:1005B00004460F4640EA0A0041EA0B0153465A46F8
:1005C000084313D0114653EA010019D0C8F1400284
:1005D0005046FFF789FF05460E46504659464246AB
:1005E000FFF773FF084305D0012004E02046394699
:1005F000BDE8F08D0020054346EAE0762C43374302
:100600000A986305E40AA0EB08000022FD0A44EA08
:1006100047540A3002D500200146E9E701051019C8
:100620006941DDE9084500196941BDE8F04DA2E7DF
:1006300070B521F0004303430CD0C1F30A550024E8
:10064000D5EB040564EB0403D617AD1AB34102DB06
:100650000020014670BD201841EB025170BD000022
:100660001CB509480090094801900546009C06E029
:10067000E06840F0010394E8070098471034AC426A
:10068000F6D3FFF727FE0000C0D50108F0D501081A
:1006900070B58C1810F8015B15F0070301D110F844
:1006A000013B2A1106D110F8012B03E010F8016B71
:1006B00001F8016B5B1EF9D12B0705D40023521EF4
:1006C0000DD401F8013BFAE710F8013BCB1A921C5C
:1006D00003E013F8015B01F8015B521EF9D5A1425A
:1006E000D8D3002070BD000041F6EC30C2F20040CB
:1006F0008168098800EE101AB8EEC03A9FED102A02
:100700009FED100AB0EE401AA3EE021A80ED031A14
:100710008168498801EE101AB8EEC13AB0EE401A6D
:10072000A3EE021A80ED061A8168898801EE101A7C
:10073000B8EEC11AA1EE020A80ED090A704700BFA7
:100740000AD7233C0000A0C380B582B040F27C11E0
:10075000C2F2004108684A688B6841F21861C2F22F
:10076000004101918B604A60086015F051F80198D2
:1007700090ED003A90ED012A90ED030A90ED041AF5
:1007800030EE430AB7EEC00A31EE421AB7EEC11A94
:100790001BF0E2FB9FED1A1BB4EE410BF1EE10FAD9
:1007A00007DAFFE74DF23F50C0F6010015F0CCFF2D
:1007B000FFE741F21860C2F2004090ED003A90ED80
:1007C000012A90ED030A90ED041A30EE430AB7EEC9
:1007D000C00A31EE421AB7EEC11A1BF0BDFB9FED05
:1007E000081BB4EE410BF1EE10FA07DAFFE740F216
:1007F000C441C2F2004101200870FFE702B080BD91
:100800000000000000407F4080B590B040F22040E2
:10081000C2F2004090ED0D1A90ED100A30EE410A40
:1008200040F2E030C2F2004080ED0D0A90ED000A87
:1008300090ED0D1A20EE010A8DED0E0A90ED090AD9
:1008400090ED0A1A41F21860C2F2004090ED163A9B
:1008500090ED182A20EE030AA1EE020AB7EE001A64
:10086000B4EE410AF1EE10FA05DAFFE7B7EE000A3E
:100870008DED0C0A3CE040F2E030C2F2004090ED19
:10088000090A90ED0A1A41F21860C2F2004090ED98
:10089000163A90ED182A20EE030AA1EE020AB1EEF4
:1008A000001AB4EE410AF1EE10FA05DDFFE7B1EEF1
:1008B000000A8DED0B0A16E040F2E030C2F2004073
:1008C00090ED090A90ED0A1A41F21860C2F2004058
:1008D00090ED163A90ED182A20EE030AA1EE020AD6
:1008E0008DED0B0AFFE79DED0B0A8DED0C0AFFE77E
:1008F0009DED0C0A40F2E030C2F2004080ED0C0A9F
:1009000090ED020A41F21861C2F2004191ED0F1A16
:1009100020EE010A8DED0D0A90ED051A90ED0D0AFD
:10092000B7EEC00AB0EEC00BB7EEC11AB4EE410B81
:10093000F1EE10FA0BDAFFE740F2E030C2F20040CD
:1009400090ED050AB7EEC00A8DED080B30E040F2DD
:10095000E030C2F2004090ED061A90ED0D0AB7EEBD
:10096000C00AB0EEC00BB7EEC11AB4EE410BF1EE07
:1009700010FA0BDDFFE740F2E030C2F2004090EDEC
:10098000060AB7EEC00A8DED060B0CE040F2E0302F
:10099000C2F2004090ED0D0AB7EEC00AB0EEC00BF7
:1009A0008DED060BFFE79DED060B8DED080BFFE7C8
:1009B0009DED080B40F2E030C2F20040059090ED52
:1009C000052A90ED061AB7EEC23A30EE430B31EE2F
:1009D000421AB7EEC11A80EE010BB0EE001B1BF0FD
:1009E00007FC0598B0EE401B90ED0C0AB7EEC00A6C
:1009F00020EE010BB7EEC00B80ED0C0A90ED051A4E
:100A000090ED0D0AB7EEC00AB0EEC00BB7EEC11AFA
:100A1000B4EE410BF1EE10FA6BDDFFE740F2E0308F
:100A2000C2F2004090ED061A90ED0D0AB7EEC00A32
:100A3000B0EEC00BB7EEC11AB4EE410BF1EE10FAF6
:100A400057DAFFE740F2E030C2F2004090ED012AB1
:100A500090ED071A90ED0D3A90ED0E0AA2EE030A02
:100A6000B1EE411AB4EE410AF1EE10FA0BDAFFE7EB
:100A700040F2E030C2F2004090ED070AB1EE400AC9
:100A80008DED040A30E040F2E030C2F2004090ED1B
:100A9000012A90ED071A90ED0D3A90ED0E0AA2EEA4
:100AA000030AB4EE410AF1EE10FA09DDFFE740F265
:100AB000E030C2F2004090ED070A8DED030A0EE02F
:100AC00040F2E030C2F2004090ED011A90ED0D2AA4
:100AD00090ED0E0AA1EE020A8DED030AFFE79DEDEF
:100AE000030A8DED040AFFE79DED040A8DED020A6D
:100AF00004E09FED370A8DED020AFFE79DED020A43
:100B000040F2E030C2F2004080ED0E0A9DED0E3A58
:100B100090ED081A90ED0C2A90ED0E0AA2EE030A51
:100B20009DED0D2A30EE420AB1EE411AB4EE410AB3
:100B3000F1EE10FA0BDAFFE740F2E030C2F20040CB
:100B400090ED080AB1EE400A8DED010A38E040F25E
:100B5000E030C2F200409DED0E3A90ED081A90EDA3
:100B60000C2A90ED0E0AA2EE030A9DED0D2A30EE3E
:100B7000420AB4EE410AF1EE10FA09DDFFE740F255
:100B8000E030C2F2004090ED080A8DED000A12E05C
:100B900040F2E030C2F200409DED0E2A90ED0C1ABA
:100BA00090ED0E0AA1EE020A9DED0D1A30EE410AFB
:100BB0008DED000AFFE79DED000A8DED010AFFE7CC
:100BC0009DED010A8DED0F0A9DED0F0A10B080BD5D
:100BD000000000000000000040F2E031C2F20041DD
:100BE0000020C4F25C2008604FF0804048604DF265
:100BF0000A70C3F6A33088600020C4F27A40C8614E
:100C00004CF6CD40C3F6CC5048610020C4F2C00081
:100C1000886144F20000C4F29C50086243F2333011
:100C2000C3F6B36048624CF6CD40C3F64C608862B0
:100C300040F22041C2F2004142F20000C4F294406E
:100C400048604FF0814088604FF07C5008614CF65E
:100C5000CD40C3F6CC604861002008600020C4F29B
:100C60007020C8607047000080B594B040F220400A
:100C7000C2F2004090F95D00012801D1FFE70AE1CE
:100C800040F22040C2F200401390D0ED070A90EDF0
:100C9000080A1AF0B1FF13989FED801A20EE010A9E
:100CA0009FED7F1A80EE010A90ED031AB1EE411A12
:100CB000B4EE410AF1EE10FA0BDAFFE740F2204001
:100CC000C2F2004090ED030AB1EE400A8DED120A27
:100CD0003EE040F22040C2F200401190D0ED070A01
:100CE00090ED080A1AF088FF11989FED6C1A20EE1B
:100CF000010A9FED6B1A80EE010A90ED031AB4EE23
:100D0000410AF1EE10FA09DDFFE740F22040C2F29D
:100D1000004090ED030A8DED100A14E040F22040EF
:100D2000C2F20040D0ED070A90ED080A1AF064FF05
:100D30009FED5A1A20EE010A9FED591A80EE010A22
:100D40008DED100AFFE79DED100A8DED120AFFE709
:100D50009DED120A40F22040C2F200400F9080ED5B
:100D6000100A41F64001C2F20041099191ED080AD2
:100D7000B7EEC00A8DED040B90ED011A90ED100A4C
:100D8000B7EEC11A8DED001B9FED451A8DED021ACD
:100D900020EE010A9FED411A8DED031A80EE010A43
:100DA000B7EEC00A1BF080F89DED003B9DED022AD6
:100DB0009DED031A09990F98B0EE404B9DED040B81
:100DC000A3EE440BB7EEC00B80ED0E0A91ED090ABD
:100DD000B7EEC00A8DED0A0B90ED013A90ED100AC6
:100DE000B7EEC33A8DED063B20EE020A80EE010A13
:100DF000B7EEC00A1BF060FE9DED061B099A0F9925
:100E0000B0EE402B9DED0A0BA1EE420BB7EEC00BEE
:100E100081ED0F0A91ED021A91ED100A30EE010AF0
:100E200081ED100A40F28440C2F2004000230D938D
:100E3000836343630363C3628362436280F83C302D
:100E400041F21860C2F200400E9083674367036767
:100E5000C3668366436691ED0E0A92ED111A30EE79
:100E6000410A80ED190A91ED0F0A92ED121A30EE47
:100E7000410A80ED1A0A91ED100A90ED0E1A30EE3B
:100E8000410A80ED1B0A0BF0D7FD0F99086601207F
:100E900081F85D00FFE714B080BD00BF000034435F
:100EA000DA0F49400000000080B586B08DED050ADC
:100EB00041F64001C2F200414A6C8B6CD1F84CC043
:100EC00040F22040C2F20040C0F834C00363C26266
:100ED00091ED100A90ED051A41F21860C2F200403F
:100EE00090ED0F2A9FED8B3A22EE032A9FED8A3A6E
:100EF0008DED043A82EE032A61EE020A40F28C1074
:100F0000C2F2004005F008F89DED041AB4EE410A63
:100F1000F1EE10FA29DDFFE741F64000C2F2004091
:100F200090ED100A40F22040C2F2004090ED051A08
:100F300041F21860C2F2004090ED0F2A9FED753A21
:100F400022EE032A9FED743A82EE032A61EE020A32
:100F500040F28C10C2F2004004F0DEFF9FED711AE7
:100F600030EE010A8DED030A7CE041F64000C2F24A
:100F7000004090ED100A40F22040C2F2004090ED97
:100F8000051A41F21860C2F2004090ED0F2A9FED61
:100F9000613A22EE032A9FED603A82EE032A61EE67
:100FA000020A40F28C10C2F2004004F0B5FF9FED3F
:100FB0005B1AB4EE410AF1EE10FA29DAFFE741F6C6
:100FC0004000C2F2004090ED100A40F22040C2F210
:100FD000004090ED051A41F21860C2F2004090ED19
:100FE0000F2A9FED4C3A22EE032A9FED4B3A82EEF8
:100FF000032A61EE020A40F28C10C2F2004004F0B3
:101000008BFF9FED471A30EE010A8DED020A24E0B6
:1010100041F64000C2F2004090ED100A40F220403C
:10102000C2F2004090ED051A41F21860C2F2004091
:1010300090ED0F2A9FED373A22EE032A9FED363AC4
:1010400082EE032A61EE020A40F28C10C2F20040E6
:1010500004F062FF8DED020AFFE79DED020A8DEDBF
:10106000030AFFE79DED030A40F22040C2F2004070
:10107000009080ED0D0A41F64001C2F2004191ED71
:10108000080A90ED0B1A30EE410A80ED070A91ED47
:10109000090A90ED0C1A30EE410A80ED080AD0EDF5
:1010A000070A90ED080A1AF0A7FD009880ED0A0AD9
:1010B00090ED070A90ED081AB7EEC00AB7EEC11A14
:1010C0001AF04AFF0098B7EEC00B80ED090A90EDC8
:1010D000090A00209FED141AB4EE410AF1EE10FA4D
:1010E00001900CDAFFE741F64000C2F2004090F9AF
:1010F00000000138B0FA80F040090190FFE7019844
:1011000000F0010040F22041C2F2004181F85C0091
:1011100006B080BDDA0F494000003443000034C3FC
:101120000000B4430000B4C300002F4400000000DE
:1011300080B5A2B0FFF798FD40F22040C2F2004017
:1011400090ED0B1A90ED0E0A30EE410A8DED210A5A
:1011500090ED0C1A90ED0F0A30EE410A8DED200A49
:101160009DED210AB7EEC00A9DED201AB7EEC11A17
:101170001AF0F2FEB7EEC00B40F28440C2F200401B
:1011800080ED0A0A90ED041A90ED0A0AB7EEC00A43
:10119000B0EEC00BB7EEC11AB4EE410BF1EE10FA8F
:1011A0000BDAFFE740F28440C2F2004090ED040AFF
:1011B000B7EEC00A8DED180B30E040F28440C2F269
:1011C000004090ED031A90ED0A0AB7EEC00AB0EEA7
:1011D000C00BB7EEC11AB4EE410BF1EE10FA0BDD05
:1011E000FFE740F28440C2F2004090ED030AB7EE00
:1011F000C00A8DED160B0CE040F28440C2F20040B4
:1012000090ED0A0AB7EEC00AB0EEC00B8DED160BDA
:10121000FFE79DED160B8DED180BFFE79DED180B0D
:1012200040F28440C2F20040159090ED031A90ED18
:10123000042AB7EEC23A30EE430B31EE421AB7EE53
:10124000C11A80EE010BB0EE001B1AF0D1FF159809
:10125000B7EEC00B80ED090A90ED000A9DED211A52
:1012600020EE010A8DED1F0A9DED210AB7EEC00A9E
:10127000B0EEC00B90ED061AB7EEC11AB4EE410BFA
:10128000F1EE10FA21DAFFE79DED210AB7EEC00A70
:10129000B0EEC00B40F28440C2F2004090ED051A5F
:1012A000B7EEC11AB4EE410BF1EE10FA0DDDFFE717
:1012B00040F28440C2F2004090ED020A9DED211AF6
:1012C00020EE010A8DED140A04E09FEDC60A8DEDB3
:1012D000140AFFE79DED140A8DED1E0A9DED210A0B
:1012E000B7EEC00AB0EEC00B40F28440C2F200403C
:1012F00090ED051AB7EEC11AB4EE410BF1EE10FAFB
:1013000005DAFFE79FEDB70A8DED130A50E040F2D2
:101310008440C2F2004090ED071A90ED0B0A9DED5B
:101320001E2A30EE020AB1EE411AB4EE410AF1EE85
:1013300010FA0BDAFFE740F28440C2F2004090ED71
:10134000070AB1EE400A8DED120A2CE040F284400B
:10135000C2F2004090ED071A90ED0B0A9DED1E2A97
:1013600030EE020AB4EE410AF1EE10FA09DDFFE7B1
:1013700040F28440C2F2004090ED070A8DED110A60
:101380000CE040F28440C2F2004090ED0B0A9DED6B
:101390001E1A30EE010A8DED110AFFE79DED110ACC
:1013A0008DED120AFFE79DED120A8DED130AFFE79E
:1013B0009DED130A40F28440C2F2004080ED0B0A1A
:1013C0009DED1F2A90ED091A90ED0B0AA1EE020A7D
:1013D00080ED0D0A90ED000A9DED201A20EE010A25
:1013E0008DED1D0A9DED200AB7EEC00AB0EEC00BD0
:1013F00090ED061AB7EEC11AB4EE410BF1EE10FAF9
:1014000021DAFFE79DED200AB7EEC00AB0EEC00B6F
:1014100040F28440C2F2004090ED051AB7EEC11AC6
:10142000B4EE410BF1EE10FA0DDDFFE740F284401F
:10143000C2F2004090ED020A9DED201A20EE010A52
:101440008DED100A04E09FED9F0A8DED100AFFE775
:101450009DED100A8DED1C0A9DED200AB7EEC00A25
:10146000B0EEC00B40F28440C2F2004090ED051A8D
:10147000B7EEC11AB4EE410BF1EE10FA05DAFFE750
:101480009FED900A8DED0F0A50E040F28440C2F2C9
:10149000004090ED071A90ED0C0A9DED1C2A30EEED
:1014A000020AB1EE411AB4EE410AF1EE10FA0BDA7B
:1014B000FFE740F28440C2F2004090ED070AB1EE2F
:1014C000400A8DED0E0A2CE040F28440C2F200404A
:1014D00090ED071A90ED0C0A9DED1C2A30EE020AE1
:1014E000B4EE410AF1EE10FA09DDFFE740F2844064
:1014F000C2F2004090ED070A8DED0D0A0CE040F2BB
:101500008440C2F2004090ED0C0A9DED1C1A30EEB2
:10151000010A8DED0D0AFFE79DED0D0A8DED0E0A16
:10152000FFE79DED0E0A8DED0F0AFFE79DED0F0A17
:1015300040F28440C2F200400C9080ED0C0A9DED18
:101540001D2A90ED091A90ED0C0AA1EE020A80ED19
:101550000E0A90ED0D0A90ED0E1AB7EEC00AB7EE26
:10156000C11A1AF0F9FC0C9890ED081AB1EE411A64
:10157000B7EEC11AB4EE410BF1EE10FA0DDAFFE747
:1015800040F28440C2F2004090ED080AB1EE400AF9
:10159000B7EEC00A8DED0A0B3CE040F28440C2F287
:1015A0000040099090ED0D0A90ED0E1AB7EEC00ABA
:1015B000B7EEC11A1AF0D0FC099890ED081AB7EEF0
:1015C000C11AB4EE410BF1EE10FA0DDDFFE740F267
:1015D0008440C2F2004090ED080AB7EEC00A8DEDDB
:1015E000060B12E00000000040F28440C2F200400E
:1015F00090ED0D0A90ED0E1AB7EEC00AB7EEC11AC3
:101600001AF0AAFC8DED060BFFE79DED060B8DEDA4
:101610000A0BFFE79DED0A0BB7EEC00B8DED1B0A21
:101620009DED200ADDED210A1AF0E6FA40F2204095
:10163000C2F2004090ED0D1A9FED232A21EE021A0E
:101640009FED222A81EE021A30EE010A8DED1A0A70
:101650009DED1B0AB7EEC00A8DED000B9DED1A0A39
:10166000B7EEC00A1BF028FAB0EE401B9DED000B50
:1016700020EE010BB7EEC00B8DED050A9DED1B0AA8
:10168000B7EEC00A8DED020B9DED1A0AB7EEC00A47
:101690001AF00AFCB0EE401B9DED020B20EE010B90
:1016A000B7EEC00B8DED040AFFF7AEF8DDED040ACE
:1016B000B0EE401A9DED050A00F0EEF900F0B4F826
:1016C00022B080BD00000000DA0F49C000003443A2
:1016D00080B584B040F23B60C2F20040007A01382D
:1016E00001460391052800F29B800399DFE801F091
:1016F000032531517E914DF22450C0F6010016F0C1
:1017000047F8FFF715FD40F28440C2F2004090F91F
:101710003C00012803D1FFE70220029006E040F2DE
:101720003B60C2F20040007A0290FFE7029840F26C
:101730003B61C2F20041087272E016F0CDF938B197
:10174000FFE740F23B61C2F2004103200872FFE76D
:1017500066E04DF23150C0F6010016F019F840F283
:101760003B60C2F2004090F90100012803D1FFE77D
:101770000420019006E040F23B60C2F20040007A93
:101780000190FFE7019840F23B61C2F2004108720C
:1017900046E0FFF739F8B0EE401ADFED220AB0EE6E
:1017A000600A00F079F940F2E030C2F2004090EDBA
:1017B0000D0AB7EEC00AB0EEC00BB7EE081BB4EED0
:1017C000410BF1EE10FA03DAFFE70520009006E086
:1017D00040F23B60C2F20040007A0090FFE70098C0
:1017E00040F23B61C2F20041087219E04DF24950EB
:1017F000C0F6010014F0A8FF4DF23750C0F601000A
:1018000015F0C6FF40F23B61C2F2004106200872AB
:1018100006E040F23B61C2F2004101200870FFE7A0
:1018200004B080BD0000000080B588B003200790A0
:10183000FFE70798012810DBFFE7079A40F2D01175
:10184000C2F2004101EB820050F8040C41F8220082
:10185000FFE7079801380790EBE7002003908DF829
:101860001B0040F22040C2F2004090ED0B3A90ED98
:101870000C2A90ED0E0A90ED0F1A30EE430AB7EEE7
:10188000C00A31EE421AB7EEC11A1AF065FB03988E
:10189000B7EEC00B8DED050A0490FFE7049803280E
:1018A00022DCFFE79DED050A049940F2D010C2F258
:1018B000004000EB810090ED001AB4EE410AF1EE19
:1018C00010FA05DDFFE79DF91B000130029003E0EF
:1018D0009DF91B000290FFE702988DF81B00FFE7BF
:1018E000049801300490D9E7059840F2D011C2F273
:1018F0000041086040F2E030C2F2004090ED0D0A75
:10190000B7EEC00AB0EEC00B9FED251BB4EE410B45
:10191000F1EE10FA24DAFFE79DF91B0003280EDB35
:10192000FFE740F28440C2F2004090ED0A0A9FEDCA
:101930001E1AB4EE410AF1EE10FA0EDBFFE740F298
:101940008440C2F2004090ED0A0AB3EE041AB4EEED
:10195000410AF1EE10FA03DAFFE70120019007E0F7
:1019600040F28440C2F2004090F93C000190FFE751
:10197000019940F28440C2F2004080F83C1090F996
:101980003C00012807D1FFE74DF2B450C0F601003A
:1019900014F0DAFEFFE708B080BD00BF00BF00BF53
:1019A0009A999999999901400000A042000000007D
:1019B000FFE7FEE70000000080B54AF2C400C4F271
:1019C00000000068800200280ED5FFE740F21810E2
:1019D000C2F20040016841F6EC00C2F20040FEF79E
:1019E000FBFC11F0B9FCFFE74AF2C440C4F200006E
:1019F0000068800200280ED5FFE740F21810C2F2FE
:101A00000040016841F6EC00C2F20040FEF7E4FC41
:101A100011F002FDFFE74DF2C440C4F2000000687F
:101A2000800200280ED5FFE740F21810C2F20040F5
:101A3000016841F6EC00C2F20040FEF7CDFC11F067
:101A40004BFDFFE780BD000082B00190009101983E
:101A5000B12807D1FFE740F23B61C2F2004101200B
:101A60004870FFE70198B22807D1FFE740F23B61D9
:101A7000C2F200410120C871FFE702B070470000C8
:101A800082B001900198006800909DED000A02B0BC
:101A9000704700000000000080B58AB08DED090A93
:101AA000CDED080A8DED071A089A40F2C441C2F242
:101AB00000410291084640F8042F00909DED090A6C
:101AC000B7EEC00A9DED071AB7EEC11A9FED782B4D
:101AD000A1EE020BB7EEC00B81ED020A9DED080AE4
:101AE000B7EEC00A9DED071AB7EEC11A9FED724B13
:101AF000A1EE440BB7EEC00B81ED060A01F118020E
:101B000001929DED090AB7EEC00A9DED071AB7EEE6
:101B1000C11A9FED6B3BA1EE430BB7EEC00B81EDFD
:101B2000070A9DED080AB7EEC00A9DED071AB7EE49
:101B3000C11AA1EE040BB7EEC00B81ED0B0A01F147
:101B40002C0203929DED090AB7EEC00A9DED071A1B
:101B5000B7EEC11AA1EE430BB7EEC00B81ED0C0A34
:101B6000089B0A4642F8403F06929DED090AB7EEEF
:101B7000C00A9DED071AB7EEC11AA1EE420BB7EEEF
:101B8000C00B82ED010A91ED020AB7EEC00A90ED9A
:101B9000001AB7EEC11A1AF0DFF902980699B7EEEB
:101BA000C00B01ED0D0A90ED061A90ED070AB7EE95
:101BB000C00AB7EEC11A1AF0CFF902980699B7EE2B
:101BC000C00B01ED080A90ED0B1A90ED0C0AB7EE70
:101BD000C00AB7EEC11A1AF0BFF90698B7EEC00BEB
:101BE00000ED030A90ED001A90ED010AB7EEC00A6D
:101BF000B7EEC11A1AF0B0F900980299069AB7EE3A
:101C0000C00B82ED020A91ED020AD0ED000A19F034
:101C1000F3FF009906989FED2C1A8DED041A20EE23
:101C2000010A9FED2A1A8DED051A80EE010A143083
:101C300012F0D2FA0298D0ED060A90ED070A19F0D8
:101C4000DBFF01999DED042A9DED051A069820EE13
:101C5000020A80EE010A2C3012F0BEFA0298D0ED92
:101C60000B0A90ED0C0A19F0C7FF03999DED042AA9
:101C70009DED051A069820EE020A80EE010A443016
:101C800012F0AAFA0698D0ED000A90ED010A19F0B8
:101C9000B3FF9DED042A9DED051A069920EE020A78
:101CA00080EE010A01F15C0012F096FA0AB080BDE4
:101CB0007B14AE47E17AF03FA29C685721E5EE3FE6
:101CC00079E9263108ACD03F00003443DA0F4940AF
:101CD00080B588B08DF81E009DF81E0020B9FFE782
:101CE0004FF4FA6005902CE09DF81E00012804D105
:101CF000FFE741F28830049020E09DF81E000228A2
:101D000004D1FFE74FF4FA50039014E09DF81E0051
:101D1000032804D1FFE740F6B830029008E09DF8B0
:101D20001E100020042908BF41F288300290FFE70E
:101D300002980390FFE703980490FFE7049805904A
:101D4000FFE705980690069820B9FFE700208DF878
:101D50001F001DE00AF070FE40F21C11C2F20041AB
:101D6000C968401A069988420ED9FFE741F2483106
:101D7000C2F20041022048700120019010F064FD81
:101D800001988DF81F0003E000208DF81F00FFE789
:101D90009DF81F0008B080BD40F21C11C2F2004146
:101DA0000020887041F24831C2F20041487070470B
:101DB00080B5CEB004A801904FF494710291FEF763
:101DC000EBFA0199029A40F69050C2F2004004905A
:101DD00041F20000C5F6020005904FF40043ADF853
:101DE000183007904FF40060ADF8200040F2004337
:101DF000C5F6020309934FF4806CADF828C00B932D
:101E0000ADF8300001208DF8350002208DF8360045
:101E100003208DF8370004238DF838300A238DF81D
:101E200039300B238DF83A300C238DF83B300D23DD
:101E30008DF83C308DF83D00AA208DF83E00BB2087
:101E40008DF83F00CC208DF84000DD208DF841005A
:101E500005208DF8420044F6D900C0F601004C90F0
:101E600041F29830C2F200400390FEF77CFA0398EA
:101E700012F0DEFD4EB080BD80B582B040F2F010B1
:101E8000C2F2004090F9000004280BD0FFE740F2B6
:101E9000C440C2F200400078042803D1FFE70120CB
:101EA000019007E040F23B60C2F2004090F906006A
:101EB0000190FFE7019840F23B61C2F20041887156
:101EC00040F2F010C2F2004090F9000004280BD15B
:101ED000FFE740F2C440C2F200400078042803D07B
:101EE000FFE70020009007E040F23B60C2F20040B4
:101EF00090F906000090FFE7009840F23B61C2F2C3
:101F00000041887140F2F010C2F2004090F90000E8
:101F100003280BD0FFE740F2C440C2F20040007833
:101F2000032803D1FFE704F077FEFFE740F2C44047
:101F3000C2F20040007840F2F011C2F20041087095
:101F400002B080BD0000000096B08DED150A9DED39
:101F5000150A41F21860C2F2004090ED051A90EDAA
:101F60000F2A30EE410A40F29050C2F2004090ED4C
:101F7000041AA1EE020A9FEDE11AB4EE410AF1EE55
:101F800010FA1BDDFFE79DED150A41F21860C2F261
:101F9000004090ED051A90ED0F2A30EE410A40F214
:101FA0009050C2F2004090ED041AA1EE020A9FED9B
:101FB000D41A30EE010A8DED100A52E09DED150A9B
:101FC00041F21860C2F2004090ED051A90ED0F2A20
:101FD00030EE410A40F29050C2F2004090ED041AF7
:101FE000A1EE020A9FEDC71AB4EE410AF1EE10FA13
:101FF0001BDAFFE79DED150A41F21860C2F20040BE
:1020000090ED051A90ED0F2A30EE410A40F2905003
:10201000C2F2004090ED041AA1EE020A9FEDBA1A36
:1020200030EE010A8DED0F0A16E09DED150A41F222
:102030001860C2F2004090ED051A90ED0F2A30EEC4
:10204000410A40F29050C2F2004090ED041AA1EE15
:10205000020A8DED0F0AFFE79DED0F0A8DED100AC4
:10206000FFE79DED100A8DED140A40F29050C2F288
:10207000004090ED020A9DED141A20EE010A8DED4C
:10208000120A41F21861C2F2004191ED163A91ED47
:10209000182A90ED001A90ED010A20EE030AA1EE35
:1020A000020AB7EE001AB4EE410AF1EE10FA05DAB0
:1020B000FFE7B7EE000A8DED0E0A3CE040F29050CB
:1020C000C2F2004041F21861C2F2004191ED163AAD
:1020D00091ED182A90ED001A90ED010A20EE030A06
:1020E000A1EE020AB1EE001AB4EE410AF1EE10FAC6
:1020F00005DDFFE7B1EE000A8DED0D0A16E040F2B6
:102100009050C2F2004041F21861C2F2004191EDDC
:10211000163A91ED182A90ED001A90ED010A20EE82
:10212000030AA1EE020A8DED0D0AFFE79DED0D0AEF
:102130008DED0E0AFFE79DED0E0A8DED110A9DED66
:10214000140AB7EEC00AB0EEC00B40F29050C2F2D3
:10215000004090ED091AB7EEC11AB4EE410BF1EE52
:1021600010FA51DAFFE79DED140A40F29050C2F2E6
:10217000004090ED091A80EE010AB7EEC00AB0EEF9
:10218000C00BB6EE001BB4EE410BF1EE10FA05DA0F
:10219000FFE7B6EE000B8DED0A0B30E09DED140A63
:1021A00040F29050C2F2004090ED091A80EE010A10
:1021B000B7EEC00AB0EEC00BB7EE001BB4EE410B99
:1021C000F1EE10FA05DDFFE7B7EE000B8DED080B21
:1021D00010E09DED140A40F29050C2F2004090EDE4
:1021E000091A80EE010AB7EEC00AB0EEC00B8DED01
:1021F000080BFFE79DED080B8DED0A0BFFE79DED4A
:102200000A0B8DED060B04E0B7EE000B8DED060B0F
:10221000FFE79DED060BB7EEC00B8DED110A9DEDAE
:10222000111A40F29050C2F2004090ED070A20EEE1
:10223000010A80ED070A9DED140AB7EEC00AB0EE60
:10224000C00B90ED091AB7EEC11AB4EE410BF1EED6
:1022500010FA74DDFFE79DED140AB7EEC00AB0EE88
:10226000C00B40F29050C2F2004090ED0A1AB7EE57
:10227000C11AB4EE410BF1EE10FA60DAFFE740F25A
:102280009050C2F200409DED143A90ED032A90ED7B
:10229000070A90ED081AA2EE030AB1EE411AB4EE55
:1022A000410AF1EE10FA0BDAFFE740F29050C2F269
:1022B000004090ED080AB1EE400A8DED050A39E0C4
:1022C00040F29050C2F200409DED143A90ED032A86
:1022D00090ED070A90ED081AA2EE030AB4EE410A47
:1022E000F1EE10FA12DDFFE740F29050C2F200402A
:1022F00090ED080A8DED040A17E000BF000034439A
:102300000000B4C3000034C30000B44340F2905056
:10231000C2F2004090ED031A90ED070A9DED142AD9
:10232000A1EE020A8DED040AFFE79DED040A8DED92
:10233000050AFFE79DED050A8DED030A08E040F26E
:102340009050C2F2004090ED070A8DED030AFFE7BE
:102350009DED030A40F29050C2F2004080ED070A62
:102360009DED112A9DED123A90ED070A90ED0B1AA2
:10237000A2EE030AB1EE411AB4EE410AF1EE10FAF0
:102380000BDAFFE740F29050C2F2004090ED0B0AEA
:10239000B1EE400A8DED020A30E09DED112A9DED6F
:1023A000123A40F29050C2F2004090ED070A90EDD0
:1023B0000B1AA2EE030AB4EE410AF1EE10FA09DD9F
:1023C000FFE740F29050C2F2004090ED0B0A8DED15
:1023D000010A0EE09DED111A9DED122A40F2905077
:1023E000C2F2004090ED070AA1EE020A8DED010A4B
:1023F000FFE79DED010A8DED020AFFE79DED020A60
:102400008DED130A9DED130A16B070470000000011
:1024100040F29051C2F200410020C4F2B420886022
:102420004CF28F20C3F6F54008614CF6CD40C3F660
:10243000CC60C8600020C4F26140086249F69A107E
:10244000C3F69960486248F20000C4F2BB40C8621B
:1024500043F23330C3F6B36048604CF6CD40C3F668
:102460004C6008607047000080B540F6A810C2F2CA
:10247000004006F089FD80BD80B540F2D860C2F210
:10248000004006F081FD80BD80B540F25070C2F280
:10249000004006F079FD80BD80B540F62020C2F2F4
:1024A000004006F071FD80BD80B540F2C870C2F2F8
:1024B000004006F069FD80BD80B540F26060C2F268
:1024C000004006F061FD80BD80B540F69820C2F264
:1024D000004006F059FD80BD80B540F6B800C2F25C
:1024E000004006F051FD80BD80B540F63010C2F2CC
:1024F000004006F049FD80BD80B540F64000C2F2C4
:10250000004006F041FD80BD83B002900298016852
:1025100001201022C4F202029142009000F0A38038
:10252000FFE70298016801202822C4F202029142CA
:10253000009000F09880FFE7029801680120402297
:10254000C4F202029142009000F08D80FFE70298F1
:10255000016801205822C4F202029142009000F06A
:102560008280FFE70298016801207022C4F2020213
:102570009142009077D0FFE70298016801208822FD
:10258000C4F20202914200906DD0FFE70298016808
:102590000120A022C4F202029142009063D0FFE722
:1025A000029801680120B822C4F202029142009010
:1025B00059D0FFE702980168012040F21042C4F2AE
:1025C0000202914200904ED0FFE70298016801207C
:1025D00040F22842C4F202029142009043D0FFE749
:1025E00002980168012040F24042C4F20202914286
:1025F000009038D0FFE702980168012040F258426D
:10260000C4F20202914200902DD0FFE702980168C7
:10261000012040F27042C4F202029142009022D0A6
:10262000FFE702980168012040F28842C4F20202EA
:102630009142009017D0FFE702980168012040F214
:10264000A042C4F20202914200900CD0FFE702982F
:1026500000684FF64831CBF6FD710844B0FA80F0BF
:1026600040090090FFE70098C00740B3FFE70298D9
:10267000007810384AF6AB21CAF6AA21A0FB011057
:1026800000090190019800F007014DF26040C0F68A
:102690000100405C0299C8650198042807D3FFE750
:1026A00002990868042262F30900886506E002992D
:1026B000086840F2FF3290438865FFE705E0029921
:1026C000086820F0FF008865FFE70298806D03B07E
:1026D000704700000000000084B003900398006879
:1026E000019003980168012045F20842C5F60202F4
:1026F000914200904ED0FFE703980168012045F217
:102700001C42C5F602029142009043D0FFE70398B5
:102710000168012045F23042C5F602029142009064
:1027200038D0FFE703980168012045F24442C5F61E
:102730000202914200902DD0FFE70398016801202A
:1027400045F25842C5F602029142009022D0FFE7BE
:1027500003980168012045F26C42C5F602029142DD
:10276000009017D0FFE703980168012045F28042EE
:10277000C5F60202914200900CD0FFE70398006872
:102780004AF66C31CAF2FD710844B0FA80F0400993
:102790000090FFE70098C00710B3FFE703980078A8
:1027A00008384CF6CD41CCF6CC41A0FB0110000915
:1027B0000290029945F60000C5F6020000EB810088
:1027C00003990866039945F68000C5F6020048663D
:1027D000029800F01F01012088400399886635E0C7
:1027E0000398007810384AF6AB21CAF6AA21A0FB5C
:1027F000011000090290019840F2B841C4F20201B0
:1028000088420CD8FFE7019840F21041C4F202015F
:10281000884204D3FFE7029808300290FFE702994C
:1028200040F60000C4F2020000EB81000399086644
:10283000039940F68000C4F202004866029800F056
:102840001F010120884003998866FFE704B07047A4
:1028500083B002900298007901900198002800F05E
:102860008A80FFE70198082800F28580FFE7029838
:102870000168012045F20842C5F60202914200902B
:102880004ED0FFE702980168012045F21C42C5F6D0
:1028900002029142009043D0FFE7029801680120B4
:1028A00045F23042C5F602029142009038D0FFE76F
:1028B00002980168012045F24442C5F602029142A5
:1028C00000902DD0FFE702980168012045F25842A0
:1028D000C5F602029142009022D0FFE702980168FB
:1028E000012045F26C42C5F602029142009017D0D9
:1028F000FFE702980168012045F28042C5F6020216
:10290000914200900CD0FFE7029800684AF66C31C3
:10291000CAF2FD710844B0FA80F040090090FFE768
:102920000098C00780B1FFE7019945F6FC00C5F6A5
:10293000020000EB81000299C866029945F640103A
:10294000C5F6020008670FE0019940F6FC00C4F2EA
:10295000020000EB81000299C866029940F640101F
:10296000C4F202000867FFE70198411E0120884079
:1029700002994867FFE703B07047000000000000BD
:1029800085B0049000208DF80F000498806918BB72
:10299000FFE70498806A029003281BD80299DFE8B9
:1029A00001F0020D0218049890F82F00C00720B122
:1029B000FFE701208DF80F00FFE70CE00498C06AE4
:1029C000B0F1C07F04D1FFE701208DF80F00FFE7D1
:1029D00001E000E0FFE747E004988069B0F5005FA0
:1029E00026D1FFE70498806A019003281ED8019938
:1029F000DFE801F00206021101208DF80F0016E059
:102A0000049890F82F00C00720B1FFE701208DF84F
:102A10000F00FFE70BE00498C06AB0F1C07F04D15B
:102A2000FFE701208DF80F00FFE700E0FFE71AE065
:102A30000498806A0090032804D3FFE700980328D5
:102A400004D00EE001208DF80F000BE0049890F800
:102A50002F00C00720B1FFE701208DF80F00FFE72E
:102A600000E0FFE7FFE7FFE79DF80F0005B07047C4
:102A700089B008900791069205930898806D04909C
:102A80000898806D03900898016801201022C4F214
:102A900002029142029000F00381FFE7089801686A
:102AA00001202822C4F202029142029000F0F88034
:102AB000FFE70898016801204022C4F20202914217
:102AC000029000F0ED80FFE708980168012058228D
:102AD000C4F202029142029000F0E280FFE70898FF
:102AE000016801207022C4F202029142029000F0BB
:102AF000D780FFE70898016801208822C4F202020B
:102B00009142029000F0CC80FFE708980168012014
:102B1000A022C4F202029142029000F0C180FFE7BD
:102B2000089801680120B822C4F202029142029082
:102B300000F0B680FFE708980168012040F21042DB
:102B4000C4F202029142029000F0AA80FFE70898C6
:102B50000168012040F22842C4F202029142029030
:102B600000F09E80FFE708980168012040F2404293
:102B7000C4F202029142029000F09280FFE70898AE
:102B80000168012040F25842C4F2020291420290D0
:102B900000F08680FFE708980168012040F270424B
:102BA000C4F20202914202907AD0FFE708980168CD
:102BB000012040F28842C4F20202914202906FD09A
:102BC000FFE708980168012040F2A042C4F2020227
:102BD0009142029064D0FFE708980168012040F21A
:102BE000B842C4F202029142029059D0FFE708981D
:102BF0000168012045F20842C5F6020291420290A6
:102C00004ED0FFE708980168012045F21C42C5F646
:102C100002029142029043D0FFE708980168012028
:102C200045F23042C5F602029142029038D0FFE7E9
:102C300008980168012045F24442C5F6020291421B
:102C400002902DD0FFE708980168012045F2584214
:102C5000C5F602029142029022D0FFE7089801686F
:102C6000012045F26C42C5F602029142029017D053
:102C7000FFE708980168012045F28042C5F602028C
:102C8000914202900CD0FFE7089800684AF66C3138
:102C9000CAF2FD710844B0FA80F040090290FFE7E3
:102CA0000298C00770B1FFE70898416E806E4860D7
:102CB0000898C06E28B1FFE70898016F406F486020
:102CC000FFE7FFE70898016801201022C4F2020222
:102CD0009142019000F0A380FFE70898016801206D
:102CE0002822C4F202029142019000F09880FFE78E
:102CF0000898016801204022C4F20202914201902A
:102D000000F08D80FFE70898016801205822C4F286
:102D100002029142019000F08280FFE7089801686A
:102D200001207022C4F202029142019077D0FFE7A5
:102D30000898016801208822C4F2020291420190A1
:102D40006DD0FFE7089801680120A022C4F20202BA
:102D50009142019063D0FFE7089801680120B822F2
:102D6000C4F202029142019059D0FFE7089801682D
:102D7000012040F21042C4F20202914201904ED072
:102D8000FFE708980168012040F22842C4F20202DD
:102D90009142019043D0FFE708980168012040F27A
:102DA0004042C4F202029142019038D0FFE70898F5
:102DB0000168012040F25842C4F20202914201909F
:102DC0002DD0FFE708980168012040F27042C4F25C
:102DD00002029142019022D0FFE708980168012089
:102DE00040F28842C4F202029142019017D0FFE7FC
:102DF00008980168012040F2A042C4F20202914208
:102E000001900CD0FFE7089800684FF64831CBF6E8
:102E1000FD710844B0FA80F040090190FFE7019885
:102E2000C00750B3FFE70898C06D00F01F013F20B6
:102E300088400499886008980168086820F4802018
:102E400008600598089909684860089880684028D3
:102E500009D1FFE7069808990968886007980899DA
:102E60000968C86008E007980899096888600698AA
:102E700008990968C860FFE782E0089801680120A6
:102E800045F20842C5F60202914200904ED0FFE79B
:102E900008980168012045F21C42C5F602029142E1
:102EA000009043D0FFE708980168012045F23042C6
:102EB000C5F602029142009038D0FFE708980168F9
:102EC000012045F24442C5F60202914200902DD005
:102ED000FFE708980168012045F25842C5F6020252
:102EE0009142009022D0FFE708980168012045F246
:102EF0006C42C5F602029142009017D0FFE7089895
:102F00000168012045F28042C5F60202914200901C
:102F10000CD0FFE7089800684AF66C31CAF2FD71E0
:102F20000844B0FA80F040090090FFE70098C0071D
:102F300020B3FFE70898C06D00F01F010120884012
:102F4000039948600598089909684860089880685E
:102F5000402809D1FFE70698089909688860079812
:102F600008990968C86008E00798089909688860A6
:102F7000069808990968C860FFE700E0FFE7FFE7E7
:102F800009B070470000000080B584B08DF80E00D5
:102F90008DF80D108DF80C208DF80B3000208DF879
:102FA0000A009DF80B000146019140B1FFE701982E
:102FB000012820D0FFE70198022838D053E09DF87F
:102FC0000E009DF80D1001F007F88DF80A009DF82D
:102FD0000A0028B1FFE79DF80A008DF80F004BE0CA
:102FE0009DF80E009DF80D109DF80C2000F0E4FBFC
:102FF0008DF80A003BE09DF80E009DF80D1000F0E2
:1030000057FF8DF80A009DF80A0028B1FFE79DF8E8
:103010000A008DF80F002FE09DF80E009DF80D10AE
:103020009DF80C2000F0A8F98DF80A001FE09DF82B
:103030000E009DF80D1000F0A7FE8DF80A009DF817
:103040000A0028B1FFE79DF80A008DF80F0013E091
:103050009DF80E009DF80D109DF80C2000F010F862
:103060008DF80A0003E0FF208DF80A00FFE79DF8C5
:103070000A008DF80F00FFE79DF90F0004B080BD36
:1030800080B586B08DF816008DF815108DF81420D7
:1030900000208DF8130040F2C801C2F20041896897
:1030A000039102909DF80A1001F0FC0102318DF8A5
:1030B0000A1001909DF8150001460091112800F2B8
:1030C0002B810099DFE811F012003D002801660015
:1030D00066006600660066006A009B00CC00F70090
:1030E000FB0024012401660066006A0000208DF8C0
:1030F0000F009DF80E0000F0E00006308DF80E0085
:103100009DF80D0000F0F00001308DF80D009DF8E5
:103110000C0000F0F00001308DF80C009DF8090063
:1031200000F0800007308DF809009DF804109DF82C
:10313000080001F03F0100F0C00008448DF80800CD
:10314000EEE000208DF80F009DF80E0000F0E0008A
:1031500002308DF80E009DF80D0000F0F0008DF8A3
:103160000D009DF80C0000F0F0008DF80C009DF8AB
:10317000090000F0800003308DF809009DF804106C
:103180009DF8080001F03F0100F0C00008448DF8F0
:103190000800C5E0FF208DF81700E6E000208DF85C
:1031A0000F009DF80E0000F0E0000E308DF80E00CC
:1031B0009DF80D0000F0F00003308DF80D009DF833
:1031C0000C0000F0F00003308DF80C009DF80900B1
:1031D00000F080000F308DF809009DF804109DF874
:1031E000080001F03F0100F0C00008448DF808001D
:1031F0009DF80A0000F0FC008DF80A0090E0002025
:103200008DF80F009DF80E0000F0E00007308DF8FB
:103210000E009DF80D0000F0F00002308DF80D005A
:103220009DF80C0000F0F00002308DF80C009DF8C5
:10323000090000F0800008308DF809009DF80410A6
:103240009DF8080001F03F0100F0C00008448DF82F
:1032500008009DF80A0000F0FC008DF80A005FE00D
:1032600000208DF80F009DF80E0000F0E000063001
:103270008DF80E009DF80D0000F0F00001308DF883
:103280000D009DF80C0000F0F00001308DF80C00EE
:103290009DF8090000F0800007308DF809009DF8C6
:1032A00004109DF8080001F03F0100F0C000084440
:1032B0008DF8080034E0FF208DF8170055E000205D
:1032C0008DF80F009DF80E0000F0E00002308DF840
:1032D0000E009DF80D0000F0F0008DF80D009DF837
:1032E0000C0000F0F0008DF80C009DF8090000F0D3
:1032F000800003308DF809009DF804109DF8080047
:1033000001F03F0100F0C00008448DF8080007E01C
:10331000FF208DF8170028E0FF208DF8170024E02B
:103320009DF81600039A082102F032FB8DF8130075
:103330009DF8130020B1FFE7FE208DF8170014E080
:103340009DF81600029A0C2102F022FB8DF8130062
:103350009DF8130020B1FFE7FD208DF8170004E071
:103360009DF813008DF81700FFE79DF9170006B0D0
:1033700080BD00000000000080B586B08DF816000A
:103380008DF815108DF8142000208DF8130040F2F0
:10339000C801C2F200418968039102909DF80A10A9
:1033A00001F0FC0102318DF80A1001909DF8150022
:1033B00001460091112800F2D1810099DFE811F057
:1033C00012003D00CE0168009100BA00BA00BA00B8
:1033D000BE00EF0020014B017601A101A5016800AC
:1033E000BA00BE0000208DF80F009DF80E0000F01E
:1033F000E0000E308DF80E009DF80D0000F0F0009A
:1034000003308DF80D009DF80C0000F0F000033043
:103410008DF80C009DF8090000F080000F308DF849
:1034200009009DF804109DF8080001F03F0100F02C
:10343000C00008448DF8080094E100208DF80F00CA
:103440009DF80E0000F0E00006308DF80E009DF8AB
:103450000D0000F0F00001308DF80D009DF80C001B
:1034600000F0F00001308DF80C009DF8090000F02C
:10347000800007308DF809009DF804109DF80800C1
:1034800001F03F0100F0C00008448DF8080069E138
:1034900000208DF80F009DF80E0000F0E0000230D3
:1034A0008DF80E009DF80D0000F0F0008DF80D0075
:1034B0009DF80C0000F0F0008DF80C009DF809005C
:1034C00000F0800003308DF809009DF804109DF88D
:1034D000080001F03F0100F0C00008448DF808002A
:1034E00040E100208DF80F009DF80E0000F0E00094
:1034F00001308DF80E009DF80D0000F0F0008DF801
:103500000D009DF80C0000F0F0008DF80C009DF807
:10351000090000F0800002308DF809009DF80410C9
:103520009DF8080001F03F0100F0C00008448DF84C
:10353000080017E1FF208DF8170038E100208DF812
:103540000F009DF80E0000F0E0001E308DF80E0018
:103550009DF80D0000F0F00007308DF80D009DF88B
:103560000C0000F0F00007308DF80C009DF8090009
:1035700000F080001F308DF809009DF804109DF8C0
:10358000080001F03F0100F0C00008448DF8080079
:103590009DF80A0000F0FC008DF80A00E2E000202F
:1035A0008DF80F009DF80E0000F0E00011308DF84E
:1035B0000E009DF80D0000F0F00004308DF80D00B5
:1035C0009DF80C0000F0F00004308DF80C009DF820
:1035D000090000F0800012308DF809009DF80410F9
:1035E0009DF8080001F03F0100F0C00008448DF88C
:1035F00008009DF80A0000F0FC008DF80A00B1E018
:1036000000208DF80F009DF80E0000F0E0000E3055
:103610008DF80E009DF80D0000F0F00003308DF8DD
:103620000D009DF80C0000F0F00003308DF80C0048
:103630009DF8090000F080000F308DF809009DF81A
:1036400004109DF8080001F03F0100F0C00008449C
:103650008DF8080086E000208DF80F009DF80E0020
:1036600000F0E00008308DF80E009DF80D0000F02D
:10367000F00002308DF80D009DF80C0000F0F00015
:1036800002308DF80C009DF8090000F08000093030
:103690008DF809009DF804109DF8080001F03F0125
:1036A00000F0C00008448DF808005BE000208DF8B1
:1036B0000F009DF80E0000F0E00006308DF80E00BF
:1036C0009DF80D0000F0F00001308DF80D009DF820
:1036D0000C0000F0F00001308DF80C009DF809009E
:1036E00000F0800007308DF809009DF804109DF867
:1036F000080001F03F0100F0C00008448DF8080008
:1037000030E0FF208DF8170051E000208DF80F0009
:103710009DF80E0000F0E00002308DF80E009DF8DC
:103720000D0000F0F0008DF80D009DF80C0000F089
:10373000F0008DF80C009DF8090000F080000330C7
:103740008DF809009DF804109DF8080001F03F0174
:1037500000F0C00008448DF8080003E0FF208DF859
:10376000170024E09DF81600039A082102F010F9D2
:103770008DF813009DF8130020B1FFE7FE208DF8AF
:10378000170014E09DF81600029A0C2102F000F9CF
:103790008DF813009DF8130020B1FFE7FD208DF890
:1037A000170004E09DF813008DF81700FFE79DF95E
:1037B000170006B080BD000080B586B08DF81600F9
:1037C0008DF815108DF8142000208DF8130040F2AC
:1037D000C801C2F200418968039102909DF80A1065
:1037E00001F0FC0102318DF80A1001909DF81500DE
:1037F00001460091112800F297820099DFE811F04C
:1038000012003D0068009300BE00E900120137017C
:103810005B018C01BD01E80113023E0269029300C5
:1038200012015B0100208DF80F009DF80E0000F0E2
:10383000E0001E308DF80E009DF80D0000F0F00045
:1038400007308DF80D009DF80C0000F0F0000730F7
:103850008DF80C009DF8090000F080001F308DF8F5
:1038600009009DF804109DF8080001F03F0100F0E8
:10387000C00008448DF808005AE200208DF80F00BF
:103880009DF80E0000F0E0000E308DF80E009DF85F
:103890000D0000F0F00003308DF80D009DF80C00D5
:1038A00000F0F00003308DF80C009DF8090000F0E6
:1038B00080000F308DF809009DF804109DF8080075
:1038C00001F03F0100F0C00008448DF808002FE22D
:1038D00000208DF80F009DF80E0000F0E000083089
:1038E0008DF80E009DF80D0000F0F00002308DF80C
:1038F0000D009DF80C0000F0F00002308DF80C0077
:103900009DF8090000F0800009308DF809009DF84D
:1039100004109DF8080001F03F0100F0C0000844C9
:103920008DF8080004E200208DF80F009DF80E00CD
:1039300000F0E00006308DF80E009DF80D0000F05C
:10394000F00001308DF80D009DF80C0000F0F00043
:1039500001308DF80C009DF8090000F08000073060
:103960008DF809009DF804109DF8080001F03F0152
:1039700000F0C00008448DF80800D9E100208DF85F
:103980000F009DF80E0000F0E00004308DF80E00EE
:103990009DF80D0000F0F00001308DF80D009DF84D
:1039A0000C0000F0F00001308DF80C009DF80900CB
:1039B00000F0800005308DF809009DF804109DF896
:1039C000080001F03F0100F0C00008448DF8080035
:1039D000AEE100208DF80F009DF80E0000F0E00031
:1039E00003308DF80E009DF80D0000F0F0008DF80A
:1039F0000D009DF80C0000F0F0008DF80C009DF813
:103A0000090000F0800004308DF809009DF80410D2
:103A10009DF8080001F03F0100F0C00008448DF857
:103A2000080085E100208DF80F009DF80E0000F0E1
:103A3000E00002308DF80E009DF80D0000F0F0005F
:103A40008DF80D009DF80C0000F0F0008DF80C00D2
:103A50009DF8090000F0800003308DF809009DF802
:103A6000080000F0C00001308DF8080060E100207F
:103A70008DF80F009DF80E0000F0E00001308DF889
:103A80000E009DF80D0000F0F0008DF80D009DF87F
:103A90000C0000F0F0008DF80C009DF8090000F01B
:103AA000800002308DF809009DF8080000F0C00089
:103AB0008DF808003CE101208DF80F009DF80E0004
:103AC00000F0E0001E308DF80E009DF80D0000F0B3
:103AD000F00007308DF80D009DF80C0000F0F000AC
:103AE00007308DF80C009DF8090000F080001F30B1
:103AF0008DF809009DF804109DF8080001F03F01C1
:103B000000F0C00008448DF808009DF80A0000F09D
:103B1000FC008DF80A000BE101208DF80F009DF8E4
:103B20000E0000F0E00011308DF80E009DF80D0041
:103B300000F0F00004308DF80D009DF80C0000F04E
:103B4000F00004308DF80C009DF8090000F08000B2
:103B500012308DF809009DF804109DF8080001F05E
:103B60003F0100F0C00008448DF808009DF80A00ED
:103B700000F0FC008DF80A00DAE000208DF80F005C
:103B80009DF80E0000F0E0001E308DF80E009DF84C
:103B90000D0000F0F00007308DF80D009DF80C00CE
:103BA00000F0F00007308DF80C009DF8090000F0DF
:103BB00080001F308DF809009DF804109DF8080062
:103BC00001F03F0100F0C00008448DF80800AFE0AC
:103BD00000208DF80F009DF80E0000F0E00012307C
:103BE0008DF80E009DF80D0000F0F00005308DF806
:103BF0000D009DF80C0000F0F00005308DF80C0071
:103C00009DF8090000F0800013308DF809009DF840
:103C100004109DF8080001F03F0100F0C0000844C6
:103C20008DF8080084E000208DF80F009DF80E004C
:103C300000F0E0000E308DF80E009DF80D0000F051
:103C4000F00003308DF80D009DF80C0000F0F0003E
:103C500003308DF80C009DF8090000F080000F3053
:103C60008DF809009DF804109DF8080001F03F014F
:103C700000F0C00008448DF8080059E000208DF8DD
:103C80000F009DF80E0000F0E00008308DF80E00E7
:103C90009DF80D0000F0F00002308DF80D009DF849
:103CA0000C0000F0F00002308DF80C009DF80900C7
:103CB00000F0800009308DF809009DF804109DF88F
:103CC000080001F03F0100F0C00008448DF8080032
:103CD0002EE000208DF80F009DF80E0000F0E000AF
:103CE00006308DF80E009DF80D0000F0F000013058
:103CF0008DF80D009DF80C0000F0F00001308DF8FB
:103D00000C009DF8090000F0800007308DF80900D4
:103D10009DF804109DF8080001F03F0100F0C0007C
:103D200008448DF8080003E0FF208DF8170024E018
:103D30009DF81600039A082101F02AFE8DF8130061
:103D40009DF8130020B1FFE7FE208DF8170014E066
:103D50009DF81600029A0C2101F01AFE8DF813004E
:103D60009DF8130020B1FFE7FD208DF8170004E057
:103D70009DF813008DF81700FFE79DF9170006B0B6
:103D800080BD00000000000080B584B08DF80E00FA
:103D90008DF80D1000208DF80C0040F2C800C2F222
:103DA0000040406802909DF80D00014601911128E5
:103DB0005FD80199DFE801F009095D0909090909DE
:103DC0001E1E1E1E1E1E1E33334800208DF80B00C3
:103DD0000E208DF80A009DF8090000F080000330E5
:103DE0008DF809009DF8080000F0800003308DF880
:103DF000080042E000208DF80B001E208DF80A001C
:103E00009DF8090000F0800007308DF809009DF84A
:103E1000080000F0800007308DF808002DE0002039
:103E20008DF80B0007208DF80A009DF8090000F0BE
:103E3000800002308DF809009DF8080000F0800035
:103E400002308DF8080018E000208DF80B003E20AD
:103E50008DF80A009DF8090000F080000F308DF801
:103E600009009DF8080000F080000F308DF8080070
:103E700003E0FF208DF80F0014E09DF80E00029A79
:103E8000042101F085FD8DF80C009DF80C0020B197
:103E9000FFE7FE208DF80F0004E09DF80C008DF880
:103EA0000F00FFE79DF90F0004B080BD0000000087
:103EB00080B584B08DF80E008DF80D1000208DF8BF
:103EC0000C0040F2C800C2F20040406802909DF829
:103ED0000D000146019111285FD80199DFE801F03A
:103EE00009095D09090909091E1E1E1E1E1E1E3331
:103EF000334800208DF80B001E208DF80A009DF835
:103F0000090000F0800007308DF809009DF80800D6
:103F100000F0800007308DF8080042E000208DF8A6
:103F20000B003E208DF80A009DF8090000F080008B
:103F30000F308DF809009DF8080000F080000F3068
:103F40008DF808002DE000208DF80B000E208DF874
:103F50000A009DF8090000F0800003308DF8090088
:103F60009DF8080000F0800003308DF8080018E08C
:103F700000208DF80B007E208DF80A009DF80900C6
:103F800000F080001F308DF809009DF8080000F057
:103F900080001F308DF8080003E0FF208DF80F002F
:103FA00014E09DF80E00029A042101F0F1FC8DF856
:103FB0000C009DF80C0020B1FFE7FE208DF80F00EB
:103FC00004E09DF80C008DF80F00FFE79DF90F004D
:103FD00004B080BD0000000080B584B08DF80E00F4
:103FE0008DF80D1000208DF80C0040F2C800C2F2D0
:103FF0000040406802909DF80D0001460191112893
:104000005FD80199DFE801F00909090909090909DF
:104010001E1E1E1E1E1E1E33334800208DF80B0070
:104020003E208DF80A009DF8090000F080000F3056
:104030008DF809009DF8080000F080000F308DF821
:10404000080042E000208DF80B007E208DF80A0069
:104050009DF8090000F080001F308DF809009DF8E0
:10406000080000F080001F308DF808002DE00020CF
:104070008DF80B001E208DF80A009DF8090000F055
:10408000800007308DF809009DF8080000F08000DE
:1040900007308DF8080018E000208DF80B00FE2096
:1040A0008DF80A009DF8090000F080003F308DF87F
:1040B00009009DF8080000F080003F308DF80800EE
:1040C00003E0FF208DF80F000CE09DF80E00029A2F
:1040D000042101F05DFC8DF80C009DF80C008DF8BA
:1040E0000F00FFE79DF90F0004B080BD0000000045
:1040F00080B584B08DF80E00029100218DF8031078
:1041000040F2C800C2F200400068019002980078B6
:1041100000F01F029DF8040000F0E00010448DF84C
:104120000400029802789DF8040002F0200200F0DA
:10413000DF0010448DF80400029802789DF8040016
:1041400002F0400200F0BF0010448DF80400029815
:1041500002789DF8050000F0FE0040EAD2108DF8CC
:1041600005000298407800F003029DF8050000F079
:10417000F90040EA42008DF80500029842789DF867
:10418000050002F0040200F0EF0040EA82008DF822
:10419000050002984078C0F3C0029DF8060000F0C8
:1041A000FE0010448DF80600029843789DF8060042
:1041B000022202EAD30200F0FD0010448DF806004E
:1041C000029843789DF80600042202EAD30200F028
:1041D000FB0010448DF80600029843789DF8060015
:1041E000082202EAD30200F0F70010448DF806001E
:1041F000029843789DF80600102202EAD30200F0EC
:10420000EF0010448DF80600029882789DF80700B0
:1042100000F00F0040EA02108DF807009DF80E0034
:10422000019A01F0B5FB8DF803009DF8030020B161
:10423000FFE7FF208DF80F0004E09DF803008DF8E4
:104240000F00FFE79DF90F0004B080BD00000000E3
:1042500082B0019040F2C800C2F2004000680090B5
:104260009DF8000000F01F020199087800F0E000BE
:10427000104408709DF800200199087802F020028F
:1042800000F0DF00104408709DF8002001990878C4
:1042900002F0400200F0BF00104408709DF80120B9
:1042A0000199087800F07F0040EAC21008709DF87C
:1042B0000100C0F341020199487800F0FC0010446D
:1042C00048709DF8013001994878042202EA93026F
:1042D00000F0FB00104448709DF8020000F001025D
:1042E0000199487800F0F70040EAC20048709DF854
:1042F00002200199487802F0020200F0EF0040EA43
:10430000C20048709DF802200199487802F004022A
:1043100000F0DF0040EAC20048709DF802200199D9
:10432000487802F0080200F0BF0040EAC20048707E
:104330009DF802200199487802F0100200F07F00F9
:1043400040EAC20048709DF803200199887800F087
:10435000F00040EA12108870002002B070470000A0
:1043600081B08DF802009DF8020020B9FFE700201F
:104370008DF8030081E09DF80200012804DCFFE7CE
:1043800001208DF8030078E09DF80200022804DC8B
:10439000FFE702208DF803006FE09DF8020003287C
:1043A00004DCFFE703208DF8030066E09DF80200BF
:1043B000042804DCFFE704208DF803005DE09DF88D
:1043C0000200052804DCFFE705208DF8030054E017
:1043D0009DF80200062804DCFFE706208DF80300A4
:1043E0004BE09DF80200072804DCFFE707208DF86A
:1043F000030042E09DF80200082804DCFFE70820E3
:104400008DF8030039E09DF802000C2804DCFFE77A
:1044100009208DF8030030E09DF80200102804DC2C
:10442000FFE70A208DF8030027E09DF8020014281A
:1044300004DCFFE70B208DF803001EE09DF802006E
:10444000182804DCFFE70C208DF8030015E09DF828
:104450000200202804DCFFE70D208DF803000CE0AB
:104460009DF80200302804DCFFE70E208DF80300E1
:1044700003E00F208DF80300FFE79DF8030001B073
:10448000704700000000000083B08DF80B00002092
:1044900001909DF80B00082804DCFFE79DF80B0055
:1044A000019024E09DF80B00093801460091062890
:1044B0001BD80099DFE801F004070A0D101316005D
:1044C0000C20019012E0102001900FE014200190C8
:1044D0000CE01820019009E02020019006E0302037
:1044E000019003E04020019000E0FFE7FFE7019822
:1044F00003B070470000000080B582B08DF8060060
:1045000000208DF805008DF804009DF8060040F6A7
:104510000C6101AA00F0E8FA8DF805009DF805008D
:1045200020B1FFE7FF208DF807001BE09DF8040095
:1045300040F001008DF804009DF806009DF804206D
:1045400040F60C6101F058F98DF805009DF8050062
:1045500020B1FFE7FE208DF8070003E000208DF872
:104560000700FFE79DF9070002B080BD00000000D2
:1045700080B584B08DF80E008DF80D1000208DF8F8
:1045800003009DF80D0000F5E870ADF80A009DF8F5
:104590000E00BDF80A1001AA00F0A6FA8DF803007B
:1045A0009DF8030020B1FFE7FF208DF80F001CE00D
:1045B0009DF8040040F080008DF804009DF80E0086
:1045C000BDF80A109DF8042001F016F98DF80300DB
:1045D0009DF8030020B1FFE7FE208DF80F0004E0F6
:1045E0009DF803008DF80F00FFE79DF90F0004B060
:1045F00080BD00000000000080B586B08DF8170077
:104600008DF81610049200208DF80700029004988F
:10461000006802909DF816104FF4FA7000EBC1008C
:10462000ADF80E009DF81700BDF80E10029A01F0CB
:10463000AFF98DF807009DF9070006B080BD0000B6
:1046400080B586B08DF817008DF816100492002002
:104650008DF8070002900498006802909DF81610EB
:104660004FF4F87000EBC100ADF80E009DF8170094
:10467000BDF80E10029A01F08BF98DF807009DF934
:10468000070006B080BD000080B584B08DF80F0033
:104690008DF80E108DF80D208DF80C3000208DF85F
:1046A00003009DF80C00C00738B1FFE79DF8040037
:1046B00040F080008DF8040006E09DF8040000F052
:1046C0007F008DF80400FFE79DF80D109DF80400B1
:1046D00001F01F0100F0E00008448DF804009DF88F
:1046E0000E0000F5E870ADF80A009DF80F00BDF867
:1046F0000A109DF8042001F07FF88DF803009DF961
:10470000030004B080BD000080B584B08DF80E00B9
:104710008DF80D108DF80C2000208DF80B00ADF8F1
:10472000080040F60761ADF8081001909DF80E00F2
:10473000BDF8081001AA033200F0D6F98DF80B007D
:104740009DF80B0020B1FFE7FF208DF80F002DE052
:104750009DF80D109DF8070001F0010100F0FE002A
:1047600008448DF807009DF80C109DF8070001F033
:10477000010100F0FD0040EA41008DF807009DF8BE
:104780000E00BDF808109DF8072001F035F88DF8EF
:104790000B009DF80B0020B1FFE7FE208DF80F0005
:1047A00004E09DF80B008DF80F00FFE79DF90F0066
:1047B00004B080BD0000000080B584B08DF80E000C
:1047C000ADF80C1000208DF80B00ADF808001E218C
:1047D000ADF80810ADF804009DF80E00BDF8081003
:1047E00001AA00F019FA8DF80B009DF80B0020B11A
:1047F000FFE7FF208DF80F001FE0BDF80C0020F050
:10480000E001BDF804000843ADF804009DF80E0077
:10481000BDF80810BDF8042001F06EF88DF80B000B
:104820009DF80B0020B1FFE7FE208DF80F0004E09B
:104830009DF80B008DF80F00FFE79DF90F0004B005
:1048400080BD00000000000080B584B08DF80E002F
:10485000029100208DF80700ADF804008DF80300E8
:104860001B20ADF804009DF80E00BDF804100DF1FA
:10487000030200F039F98DF807009DF8070020B118
:10488000FFE7FF208DF80F0017E09DF803002028B8
:1048900005DBFFE79DF80300402805D1FFE79DF801
:1048A00003000299087003E0029941200870FFE7B5
:1048B0009DF807008DF80F00FFE79DF90F0004B089
:1048C00080BD00000000000080B582B08DF80600B9
:1048D0008DF8051000208DF804008DF803009DF878
:1048E0000600032101AA00F0FFF88DF803009DF8EF
:1048F000030020B1FFE7FF208DF8070022E09DF8BC
:10490000040000F0F8008DF804009DF805109DF8F3
:10491000040008438DF804009DF806009DF804206B
:10492000032100F069FF8DF803009DF8030020B11A
:10493000FFE7FE208DF8070004E09DF803008DF8E6
:104940000700FFE79DF9070002B080BD00000000EE
:1049500082B0019040F2AC10C2F2004000680090BA
:104960009DF8000000F001020199087800F0FE00B7
:10497000104408709DF8003001990878022202EA7C
:10498000530200F0FD00104408709DF800300199BA
:104990000878042202EA930200F0FB001044087039
:1049A0009DF8003001990878182202EA930200F07D
:1049B000E70010440870002002B0704700000000BB
:1049C00080B584B003918DF80B0000208DF80A00AB
:1049D00001909DF80C0000F001019DF8040000F02A
:1049E000FE0008448DF804009DF80C109DF80400AA
:1049F00001F0020100F0FB0040EA41008DF80400E4
:104A00009DF80C109DF8040001F0040100F0EF0087
:104A100040EA81008DF804009DF80C109DF8040018
:104A200001F0180100F09F0040EA81008DF80400B9
:104A30009DF80B009DF804204FF4606100F0DCFE4F
:104A40008DF80A009DF90A0004B080BD0000000046
:104A500080B59CB08DF86E008DF86D1000208DF83B
:104A600007000290FFE702985F280BD8FFE79DF848
:104A70006D00029A0DF10D018854FFE70298013094
:104A80000290F0E74FF48060ADF80400002002903F
:104A9000FFE7029814281DD8FFE79DF86E00BDF8C7
:104AA00004100DF10D02602300F0D6FE8DF8070012
:104AB0009DF8070020B1FFE7FF208DF86F000EE0A2
:104AC000BDF804006030ADF80400FFE70298013043
:104AD0000290DEE79DF807008DF86F00FFE79DF973
:104AE0006F001CB080BD000080B584B08DF80F0051
:104AF000ADF80C1002920321ADF8061000208DF8DD
:104B000005009DF80D2061F31F1241F2F461C2F21D
:104B100000410A70BDF80C204A7088709DF80F00A3
:104B2000BDF8063041F29462C2F20042009201F0F8
:104B30006FF8014600988DF805108078029908708A
:104B40009DF9050004B080BD80B584B08DF80F00DC
:104B5000ADF80C100292ADF80630BDF80600023038
:104B6000ADF8020000208DF801009DF80D00032132
:104B700061F31F1041F2F461C2F200410870BDF808
:104B80000C0048700220ADF80400FFE7BDF80400F7
:104B9000BDF8021088420FDAFFE7BDF8042041F2A9
:104BA000F461C2F2004100208854FFE7BDF8040020
:104BB0000130ADF80400E9E79DF80F00BDF80230C0
:104BC00041F2F461C2F2004141F29462C2F2004249
:104BD00001F01EF88DF801000020ADF80400FFE799
:104BE000BDF80400BDF80610884211DAFFE7BDF8F1
:104BF000042041F29460C2F200401044807802998F
:104C00008854FFE7BDF804000130ADF80400E7E781
:104C10009DF9010004B080BD80B586B08DF8160006
:104C2000ADF8141004920420ADF8060000208DF8B1
:104C300005009DF81500032161F31F1041F2F46196
:104C4000C2F200410870BDF8140048709DF81600CB
:104C5000BDF8063041F29462C2F2004200F0D8FF83
:104C60008DF805009DF8050028B1FFE79DF80500C7
:104C70008DF817002CE004990020088002208DF8A0
:104C80000F00FFE79DF80F0003281CDCFFE79DF8ED
:104C90000F1041F29460C2F20040405C0290029812
:104CA0009DF80F206FF00F0101EBC20100FA01F235
:104CB0000499088810440880FFE79DF80F00013030
:104CC0008DF80F00DEE79DF805008DF81700FFE76F
:104CD0009DF9170006B080BD80B586B08DF816002E
:104CE000ADF8141004920620ADF8060000208DF8EF
:104CF00005009DF81500032161F31F1041F2F461D6
:104D0000C2F200410870BDF8140048709DF816000A
:104D1000BDF8063041F29462C2F2004200F078FF22
:104D20008DF805009DF8050028B1FFE79DF8050006
:104D30008DF817002CE004990020086002208DF8FF
:104D40000F00FFE79DF80F0005281CDCFFE79DF82A
:104D50000F1041F29460C2F20040405C0290029851
:104D60009DF80F206FF00F0101EBC20100FA01F274
:104D70000499086810440860FFE79DF80F000130AF
:104D80008DF80F00DEE79DF805008DF81700FFE7AE
:104D90009DF9170006B080BD80B586B08DF816006D
:104DA000ADF814100492ADF80E30BDF80E0080007E
:104DB0000230ADF8020000208DF801009DF81500CA
:104DC000032161F31F1041F2F461C2F20041087047
:104DD000BDF8140048700220ADF80C00FFE7BDF8E4
:104DE0000C00BDF8021088420FDAFFE7BDF80C2076
:104DF00041F2F461C2F2004100208854FFE7BDF89F
:104E00000C000130ADF80C00E9E79DF81600BDF884
:104E1000023041F2F461C2F2004141F29462C2F206
:104E2000004200F0F5FE8DF801009DF8010028B168
:104E3000FFE79DF801008DF8170040E00220ADF873
:104E400008000020ADF80C00FFE7BDF80C00BDF82D
:104E50000E1088422EDAFFE700200190ADF80A001C
:104E6000FFE7BDF80A00032817DCFFE7BDF80810CC
:104E700041F29460C2F20040405CBDF80A2001A9F2
:104E80008854FFE7BDF80A000130ADF80A00BDF80C
:104E900008000130ADF80800E3E701980499BDF877
:104EA0000C2041F82200FFE7BDF80C000130ADF8FE
:104EB0000C00CAE79DF801008DF81700FFE79DF987
:104EC000170006B080BD000080B584B08DF80E00DC
:104ED0008DF80D10029200208DF80700ADF8040047
:104EE0009DF80D0020B9FFE79C208DF80F0051E0E0
:104EF00040F2C800C2F20040C06C00909DF8000073
:104F000000F07F008DF8000002980088C0F3440292
:104F1000BDF801109DF803304FF4600000EA034033
:104F200040EA0240ADF80110000C8DF80300029831
:104F300001889DF80320BDF8010040EA024089097C
:104F400061F35F50ADF80100000C8DF8030002988A
:104F5000007800F001019DF8000000F0DF0040EA59
:104F600041108DF800009DF80D0000EB400150202D
:104F700000EB8100ADF804009DF80E00BDF80410B0
:104F8000009A00F005FD8DF807009DF807008DF8E8
:104F90000F00FFE79DF90F0004B080BD0000000086
:104FA00082B0019040F2C800C2F20040C06C009094
:104FB0009DF80300019900F01F02088820F03E00D0
:104FC00040EA420008809DF80330019908886FF09C
:104FD0003E0202EA430220F4E070104408809DF88B
:104FE000000042090199088862F30000088000204F
:104FF00002B070470000000080B584B08DF80E004C
:105000008DF80D108DF80C2000208DF80B00ADF8F8
:1050100008009DF80D0020B9FFE79C208DF80F00D7
:105020003BE09DF80D0000EB4001502000EB8100BB
:10503000ADF80800002001909DF80E00BDF80810A2
:1050400001AAFFF751FD8DF80B009DF80B0020B170
:10505000FFE7FF208DF80F001FE09DF80C0000F027
:105060000F019DF8040008438DF804009DF80E0020
:10507000BDF808109DF8042000F0BEFB8DF80B0071
:105080009DF80B0020B1FFE7FE208DF80F0004E033
:105090009DF80B008DF80F00FFE79DF90F0004B09D
:1050A00080BD00000000000080B584B08DF80F00C6
:1050B0008DF80E100020ADF80C008DF8070002905E
:1050C0009DF80E0000EB4001512000EB8100ADF88F
:1050D0000C00BDF8090040F00100ADF809009DF892
:1050E0000F00BDF80C109DF8092000F085FB8DF82D
:1050F00007009DF9070004B080BD0000000000001B
:1051000080B584B08DF80F00029100208DF8070063
:105110009DF80F00029A2021FFF7DEFD8DF80700B1
:105120009DF9070004B080BD80B5A0B084462298E8
:105130008DF87EC08DF87D101E921D938DF8730042
:1051400000208DF872008DF871008DF853009DF8E5
:105150007D0000EB4001502000EB8100ADF86E00B7
:105160009DF87E00BDF86E1018AA0323FFF714FE09
:105170008DF853009DF8530020B1FFE7FF208DF814
:105180007F00E2E0189817909DF85C100020B0EBCB
:10519000D11F04D0FFE7FE208DF87F00D5E01998DD
:1051A00016901A98159015986FF31F30ADF86E0091
:1051B000BDF86E0000F58060ADF86E009DF87300DC
:1051C00008308DF872009DF85C004009C00730B1CE
:1051D000FFE79DF8720004308DF87200FFE79DF83C
:1051E0007200800740B1FFE79DF8720000F0FC00FC
:1051F00004308DF87200FFE79DF872004D2804DB43
:10520000FFE74C208DF87200FFE79DF87E00BDF8A7
:105210006E109DF872300DF10702FFF795FC8DF8C6
:1052200053009DF8530020B1FFE7FD208DF87F006B
:105230008BE09DF807008DF800009DF808008DF8C0
:1052400001009DF809008DF802009DF80A008DF814
:10525000030000981E9908609DF80B008DF800006F
:105260009DF80C008DF801009DF80D008DF80200EE
:105270009DF80E008DF8030000981E9948609DF877
:105280005C004009C00770B3FFE79DF80F008DF880
:1052900000009DF810008DF801009DF811008DF8B8
:1052A00002009DF812008DF8030000981E99886096
:1052B00000208DF87100FFE79DF871009DF87310D4
:1052C00088420FDAFFE79DF871200DF107001044C6
:1052D000007B1D998854FFE79DF8710001308DF81F
:1052E0007100E9E71CE01E99002088608DF87100CC
:1052F000FFE79DF871009DF8731088420FDAFFE711
:105300009DF871200DF107001044007A1D99885412
:10531000FFE79DF8710001308DF87100E9E7FFE7C4
:105320009DF87E009DF87D10FFF7BEFE8DF85300BE
:105330009DF8530020B1FFE7FC208DF87F0004E0CA
:105340009DF853008DF87F00FFE79DF97F0020B0A6
:1053500080BD00000000000080B582B08DF807001D
:105360000220ADF8040000208DF8030041F2F46142
:10537000C2F20041087048709DF80700BDF8043083
:1053800041F29462C2F2004200F042FC8DF8030048
:105390009DF9030002B080BD80B584B08DF80F0088
:1053A0008DF80E10029200208DF80700ADF8040071
:1053B00040F2C800C2F20040C06C00909DF80000AE
:1053C00040F080008DF800000298407800F01F0146
:1053D0009DF8030000F0E00008448DF803000298F7
:1053E00041789DF8030001F0E00100F01F0008443F
:1053F0008DF80300029802789DF80200602101EA0E
:10540000520100F09F0008448DF8020002980078D5
:10541000C0F344019DF8020000F0E00008448DF85C
:1054200002000298007800F001019DF8000000F0F1
:10543000BF0040EA81108DF800009DF80E0000EBDF
:105440004001502000EB8100ADF804009DF80F00F2
:10545000BDF80410009A00F09BFA8DF807009DF942
:10546000070004B080BD000082B0019040F2C80087
:10547000C2F20040C06C00909DF80000C0F38012A2
:105480000199087800F0FE00104408709DF80200B1
:1054900000F01F020199087800F0C10040EA4200C4
:1054A00008709DF802200199087802F0600200F06F
:1054B0003F0040EA420008709DF8030000F01F0220
:1054C0000199487800F0E000104448709DF80320EE
:1054D0000199487802F0E00200F01F001044487083
:1054E000002002B07047000080B584B08DF80E0037
:1054F0008DF80D108DF80C2000208DF80B00ADF804
:1055000008009DF80D1001EB4102502101EB8201D2
:10551000ADF8081001909DF80E00BDF8081001AA22
:10552000FFF7E2FA8DF80B009DF80B0020B1FFE7C2
:10553000FF208DF80F001FE09DF80C0000F0170110
:105540009DF8040008438DF804009DF80E00BDF896
:1055500008109DF8042000F04FF98DF80B009DF81D
:105560000B0020B1FFE7FE208DF80F0004E09DF84E
:105570000B008DF80F00FFE79DF90F0004B080BD10
:1055800080B5A0B084462398DDF888E08DF87EC011
:105590008DF87D101E921D938DF8730000208DF8FC
:1055A00053009DF87D0000EB4001502000EB81008E
:1055B000ADF870009DF87E00BDF8701019AA0323A5
:1055C000FFF7EAFB8DF853009DF8530020B1FFE789
:1055D000FF208DF87F00C7E0199817909DF85C10A8
:1055E0000020B0EBD11F04D1FFE7FE208DF87F0033
:1055F000BAE01E98007900F00F00FEF745FF189002
:1056000018982299884204D2FFE7FD208DF87F0088
:10561000AAE01A9816901B98159015986FF31F30F2
:10562000ADF87000BDF8700000F58060ADF8700056
:105630001E9800788DF807001E9840788DF80800B5
:105640001E9880788DF809001E98C0788DF80A00A1
:105650001E9800798DF80B001E9840798DF80C008B
:105660001E9880798DF80D001E98C0798DF80E0077
:1056700000208DF80600FFE79DF806002299884279
:105680000FD2FFE71D989DF80610405C0DF1070250
:1056900011440872FFE79DF8060001308DF80600FE
:1056A000EAE70020ADF804008DF803009DF88800BB
:1056B000800740B3FFE7229800F00300C0F1040028
:1056C000ADF80400229808308DF8060000208DF80F
:1056D0000300FFE79DF80300BDF80410884211DACB
:1056E000FFE79DF806009DF8031008440DF107013F
:1056F000014400200872FFE79DF8030001308DF897
:105700000300E7E7FFE79DF87E00BDF87010229ADE
:10571000BDF804301A44083293B20DF1070200F0CC
:105720009BF88DF853009DF8530020B1FFE7FC2053
:105730008DF87F0018E09DF87E009DF87D109DF8A3
:10574000732002F0010200F013F88DF853009DF869
:10575000530020B1FFE7FB208DF87F0004E09DF8A7
:1057600053008DF87F00FFE79DF97F0020B080BDDA
:1057700080B584B08DF80E008DF80D108DF80C20DA
:1057800000208DF803009DF80D1001EB410251211E
:1057900001EB8201ADF80A1001909DF8050040F080
:1057A00001008DF805009DF80C00C00738B1FFE737
:1057B0009DF8050040F002008DF80500FFE79DF818
:1057C0000E00BDF80A109DF8052000F015F88DF8C0
:1057D00003009DF8030020B1FFE7FF208DF80F00C4
:1057E00004E09DF803008DF80F00FFE79DF90F001E
:1057F00004B080BD0000000080B584B08DF80F00BB
:10580000ADF80C108DF80B200320ADF80800002037
:105810008DF807009DF80D00022161F31F1041F281
:10582000F461C2F200410870BDF80C0048709DF8A8
:105830000B0088709DF80F00BDF8083041F29462AB
:10584000C2F2004200F0E4F98DF807009DF907006C
:1058500004B080BD0000000080B584B08DF80F005A
:10586000ADF80C100292ADF80630BDF8060002301B
:10587000ADF8020000208DF801009DF80D10022007
:1058800060F31F1141F2F462C2F200421170BDF8E0
:105890000C105170ADF80400FFE7BDF80400BDF82E
:1058A0000210884212DAFFE70298BDF80420104483
:1058B00010F8020C41F2F461C2F200418854FFE793
:1058C000BDF804000130ADF80400E6E79DF80F00D4
:1058D000BDF8023041F2F461C2F2004141F294623B
:1058E000C2F2004200F094F98DF801009DF9010028
:1058F00004B080BD0000000080B584B08DF80F00BA
:10590000ADF80C10ADF80A200420ADF80600002018
:105910008DF805009DF80D10022262F31F1141F26F
:10592000F462C2F200421170BDF80C1051708DF893
:105930000900FFE79DF80900012813DCFFE7BDF827
:105940000A009DF80910CA00D04041F2F462C2F288
:10595000004211448870FFE79DF8090001308DF87E
:105960000900E7E79DF80F00BDF8063041F2F46149
:10597000C2F2004141F29462C2F2004200F048F9E2
:105980008DF805009DF9050004B080BD0000000001
:1059900080B584B08DF80F00ADF80C10029206208F
:1059A000ADF8040000208DF803009DF80D100222D0
:1059B00062F31F1141F2F462C2F200421170BDF8AD
:1059C0000C1051708DF80700FFE79DF807000328C1
:1059D00012DCFFE702989DF80710CA00D04041F2A0
:1059E000F462C2F2004211448870FFE79DF807009C
:1059F00001308DF80700E8E79DF80F00BDF804308E
:105A000041F2F461C2F2004141F29462C2F20042FA
:105A100000F0FEF88DF803009DF9030004B080BD8E
:105A200080B582B08DF807008DF8061000208DF843
:105A300005009DF80700C0B9FFE79DF80600C00704
:105A400048B1FFE741F20040C5F6020040210022C4
:105A500006F0DAFF08E041F20040C5F602004021FE
:105A6000012206F0D1FFFFE703E0FF208DF80500DB
:105A7000FFE79DF9050002B080BD000000000000B6
:105A800080B58CB08DF82F008DF82E108DF82D205C
:105A900000200490FFF760FC0498FEF72DFD0498A9
:105AA000FF21FEF7D5FF0AA8FEF752FF04989DF8E4
:105AB000281041F018018DF828100A99FEF780FF90
:105AC000049A10461146FEF71FFE09A80090FEF743
:105AD000BFFB009904989DF8242042F020028DF825
